{
	"data": {
		"bytecode": {
			"linkReferences": {},
			"object": "608060405234801561001057600080fd5b50600080600073ffffffffffffffffffffffffffffffffffffffff168273ffffffffffffffffffffffffffffffffffffffff161461008d57816000806101000a81548173ffffffffffffffffffffffffffffffffffffffff021916908373ffffffffffffffffffffffffffffffffffffffff1602179055506100ce565b306000806101000a81548173ffffffffffffffffffffffffffffffffffffffff021916908373ffffffffffffffffffffffffffffffffffffffff1602179055505b600073ffffffffffffffffffffffffffffffffffffffff168173ffffffffffffffffffffffffffffffffffffffff16146101485780600160006101000a81548173ffffffffffffffffffffffffffffffffffffffff021916908373ffffffffffffffffffffffffffffffffffffffff16021790555061018a565b30600160006101000a81548173ffffffffffffffffffffffffffffffffffffffff021916908373ffffffffffffffffffffffffffffffffffffffff1602179055505b5050615a5f806200019c6000396000f3fe60806040523480156200001157600080fd5b50600436106200006a5760003560e01c80639b08e8fc146200006f5780639e254d13146200008f578063a7d7381114620000b1578063c8bca06014620000e7578063d18c744614620000f3578063d3c8dd691462000115575b600080fd5b6200008d60048036038101906200008791906200155c565b62000137565b005b620000996200020b565b604051620000a8919062001b93565b60405180910390f35b620000cf6004803603810190620000c99190620015f2565b62000235565b604051620000de919062001b93565b60405180910390f35b620000f162000482565b005b620000fd620005fb565b6040516200010c919062001bed565b60405180910390f35b6200011f62000f3d565b6040516200012e919062001b93565b60405180910390f35b60008054906101000a900473ffffffffffffffffffffffffffffffffffffffff1673ffffffffffffffffffffffffffffffffffffffff163373ffffffffffffffffffffffffffffffffffffffff1614620001c8576040517f08c379a0000000000000000000000000000000000000000000000000000000008152600401620001bf9062001c57565b60405180910390fd5b806000806101000a81548173ffffffffffffffffffffffffffffffffffffffff021916908373ffffffffffffffffffffffffffffffffffffffff16021790555050565b6000600160009054906101000a900473ffffffffffffffffffffffffffffffffffffffff16905090565b600080826fffffffffffffffffffffffffffffffff16116200028e576040517f08c379a0000000000000000000000000000000000000000000000000000000008152600401620002859062001c35565b60405180910390fd5b6000808915620002a157339050620002a5565b3391505b60008983838b8b8b8b30620002b96200020b565b604051620002c79062001352565b620002db9998979695949392919062001d23565b604051809103906000f080158015620002f8573d6000803e3d6000fd5b509050620003068162000f66565b620003473382876fffffffffffffffffffffffffffffffff168c73ffffffffffffffffffffffffffffffffffffffff166200103b909392919063ffffffff16565b6000808273ffffffffffffffffffffffffffffffffffffffff1663b69ef8a86040518163ffffffff1660e01b8152600401604080518083038186803b1580156200039057600080fd5b505afa158015620003a5573d6000803e3d6000fd5b505050506040513d601f19601f82011682018060405250810190620003cb91906200173b565b915091508082141562000415576040517f08c379a00000000000000000000000000000000000000000000000000000000081526004016200040c9062001c9b565b60405180910390fd5b3373ffffffffffffffffffffffffffffffffffffffff168373ffffffffffffffffffffffffffffffffffffffff167f96edf8e8c9198c2371ccf6dffb0b85b666cdc9618d295fa0adb538c1b3b48e3860405160405180910390a38295505050505050979650505050505050565b600160009054906101000a900473ffffffffffffffffffffffffffffffffffffffff1673ffffffffffffffffffffffffffffffffffffffff163373ffffffffffffffffffffffffffffffffffffffff161462000515576040517f08c379a00000000000000000000000000000000000000000000000000000000081526004016200050c9062001c79565b60405180910390fd5b600160009054906101000a900473ffffffffffffffffffffffffffffffffffffffff1673ffffffffffffffffffffffffffffffffffffffff16639e254d136040518163ffffffff1660e01b815260040160206040518083038186803b1580156200057e57600080fd5b505afa15801562000593573d6000803e3d6000fd5b505050506040513d601f19601f82011682018060405250810190620005b991906200158e565b600160006101000a81548173ffffffffffffffffffffffffffffffffffffffff021916908373ffffffffffffffffffffffffffffffffffffffff160217905550565b60606000803073ffffffffffffffffffffffffffffffffffffffff16639e254d136040518163ffffffff1660e01b815260040160206040518083038186803b1580156200064757600080fd5b505afa1580156200065c573d6000803e3d6000fd5b505050506040513d601f19601f820116820180604052508101906200068291906200158e565b90505b3073ffffffffffffffffffffffffffffffffffffffff168173ffffffffffffffffffffffffffffffffffffffff161462000753578180620006c69062001f29565b9250508073ffffffffffffffffffffffffffffffffffffffff16639e254d136040518163ffffffff1660e01b815260040160206040518083038186803b1580156200071057600080fd5b505afa15801562000725573d6000803e3d6000fd5b505050506040513d601f19601f820116820180604052508101906200074b91906200158e565b905062000685565b506000808267ffffffffffffffff81111562000774576200077362001fd5565b5b604051908082528060200260200182016040528015620007b157816020015b6200079d62001360565b815260200190600190039081620007935790505b50905060003073ffffffffffffffffffffffffffffffffffffffff16639e254d136040518163ffffffff1660e01b815260040160206040518083038186803b158015620007fd57600080fd5b505afa15801562000812573d6000803e3d6000fd5b505050506040513d601f19601f820116820180604052508101906200083891906200158e565b90505b3073ffffffffffffffffffffffffffffffffffffffff168173ffffffffffffffffffffffffffffffffffffffff161462000f335760008190506000808273ffffffffffffffffffffffffffffffffffffffff1663b69ef8a86040518163ffffffff1660e01b8152600401604080518083038186803b158015620008bd57600080fd5b505afa158015620008d2573d6000803e3d6000fd5b505050506040513d601f19601f82011682018060405250810190620008f891906200173b565b915091506040518061018001604052808573ffffffffffffffffffffffffffffffffffffffff1681526020018473ffffffffffffffffffffffffffffffffffffffff1663b1c9fe6e6040518163ffffffff1660e01b815260040160206040518083038186803b1580156200096b57600080fd5b505afa15801562000980573d6000803e3d6000fd5b505050506040513d601f19601f82011682018060405250810190620009a6919062001782565b63ffffffff1681526020018473ffffffffffffffffffffffffffffffffffffffff16630fb5a6b46040518163ffffffff1660e01b815260040160206040518083038186803b158015620009f857600080fd5b505afa15801562000a0d573d6000803e3d6000fd5b505050506040513d601f19601f8201168201806040525081019062000a33919062001782565b63ffffffff1681526020018473ffffffffffffffffffffffffffffffffffffffff1663e534155d6040518163ffffffff1660e01b815260040160206040518083038186803b15801562000a8557600080fd5b505afa15801562000a9a573d6000803e3d6000fd5b505050506040513d601f19601f8201168201806040525081019062000ac091906200158e565b73ffffffffffffffffffffffffffffffffffffffff1681526020018473ffffffffffffffffffffffffffffffffffffffff166308551a536040518163ffffffff1660e01b815260040160206040518083038186803b15801562000b2257600080fd5b505afa15801562000b37573d6000803e3d6000fd5b505050506040513d601f19601f8201168201806040525081019062000b5d91906200158e565b73ffffffffffffffffffffffffffffffffffffffff1681526020018473ffffffffffffffffffffffffffffffffffffffff16634665096d6040518163ffffffff1660e01b815260040160206040518083038186803b15801562000bbf57600080fd5b505afa15801562000bd4573d6000803e3d6000fd5b505050506040513d601f19601f8201168201806040525081019062000bfa919062001709565b81526020018473ffffffffffffffffffffffffffffffffffffffff16630dfe16816040518163ffffffff1660e01b815260040160206040518083038186803b15801562000c4657600080fd5b505afa15801562000c5b573d6000803e3d6000fd5b505050506040513d601f19601f8201168201806040525081019062000c819190620016a5565b73ffffffffffffffffffffffffffffffffffffffff1681526020018473ffffffffffffffffffffffffffffffffffffffff1663d21220a76040518163ffffffff1660e01b815260040160206040518083038186803b15801562000ce357600080fd5b505afa15801562000cf8573d6000803e3d6000fd5b505050506040513d601f19601f8201168201806040525081019062000d1e9190620016a5565b73ffffffffffffffffffffffffffffffffffffffff1681526020018381526020018281526020018473ffffffffffffffffffffffffffffffffffffffff1663659621b56040518163ffffffff1660e01b815260040160206040518083038186803b15801562000d8c57600080fd5b505afa15801562000da1573d6000803e3d6000fd5b505050506040513d601f19601f8201168201806040525081019062000dc79190620016d7565b6fffffffffffffffffffffffffffffffff1681526020018473ffffffffffffffffffffffffffffffffffffffff16636ca5b5b06040518163ffffffff1660e01b815260040160206040518083038186803b15801562000e2557600080fd5b505afa15801562000e3a573d6000803e3d6000fd5b505050506040513d601f19601f8201168201806040525081019062000e609190620016d7565b6fffffffffffffffffffffffffffffffff1681525085878151811062000e8b5762000e8a62001fa6565b5b6020026020010181905250858062000ea39062001f29565b9650505050508073ffffffffffffffffffffffffffffffffffffffff16639e254d136040518163ffffffff1660e01b815260040160206040518083038186803b15801562000ef057600080fd5b505afa15801562000f05573d6000803e3d6000fd5b505050506040513d601f19601f8201168201806040525081019062000f2b91906200158e565b90506200083b565b5080935050505090565b60008060009054906101000a900473ffffffffffffffffffffffffffffffffffffffff16905090565b600160009054906101000a900473ffffffffffffffffffffffffffffffffffffffff1673ffffffffffffffffffffffffffffffffffffffff16639b08e8fc826040518263ffffffff1660e01b815260040162000fc3919062001b93565b600060405180830381600087803b15801562000fde57600080fd5b505af115801562000ff3573d6000803e3d6000fd5b5050505080600160006101000a81548173ffffffffffffffffffffffffffffffffffffffff021916908373ffffffffffffffffffffffffffffffffffffffff16021790555050565b620010c2846323b872dd60e01b8585856040516024016200105f9392919062001bb0565b604051602081830303815290604052907bffffffffffffffffffffffffffffffffffffffffffffffffffffffff19166020820180517bffffffffffffffffffffffffffffffffffffffffffffffffffffffff8381831617835250505050620010c8565b50505050565b60006200112c826040518060400160405280602081526020017f5361666545524332303a206c6f772d6c6576656c2063616c6c206661696c65648152508573ffffffffffffffffffffffffffffffffffffffff16620011979092919063ffffffff16565b90506000815111156200119257808060200190518101906200114f9190620015c0565b62001191576040517f08c379a0000000000000000000000000000000000000000000000000000000008152600401620011889062001d01565b60405180910390fd5b5b505050565b6060620011a88484600085620011b1565b90509392505050565b606082471015620011f9576040517f08c379a0000000000000000000000000000000000000000000000000000000008152600401620011f09062001cbd565b60405180910390fd5b6200120485620012d3565b62001246576040517f08c379a00000000000000000000000000000000000000000000000000000000081526004016200123d9062001cdf565b60405180910390fd5b6000808673ffffffffffffffffffffffffffffffffffffffff16858760405162001271919062001b7a565b60006040518083038185875af1925050503d8060008114620012b0576040519150601f19603f3d011682016040523d82523d6000602084013e620012b5565b606091505b5091509150620012c7828286620012e6565b92505050949350505050565b600080823b905060008111915050919050565b60608315620012f8578290506200134b565b6000835111156200130c5782518084602001fd5b816040517f08c379a000000000000000000000000000000000000000000000000000000000815260040162001342919062001c11565b60405180910390fd5b9392505050565b61377080620022ba83390190565b604051806101800160405280600073ffffffffffffffffffffffffffffffffffffffff168152602001600063ffffffff168152602001600063ffffffff168152602001600073ffffffffffffffffffffffffffffffffffffffff168152602001600073ffffffffffffffffffffffffffffffffffffffff16815260200160008152602001600073ffffffffffffffffffffffffffffffffffffffff168152602001600073ffffffffffffffffffffffffffffffffffffffff168152602001600081526020016000815260200160006fffffffffffffffffffffffffffffffff16815260200160006fffffffffffffffffffffffffffffffff1681525090565b60008135905062001470816200221d565b92915050565b60008151905062001487816200221d565b92915050565b6000813590506200149e8162002237565b92915050565b600081519050620014b58162002237565b92915050565b600081359050620014cc8162002251565b92915050565b600081519050620014e38162002251565b92915050565b600081359050620014fa816200226b565b92915050565b60008151905062001511816200226b565b92915050565b600081519050620015288162002285565b92915050565b6000813590506200153f816200229f565b92915050565b60008151905062001556816200229f565b92915050565b60006020828403121562001575576200157462002004565b5b600062001585848285016200145f565b91505092915050565b600060208284031215620015a757620015a662002004565b5b6000620015b78482850162001476565b91505092915050565b600060208284031215620015d957620015d862002004565b5b6000620015e984828501620014a4565b91505092915050565b600080600080600080600060e0888a03121562001614576200161362002004565b5b6000620016248a828b016200148d565b9750506020620016378a828b016200152e565b96505060406200164a8a828b01620014bb565b95505060606200165d8a828b01620014bb565b9450506080620016708a828b01620014e9565b93505060a0620016838a828b01620014e9565b92505060c0620016968a828b01620014e9565b91505092959891949750929550565b600060208284031215620016be57620016bd62002004565b5b6000620016ce84828501620014d2565b91505092915050565b600060208284031215620016f057620016ef62002004565b5b6000620017008482850162001500565b91505092915050565b60006020828403121562001722576200172162002004565b5b6000620017328482850162001517565b91505092915050565b6000806040838503121562001755576200175462002004565b5b6000620017658582860162001517565b9250506020620017788582860162001517565b9150509250929050565b6000602082840312156200179b576200179a62002004565b5b6000620017ab8482850162001545565b91505092915050565b6000620017c2838362001a06565b6101808301905092915050565b620017da8162001e2d565b82525050565b620017eb8162001e2d565b82525050565b6000620017fe8262001dd2565b6200180a818562001e00565b9350620018178362001dc2565b8060005b838110156200184e578151620018328882620017b4565b97506200183f8362001df3565b9250506001810190506200181b565b5085935050505092915050565b6000620018688262001ddd565b62001874818562001e11565b93506200188681856020860162001ef3565b80840191505092915050565b6200189d8162001eb7565b82525050565b620018ae8162001eb7565b82525050565b6000620018c18262001de8565b620018cd818562001e1c565b9350620018df81856020860162001ef3565b620018ea8162002009565b840191505092915050565b60006200190460238362001e1c565b915062001911826200201a565b604082019050919050565b60006200192b60258362001e1c565b9150620019388262002069565b604082019050919050565b60006200195260248362001e1c565b91506200195f82620020b8565b604082019050919050565b60006200197960288362001e1c565b9150620019868262002107565b604082019050919050565b6000620019a060268362001e1c565b9150620019ad8262002156565b604082019050919050565b6000620019c7601d8362001e1c565b9150620019d482620021a5565b602082019050919050565b6000620019ee602a8362001e1c565b9150620019fb82620021ce565b604082019050919050565b6101808201600082015162001a1f6000850182620017cf565b50602082015162001a34602085018262001b58565b50604082015162001a49604085018262001b58565b50606082015162001a5e6060850182620017cf565b50608082015162001a736080850182620017cf565b5060a082015162001a8860a085018262001b36565b5060c082015162001a9d60c085018262001892565b5060e082015162001ab260e085018262001892565b5061010082015162001ac961010085018262001b36565b5061012082015162001ae061012085018262001b36565b5061014082015162001af761014085018262001b14565b5061016082015162001b0e61016085018262001b14565b50505050565b62001b1f8162001e61565b82525050565b62001b308162001e61565b82525050565b62001b418162001e9d565b82525050565b62001b528162001e9d565b82525050565b62001b638162001ea7565b82525050565b62001b748162001ea7565b82525050565b600062001b8882846200185b565b915081905092915050565b600060208201905062001baa6000830184620017e0565b92915050565b600060608201905062001bc76000830186620017e0565b62001bd66020830185620017e0565b62001be5604083018462001b47565b949350505050565b6000602082019050818103600083015262001c098184620017f1565b905092915050565b6000602082019050818103600083015262001c2d8184620018b4565b905092915050565b6000602082019050818103600083015262001c5081620018f5565b9050919050565b6000602082019050818103600083015262001c72816200191c565b9050919050565b6000602082019050818103600083015262001c948162001943565b9050919050565b6000602082019050818103600083015262001cb6816200196a565b9050919050565b6000602082019050818103600083015262001cd88162001991565b9050919050565b6000602082019050818103600083015262001cfa81620019b8565b9050919050565b6000602082019050818103600083015262001d1c81620019df565b9050919050565b60006101208201905062001d3b600083018c62001b69565b62001d4a602083018b620017e0565b62001d59604083018a620017e0565b62001d686060830189620018a3565b62001d776080830188620018a3565b62001d8660a083018762001b25565b62001d9560c083018662001b25565b62001da460e0830185620017e0565b62001db4610100830184620017e0565b9a9950505050505050505050565b6000819050602082019050919050565b600081519050919050565b600081519050919050565b600081519050919050565b6000602082019050919050565b600082825260208201905092915050565b600081905092915050565b600082825260208201905092915050565b600062001e3a8262001e7d565b9050919050565b60008115159050919050565b600062001e5a8262001e2d565b9050919050565b60006fffffffffffffffffffffffffffffffff82169050919050565b600073ffffffffffffffffffffffffffffffffffffffff82169050919050565b6000819050919050565b600063ffffffff82169050919050565b600062001ec48262001ecb565b9050919050565b600062001ed88262001edf565b9050919050565b600062001eec8262001e7d565b9050919050565b60005b8381101562001f1357808201518184015260208101905062001ef6565b8381111562001f23576000848401525b50505050565b600062001f368262001e9d565b91507fffffffffffffffffffffffffffffffffffffffffffffffffffffffffffffffff82141562001f6c5762001f6b62001f77565b5b600182019050919050565b7f4e487b7100000000000000000000000000000000000000000000000000000000600052601160045260246000fd5b7f4e487b7100000000000000000000000000000000000000000000000000000000600052603260045260246000fd5b7f4e487b7100000000000000000000000000000000000000000000000000000000600052604160045260246000fd5b600080fd5b6000601f19601f8301169050919050565b7f416d6f756e7430206d7573742062652061206e6f6e207a65726f207175616e7460008201527f6974790000000000000000000000000000000000000000000000000000000000602082015250565b7f4f6e6c792074686520706172656e742063616e2061736b20746f20626520636860008201527f616e676564000000000000000000000000000000000000000000000000000000602082015250565b7f4f6e6c7920746865206368696c642063616e2061736b20746f2062652072656d60008201527f6f76656400000000000000000000000000000000000000000000000000000000602082015250565b7f546f6b656e73206d7573742062652074776f2064697374696e6374204552433260008201527f3020746f6b656e73000000000000000000000000000000000000000000000000602082015250565b7f416464726573733a20696e73756666696369656e742062616c616e636520666f60008201527f722063616c6c0000000000000000000000000000000000000000000000000000602082015250565b7f416464726573733a2063616c6c20746f206e6f6e2d636f6e7472616374000000600082015250565b7f5361666545524332303a204552433230206f7065726174696f6e20646964206e60008201527f6f74207375636365656400000000000000000000000000000000000000000000602082015250565b620022288162001e2d565b81146200223457600080fd5b50565b620022428162001e41565b81146200224e57600080fd5b50565b6200225c8162001e4d565b81146200226857600080fd5b50565b620022768162001e61565b81146200228257600080fd5b50565b620022908162001e9d565b81146200229c57600080fd5b50565b620022aa8162001ea7565b8114620022b657600080fd5b5056fe60806040523480156200001157600080fd5b50604051620037703803806200377083398181016040528101906200003791906200066b565b8181600073ffffffffffffffffffffffffffffffffffffffff168273ffffffffffffffffffffffffffffffffffffffff1614620000b457816000806101000a81548173ffffffffffffffffffffffffffffffffffffffff021916908373ffffffffffffffffffffffffffffffffffffffff160217905550620000f5565b306000806101000a81548173ffffffffffffffffffffffffffffffffffffffff021916908373ffffffffffffffffffffffffffffffffffffffff1602179055505b600073ffffffffffffffffffffffffffffffffffffffff168173ffffffffffffffffffffffffffffffffffffffff1614620001715780600160006101000a81548173ffffffffffffffffffffffffffffffffffffffff021916908373ffffffffffffffffffffffffffffffffffffffff160217905550620001b3565b30600160006101000a81548173ffffffffffffffffffffffffffffffffffffffff021916908373ffffffffffffffffffffffffffffffffffffffff1602179055505b505060018060146101000a81548163ffffffff021916908363ffffffff16021790555060008963ffffffff161162000222576040517f08c379a000000000000000000000000000000000000000000000000000000000815260040162000219906200082f565b60405180910390fd5b88600160186101000a81548163ffffffff021916908363ffffffff160217905550600073ffffffffffffffffffffffffffffffffffffffff168873ffffffffffffffffffffffffffffffffffffffff161480620002ab5750600073ffffffffffffffffffffffffffffffffffffffff168773ffffffffffffffffffffffffffffffffffffffff16145b620002ed576040517f08c379a0000000000000000000000000000000000000000000000000000000008152600401620002e49062000873565b60405180910390fd5b87600260006101000a81548173ffffffffffffffffffffffffffffffffffffffff021916908373ffffffffffffffffffffffffffffffffffffffff16021790555086600360006101000a81548173ffffffffffffffffffffffffffffffffffffffff021916908373ffffffffffffffffffffffffffffffffffffffff16021790555042600481905550600073ffffffffffffffffffffffffffffffffffffffff168673ffffffffffffffffffffffffffffffffffffffff1614158015620003e15750600073ffffffffffffffffffffffffffffffffffffffff168573ffffffffffffffffffffffffffffffffffffffff1614155b62000423576040517f08c379a00000000000000000000000000000000000000000000000000000000081526004016200041a9062000851565b60405180910390fd5b8473ffffffffffffffffffffffffffffffffffffffff168673ffffffffffffffffffffffffffffffffffffffff16141562000495576040517f08c379a00000000000000000000000000000000000000000000000000000000081526004016200048c906200080d565b60405180910390fd5b85600560006101000a81548173ffffffffffffffffffffffffffffffffffffffff021916908373ffffffffffffffffffffffffffffffffffffffff16021790555084600660006101000a81548173ffffffffffffffffffffffffffffffffffffffff021916908373ffffffffffffffffffffffffffffffffffffffff1602179055506000846fffffffffffffffffffffffffffffffff161180156200054c57506000836fffffffffffffffffffffffffffffffff16115b6200058e576040517f08c379a0000000000000000000000000000000000000000000000000000000008152600401620005859062000895565b60405180910390fd5b83600760006101000a8154816fffffffffffffffffffffffffffffffff02191690836fffffffffffffffffffffffffffffffff16021790555082600760106101000a8154816fffffffffffffffffffffffffffffffff02191690836fffffffffffffffffffffffffffffffff16021790555050505050505050505062000b34565b600081519050620006208162000acc565b92915050565b600081519050620006378162000ae6565b92915050565b6000815190506200064e8162000b00565b92915050565b600081519050620006658162000b1a565b92915050565b60008060008060008060008060006101208a8c0312156200069157620006906200093c565b5b6000620006a18c828d0162000654565b9950506020620006b48c828d016200060f565b9850506040620006c78c828d016200060f565b9750506060620006da8c828d0162000626565b9650506080620006ed8c828d0162000626565b95505060a0620007008c828d016200063d565b94505060c0620007138c828d016200063d565b93505060e0620007268c828d016200060f565b9250506101006200073a8c828d016200060f565b9150509295985092959850929598565b600062000759602883620008b7565b9150620007668262000941565b604082019050919050565b600062000780602483620008b7565b91506200078d8262000990565b604082019050919050565b6000620007a7602d83620008b7565b9150620007b482620009df565b604082019050919050565b6000620007ce603383620008b7565b9150620007db8262000a2e565b604082019050919050565b6000620007f5602d83620008b7565b9150620008028262000a7d565b604082019050919050565b6000602082019050818103600083015262000828816200074a565b9050919050565b600060208201905081810360008301526200084a8162000771565b9050919050565b600060208201905081810360008301526200086c8162000798565b9050919050565b600060208201905081810360008301526200088e81620007bf565b9050919050565b60006020820190508181036000830152620008b081620007e6565b9050919050565b600082825260208201905092915050565b6000620008d5826200090c565b9050919050565b6000620008e982620008c8565b9050919050565b60006fffffffffffffffffffffffffffffffff82169050919050565b600073ffffffffffffffffffffffffffffffffffffffff82169050919050565b600063ffffffff82169050919050565b600080fd5b7f546f6b656e73206d7573742062652074776f2064697374696e6374204552433260008201527f3020746f6b656e73000000000000000000000000000000000000000000000000602082015250565b7f4475726174696f6e206d7573742062652061206e6f6e207a65726f207175616e60008201527f7469747900000000000000000000000000000000000000000000000000000000602082015250565b7f546f6b656e20616464726573736573206d7573742062652076616c696420455260008201527f4332302061646472657373657300000000000000000000000000000000000000602082015250565b7f4f6e6c79206f6e65206265747765656e20686f6c64657220616e642073656c6c60008201527f65722063616e2062652073706563696669656400000000000000000000000000602082015250565b7f5265736572766520636f6e7374616e7473206d7573742062652061206e6f6e2060008201527f7a65726f207175616e7469747900000000000000000000000000000000000000602082015250565b62000ad781620008c8565b811462000ae357600080fd5b50565b62000af181620008dc565b811462000afd57600080fd5b50565b62000b0b81620008f0565b811462000b1757600080fd5b50565b62000b25816200092c565b811462000b3157600080fd5b50565b612c2c8062000b446000396000f3fe608060405234801561001057600080fd5b50600436106101215760003560e01c80639b08e8fc116100ad578063c8bca06011610071578063c8bca060146102b1578063d21220a7146102bb578063d3c8dd69146102d9578063dabd614b146102f7578063e534155d1461031357610121565b80639b08e8fc1461021e5780639e254d131461023a578063a192475714610258578063b1c9fe6e14610274578063b69ef8a81461029257610121565b8063659621b5116100f4578063659621b51461019e5780636ca5b5b0146101bc5780637ac951fc146101da57806380e9071b146101f6578063893d20e81461020057610121565b806308551a53146101265780630dfe1681146101445780630fb5a6b4146101625780634665096d14610180575b600080fd5b61012e610331565b60405161013b919061221b565b60405180910390f35b61014c610357565b6040516101599190612296565b60405180910390f35b61016a61037d565b6040516101779190612577565b60405180910390f35b610188610393565b6040516101959190612533565b60405180910390f35b6101a6610399565b6040516101b391906124d3565b60405180910390f35b6101c46103bb565b6040516101d191906124d3565b60405180910390f35b6101f460048036038101906101ef9190611e4b565b6103dd565b005b6101fe6107b3565b005b61020861098c565b604051610215919061221b565b60405180910390f35b61023860048036038101906102339190611d5d565b610a35565b005b610242610b06565b60405161024f919061221b565b60405180910390f35b610272600480360381019061026d9190611eb8565b610b30565b005b61027c610e80565b6040516102899190612577565b60405180910390f35b61029a610e96565b6040516102a892919061254e565b60405180910390f35b6102b9610ff7565b005b6102c3611169565b6040516102d09190612296565b60405180910390f35b6102e161118f565b6040516102ee919061221b565b60405180910390f35b610311600480360381019061030c9190611de4565b6111b8565b005b61031b61178d565b604051610328919061221b565b60405180910390f35b600360009054906101000a900473ffffffffffffffffffffffffffffffffffffffff1681565b600560009054906101000a900473ffffffffffffffffffffffffffffffffffffffff1681565b600160189054906101000a900463ffffffff1681565b60045481565b600760009054906101000a90046fffffffffffffffffffffffffffffffff1681565b600760109054906101000a90046fffffffffffffffffffffffffffffffff1681565b6000600160149054906101000a900463ffffffff1663ffffffff1611801561042257508063ffffffff16600160149054906101000a900463ffffffff1663ffffffff16145b610461576040517f08c379a000000000000000000000000000000000000000000000000000000000815260040161045890612313565b60405180910390fd5b6000600160146101000a81548163ffffffff021916908363ffffffff1602179055506000826fffffffffffffffffffffffffffffffff16116104d8576040517f08c379a00000000000000000000000000000000000000000000000000000000081526004016104cf906122d3565b60405180910390fd5b600073ffffffffffffffffffffffffffffffffffffffff16600360009054906101000a900473ffffffffffffffffffffffffffffffffffffffff1673ffffffffffffffffffffffffffffffffffffffff1614156105755733600360006101000a81548173ffffffffffffffffffffffffffffffffffffffff021916908373ffffffffffffffffffffffffffffffffffffffff1602179055506105b7565b33600260006101000a81548173ffffffffffffffffffffffffffffffffffffffff021916908373ffffffffffffffffffffffffffffffffffffffff1602179055505b600160189054906101000a900463ffffffff1663ffffffff16426105db91906125c4565b6004819055506106423330846fffffffffffffffffffffffffffffffff16600560009054906101000a900473ffffffffffffffffffffffffffffffffffffffff1673ffffffffffffffffffffffffffffffffffffffff166117b3909392919063ffffffff16565b600760009054906101000a90046fffffffffffffffffffffffffffffffff166fffffffffffffffffffffffffffffffff16600560009054906101000a900473ffffffffffffffffffffffffffffffffffffffff1673ffffffffffffffffffffffffffffffffffffffff166370a08231306040518263ffffffff1660e01b81526004016106ce919061221b565b60206040518083038186803b1580156106e657600080fd5b505afa1580156106fa573d6000803e3d6000fd5b505050506040513d601f19601f8201168201806040525081019061071e9190611e8b565b101561075f576040517f08c379a000000000000000000000000000000000000000000000000000000000815260040161075690612353565b60405180910390fd5b3373ffffffffffffffffffffffffffffffffffffffff167f7662edf7d3118deca7209335e1b070e04950f12c6a27d44f9972d4101bf4759d6004546040516107a79190612533565b60405180910390a25050565b6004544210156107f8576040517f08c379a00000000000000000000000000000000000000000000000000000000081526004016107ef90612493565b60405180910390fd5b600061080261098c565b90508073ffffffffffffffffffffffffffffffffffffffff163373ffffffffffffffffffffffffffffffffffffffff1614610872576040517f08c379a000000000000000000000000000000000000000000000000000000000815260040161086990612453565b60405180910390fd5b60008061087d610e96565b9150915060008211156108d8576108d78383600560009054906101000a900473ffffffffffffffffffffffffffffffffffffffff1673ffffffffffffffffffffffffffffffffffffffff1661183c9092919063ffffffff16565b5b600081111561092f5761092e8382600660009054906101000a900473ffffffffffffffffffffffffffffffffffffffff1673ffffffffffffffffffffffffffffffffffffffff1661183c9092919063ffffffff16565b5b6109376118c2565b8273ffffffffffffffffffffffffffffffffffffffff167f0e1b927658277f7a84084d8e5fdc6eafb73c7bd3f598f95137eb95812e42bc2a838360405161097f92919061254e565b60405180910390a2505050565b60008073ffffffffffffffffffffffffffffffffffffffff16600360009054906101000a900473ffffffffffffffffffffffffffffffffffffffff1673ffffffffffffffffffffffffffffffffffffffff161415610a0c57600260009054906101000a900473ffffffffffffffffffffffffffffffffffffffff16610a30565b600360009054906101000a900473ffffffffffffffffffffffffffffffffffffffff165b905090565b60008054906101000a900473ffffffffffffffffffffffffffffffffffffffff1673ffffffffffffffffffffffffffffffffffffffff163373ffffffffffffffffffffffffffffffffffffffff1614610ac3576040517f08c379a0000000000000000000000000000000000000000000000000000000008152600401610aba906122f3565b60405180910390fd5b806000806101000a81548173ffffffffffffffffffffffffffffffffffffffff021916908373ffffffffffffffffffffffffffffffffffffffff16021790555050565b6000600160009054906101000a900473ffffffffffffffffffffffffffffffffffffffff16905090565b6000600160149054906101000a900463ffffffff1663ffffffff1611610b8b576040517f08c379a0000000000000000000000000000000000000000000000000000000008152600401610b8290612313565b60405180910390fd5b6001601481819054906101000a900463ffffffff1680929190610bad90612751565b91906101000a81548163ffffffff021916908363ffffffff160217905550506000610bd661098c565b90508073ffffffffffffffffffffffffffffffffffffffff163373ffffffffffffffffffffffffffffffffffffffff1614610c46576040517f08c379a0000000000000000000000000000000000000000000000000000000008152600401610c3d90612453565b60405180910390fd5b60008563ffffffff1611610c8f576040517f08c379a0000000000000000000000000000000000000000000000000000000008152600401610c8690612413565b60405180910390fd5b84600160186101000a81548163ffffffff021916908363ffffffff160217905550426004819055506000836fffffffffffffffffffffffffffffffff16118015610ceb57506000826fffffffffffffffffffffffffffffffff16115b610d2a576040517f08c379a0000000000000000000000000000000000000000000000000000000008152600401610d21906124b3565b60405180910390fd5b82600760006101000a8154816fffffffffffffffffffffffffffffffff02191690836fffffffffffffffffffffffffffffffff16021790555081600760106101000a8154816fffffffffffffffffffffffffffffffff02191690836fffffffffffffffffffffffffffffffff1602179055506000846fffffffffffffffffffffffffffffffff161115610e1957610e183330866fffffffffffffffffffffffffffffffff16600560009054906101000a900473ffffffffffffffffffffffffffffffffffffffff1673ffffffffffffffffffffffffffffffffffffffff166117b3909392919063ffffffff16565b5b8073ffffffffffffffffffffffffffffffffffffffff167fc25ec5ca82ce1aeb709bff59f2a2f03d8a1f9c23a8a9ab6b301f5b3af384a0f7600160149054906101000a900463ffffffff16604051610e719190612577565b60405180910390a25050505050565b600160149054906101000a900463ffffffff1681565b600080600560009054906101000a900473ffffffffffffffffffffffffffffffffffffffff1673ffffffffffffffffffffffffffffffffffffffff166370a08231306040518263ffffffff1660e01b8152600401610ef4919061221b565b60206040518083038186803b158015610f0c57600080fd5b505afa158015610f20573d6000803e3d6000fd5b505050506040513d601f19601f82011682018060405250810190610f449190611e8b565b600660009054906101000a900473ffffffffffffffffffffffffffffffffffffffff1673ffffffffffffffffffffffffffffffffffffffff166370a08231306040518263ffffffff1660e01b8152600401610f9f919061221b565b60206040518083038186803b158015610fb757600080fd5b505afa158015610fcb573d6000803e3d6000fd5b505050506040513d601f19601f82011682018060405250810190610fef9190611e8b565b915091509091565b600160009054906101000a900473ffffffffffffffffffffffffffffffffffffffff1673ffffffffffffffffffffffffffffffffffffffff163373ffffffffffffffffffffffffffffffffffffffff1614611087576040517f08c379a000000000000000000000000000000000000000000000000000000000815260040161107e90612333565b60405180910390fd5b600160009054906101000a900473ffffffffffffffffffffffffffffffffffffffff1673ffffffffffffffffffffffffffffffffffffffff16639e254d136040518163ffffffff1660e01b815260040160206040518083038186803b1580156110ef57600080fd5b505afa158015611103573d6000803e3d6000fd5b505050506040513d601f19601f820116820180604052508101906111279190611d8a565b600160006101000a81548173ffffffffffffffffffffffffffffffffffffffff021916908373ffffffffffffffffffffffffffffffffffffffff160217905550565b600660009054906101000a900473ffffffffffffffffffffffffffffffffffffffff1681565b60008060009054906101000a900473ffffffffffffffffffffffffffffffffffffffff16905090565b6000600160149054906101000a900463ffffffff1663ffffffff1614611213576040517f08c379a000000000000000000000000000000000000000000000000000000000815260040161120a90612373565b60405180910390fd5b600260009054906101000a900473ffffffffffffffffffffffffffffffffffffffff1673ffffffffffffffffffffffffffffffffffffffff163373ffffffffffffffffffffffffffffffffffffffff16146112a3576040517f08c379a000000000000000000000000000000000000000000000000000000000815260040161129a906123d3565b60405180910390fd5b60045442106112e7576040517f08c379a00000000000000000000000000000000000000000000000000000000081526004016112de906123b3565b60405180910390fd5b6000826fffffffffffffffffffffffffffffffff16118061131a57506000816fffffffffffffffffffffffffffffffff16115b611359576040517f08c379a0000000000000000000000000000000000000000000000000000000008152600401611350906123f3565b60405180910390fd5b6000846fffffffffffffffffffffffffffffffff1611156113f8576113f7600260009054906101000a900473ffffffffffffffffffffffffffffffffffffffff1630866fffffffffffffffffffffffffffffffff16600560009054906101000a900473ffffffffffffffffffffffffffffffffffffffff1673ffffffffffffffffffffffffffffffffffffffff166117b3909392919063ffffffff16565b5b6000836fffffffffffffffffffffffffffffffff16111561149757611496600260009054906101000a900473ffffffffffffffffffffffffffffffffffffffff1630856fffffffffffffffffffffffffffffffff16600660009054906101000a900473ffffffffffffffffffffffffffffffffffffffff1673ffffffffffffffffffffffffffffffffffffffff166117b3909392919063ffffffff16565b5b6000826fffffffffffffffffffffffffffffffff16111561153457611533600260009054906101000a900473ffffffffffffffffffffffffffffffffffffffff16836fffffffffffffffffffffffffffffffff16600560009054906101000a900473ffffffffffffffffffffffffffffffffffffffff1673ffffffffffffffffffffffffffffffffffffffff1661183c9092919063ffffffff16565b5b6000816fffffffffffffffffffffffffffffffff1611156115d1576115d0600260009054906101000a900473ffffffffffffffffffffffffffffffffffffffff16826fffffffffffffffffffffffffffffffff16600660009054906101000a900473ffffffffffffffffffffffffffffffffffffffff1673ffffffffffffffffffffffffffffffffffffffff1661183c9092919063ffffffff16565b5b6000806115dc610e96565b91509150600760109054906101000a90046fffffffffffffffffffffffffffffffff166fffffffffffffffffffffffffffffffff16600760009054906101000a90046fffffffffffffffffffffffffffffffff166fffffffffffffffffffffffffffffffff1661164c919061261a565b81600760009054906101000a90046fffffffffffffffffffffffffffffffff166fffffffffffffffffffffffffffffffff16611688919061261a565b83600760109054906101000a90046fffffffffffffffffffffffffffffffff166fffffffffffffffffffffffffffffffff166116c4919061261a565b6116ce91906125c4565b101561170f576040517f08c379a000000000000000000000000000000000000000000000000000000000815260040161170690612353565b60405180910390fd5b600260009054906101000a900473ffffffffffffffffffffffffffffffffffffffff1673ffffffffffffffffffffffffffffffffffffffff167fb029ec0911dfd170dbc1992b48561b88a491ee3e92f0d20dc4fed6851e5125af8787878760405161177d94939291906124ee565b60405180910390a2505050505050565b600260009054906101000a900473ffffffffffffffffffffffffffffffffffffffff1681565b611836846323b872dd60e01b8585856040516024016117d493929190612236565b604051602081830303815290604052907bffffffffffffffffffffffffffffffffffffffffffffffffffffffff19166020820180517bffffffffffffffffffffffffffffffffffffffffffffffffffffffff8381831617835250505050611a72565b50505050565b6118bd8363a9059cbb60e01b848460405160240161185b92919061226d565b604051602081830303815290604052907bffffffffffffffffffffffffffffffffffffffffffffffffffffffff19166020820180517bffffffffffffffffffffffffffffffffffffffffffffffffffffffff8381831617835250505050611a72565b505050565b60008054906101000a900473ffffffffffffffffffffffffffffffffffffffff1673ffffffffffffffffffffffffffffffffffffffff1663c8bca0606040518163ffffffff1660e01b8152600401600060405180830381600087803b15801561192a57600080fd5b505af115801561193e573d6000803e3d6000fd5b50505050600160009054906101000a900473ffffffffffffffffffffffffffffffffffffffff1673ffffffffffffffffffffffffffffffffffffffff16639b08e8fc60008054906101000a900473ffffffffffffffffffffffffffffffffffffffff166040518263ffffffff1660e01b81526004016119bd919061221b565b600060405180830381600087803b1580156119d757600080fd5b505af11580156119eb573d6000803e3d6000fd5b50505050306000806101000a81548173ffffffffffffffffffffffffffffffffffffffff021916908373ffffffffffffffffffffffffffffffffffffffff16021790555030600160006101000a81548173ffffffffffffffffffffffffffffffffffffffff021916908373ffffffffffffffffffffffffffffffffffffffff160217905550565b6000611ad4826040518060400160405280602081526020017f5361666545524332303a206c6f772d6c6576656c2063616c6c206661696c65648152508573ffffffffffffffffffffffffffffffffffffffff16611b399092919063ffffffff16565b9050600081511115611b345780806020019051810190611af49190611db7565b611b33576040517f08c379a0000000000000000000000000000000000000000000000000000000008152600401611b2a90612473565b60405180910390fd5b5b505050565b6060611b488484600085611b51565b90509392505050565b606082471015611b96576040517f08c379a0000000000000000000000000000000000000000000000000000000008152600401611b8d90612393565b60405180910390fd5b611b9f85611c65565b611bde576040517f08c379a0000000000000000000000000000000000000000000000000000000008152600401611bd590612433565b60405180910390fd5b6000808673ffffffffffffffffffffffffffffffffffffffff168587604051611c079190612204565b60006040518083038185875af1925050503d8060008114611c44576040519150601f19603f3d011682016040523d82523d6000602084013e611c49565b606091505b5091509150611c59828286611c78565b92505050949350505050565b600080823b905060008111915050919050565b60608315611c8857829050611cd8565b600083511115611c9b5782518084602001fd5b816040517f08c379a0000000000000000000000000000000000000000000000000000000008152600401611ccf91906122b1565b60405180910390fd5b9392505050565b600081359050611cee81612b83565b92915050565b600081519050611d0381612b83565b92915050565b600081519050611d1881612b9a565b92915050565b600081359050611d2d81612bb1565b92915050565b600081519050611d4281612bc8565b92915050565b600081359050611d5781612bdf565b92915050565b600060208284031215611d7357611d726127ad565b5b6000611d8184828501611cdf565b91505092915050565b600060208284031215611da057611d9f6127ad565b5b6000611dae84828501611cf4565b91505092915050565b600060208284031215611dcd57611dcc6127ad565b5b6000611ddb84828501611d09565b91505092915050565b60008060008060808587031215611dfe57611dfd6127ad565b5b6000611e0c87828801611d1e565b9450506020611e1d87828801611d1e565b9350506040611e2e87828801611d1e565b9250506060611e3f87828801611d1e565b91505092959194509250565b60008060408385031215611e6257611e616127ad565b5b6000611e7085828601611d1e565b9250506020611e8185828601611d48565b9150509250929050565b600060208284031215611ea157611ea06127ad565b5b6000611eaf84828501611d33565b91505092915050565b60008060008060808587031215611ed257611ed16127ad565b5b6000611ee087828801611d48565b9450506020611ef187828801611d1e565b9350506040611f0287828801611d1e565b9250506060611f1387828801611d1e565b91505092959194509250565b611f2881612674565b82525050565b6000611f3982612592565b611f4381856125a8565b9350611f5381856020860161271e565b80840191505092915050565b611f68816126e8565b82525050565b6000611f798261259d565b611f8381856125b3565b9350611f9381856020860161271e565b611f9c816127b2565b840191505092915050565b6000611fb46023836125b3565b9150611fbf826127c3565b604082019050919050565b6000611fd76025836125b3565b9150611fe282612812565b604082019050919050565b6000611ffa600e836125b3565b915061200582612861565b602082019050919050565b600061201d6024836125b3565b91506120288261288a565b604082019050919050565b60006120406016836125b3565b915061204b826128d9565b602082019050919050565b6000612063601d836125b3565b915061206e82612902565b602082019050919050565b60006120866026836125b3565b91506120918261292b565b604082019050919050565b60006120a9600d836125b3565b91506120b48261297a565b602082019050919050565b60006120cc601b836125b3565b91506120d7826129a3565b602082019050919050565b60006120ef602f836125b3565b91506120fa826129cc565b604082019050919050565b60006121126024836125b3565b915061211d82612a1b565b604082019050919050565b6000612135601d836125b3565b915061214082612a6a565b602082019050919050565b60006121586014836125b3565b915061216382612a93565b602082019050919050565b600061217b602a836125b3565b915061218682612abc565b604082019050919050565b600061219e6015836125b3565b91506121a982612b0b565b602082019050919050565b60006121c1602d836125b3565b91506121cc82612b34565b604082019050919050565b6121e081612692565b82525050565b6121ef816126ce565b82525050565b6121fe816126d8565b82525050565b60006122108284611f2e565b915081905092915050565b60006020820190506122306000830184611f1f565b92915050565b600060608201905061224b6000830186611f1f565b6122586020830185611f1f565b61226560408301846121e6565b949350505050565b60006040820190506122826000830185611f1f565b61228f60208301846121e6565b9392505050565b60006020820190506122ab6000830184611f5f565b92915050565b600060208201905081810360008301526122cb8184611f6e565b905092915050565b600060208201905081810360008301526122ec81611fa7565b9050919050565b6000602082019050818103600083015261230c81611fca565b9050919050565b6000602082019050818103600083015261232c81611fed565b9050919050565b6000602082019050818103600083015261234c81612010565b9050919050565b6000602082019050818103600083015261236c81612033565b9050919050565b6000602082019050818103600083015261238c81612056565b9050919050565b600060208201905081810360008301526123ac81612079565b9050919050565b600060208201905081810360008301526123cc8161209c565b9050919050565b600060208201905081810360008301526123ec816120bf565b9050919050565b6000602082019050818103600083015261240c816120e2565b9050919050565b6000602082019050818103600083015261242c81612105565b9050919050565b6000602082019050818103600083015261244c81612128565b9050919050565b6000602082019050818103600083015261246c8161214b565b9050919050565b6000602082019050818103600083015261248c8161216e565b9050919050565b600060208201905081810360008301526124ac81612191565b9050919050565b600060208201905081810360008301526124cc816121b4565b9050919050565b60006020820190506124e860008301846121d7565b92915050565b600060808201905061250360008301876121d7565b61251060208301866121d7565b61251d60408301856121d7565b61252a60608301846121d7565b95945050505050565b600060208201905061254860008301846121e6565b92915050565b600060408201905061256360008301856121e6565b61257060208301846121e6565b9392505050565b600060208201905061258c60008301846121f5565b92915050565b600081519050919050565b600081519050919050565b600081905092915050565b600082825260208201905092915050565b60006125cf826126ce565b91506125da836126ce565b9250827fffffffffffffffffffffffffffffffffffffffffffffffffffffffffffffffff0382111561260f5761260e61277e565b5b828201905092915050565b6000612625826126ce565b9150612630836126ce565b9250817fffffffffffffffffffffffffffffffffffffffffffffffffffffffffffffffff04831182151516156126695761266861277e565b5b828202905092915050565b600061267f826126ae565b9050919050565b60008115159050919050565b60006fffffffffffffffffffffffffffffffff82169050919050565b600073ffffffffffffffffffffffffffffffffffffffff82169050919050565b6000819050919050565b600063ffffffff82169050919050565b60006126f3826126fa565b9050919050565b60006127058261270c565b9050919050565b6000612717826126ae565b9050919050565b60005b8381101561273c578082015181840152602081019050612721565b8381111561274b576000848401525b50505050565b600061275c826126d8565b915063ffffffff8214156127735761277261277e565b5b600182019050919050565b7f4e487b7100000000000000000000000000000000000000000000000000000000600052601160045260246000fd5b600080fd5b6000601f19601f8301169050919050565b7f416d6f756e7430206d7573742062652061206e6f6e207a65726f207175616e7460008201527f6974790000000000000000000000000000000000000000000000000000000000602082015250565b7f4f6e6c792074686520706172656e742063616e2061736b20746f20626520636860008201527f616e676564000000000000000000000000000000000000000000000000000000602082015250565b7f5068617365206d69736d61746368000000000000000000000000000000000000600082015250565b7f4f6e6c7920746865206368696c642063616e2061736b20746f2062652072656d60008201527f6f76656400000000000000000000000000000000000000000000000000000000602082015250565b7f496e73756666696369656e74206c697175696469747900000000000000000000600082015250565b7f4f70746879207374696c6c20696e20686167676c696e67207068617365000000600082015250565b7f416464726573733a20696e73756666696369656e742062616c616e636520666f60008201527f722063616c6c0000000000000000000000000000000000000000000000000000602082015250565b7f4f70746879206578706972656400000000000000000000000000000000000000600082015250565b7f596f75277265206e6f7420746865206f7074687920686f6c6465720000000000600082015250565b7f4174206c65617374206f6e65206f7574707574206d7573742062652061206e6f60008201527f6e207a65726f207175616e746974790000000000000000000000000000000000602082015250565b7f4475726174696f6e206d7573742062652061206e6f6e207a65726f207175616e60008201527f7469747900000000000000000000000000000000000000000000000000000000602082015250565b7f416464726573733a2063616c6c20746f206e6f6e2d636f6e7472616374000000600082015250565b7f596f75277265206e6f7420746865206f776e6572000000000000000000000000600082015250565b7f5361666545524332303a204552433230206f7065726174696f6e20646964206e60008201527f6f74207375636365656400000000000000000000000000000000000000000000602082015250565b7f4f70746879206e6f742079657420657870697265640000000000000000000000600082015250565b7f5265736572766520636f6e7374616e7473206d7573742062652061206e6f6e2060008201527f7a65726f207175616e7469747900000000000000000000000000000000000000602082015250565b612b8c81612674565b8114612b9757600080fd5b50565b612ba381612686565b8114612bae57600080fd5b50565b612bba81612692565b8114612bc557600080fd5b50565b612bd1816126ce565b8114612bdc57600080fd5b50565b612be8816126d8565b8114612bf357600080fd5b5056fea26469706673582212208b80fc9e1c0c330de2f30741ac8283c7a294d845d76d3d251ca03b053b8c5cbd64736f6c63430008070033a2646970667358221220bb1702d4b62eea5e60ebe9c7745c4973b1fdd8622d755b9d0a4da562be6a9a3064736f6c63430008070033",
			"opcodes": "PUSH1 0x80 PUSH1 0x40 MSTORE CALLVALUE DUP1 ISZERO PUSH2 0x10 JUMPI PUSH1 0x0 DUP1 REVERT JUMPDEST POP PUSH1 0x0 DUP1 PUSH1 0x0 PUSH20 0xFFFFFFFFFFFFFFFFFFFFFFFFFFFFFFFFFFFFFFFF AND DUP3 PUSH20 0xFFFFFFFFFFFFFFFFFFFFFFFFFFFFFFFFFFFFFFFF AND EQ PUSH2 0x8D JUMPI DUP2 PUSH1 0x0 DUP1 PUSH2 0x100 EXP DUP2 SLOAD DUP2 PUSH20 0xFFFFFFFFFFFFFFFFFFFFFFFFFFFFFFFFFFFFFFFF MUL NOT AND SWAP1 DUP4 PUSH20 0xFFFFFFFFFFFFFFFFFFFFFFFFFFFFFFFFFFFFFFFF AND MUL OR SWAP1 SSTORE POP PUSH2 0xCE JUMP JUMPDEST ADDRESS PUSH1 0x0 DUP1 PUSH2 0x100 EXP DUP2 SLOAD DUP2 PUSH20 0xFFFFFFFFFFFFFFFFFFFFFFFFFFFFFFFFFFFFFFFF MUL NOT AND SWAP1 DUP4 PUSH20 0xFFFFFFFFFFFFFFFFFFFFFFFFFFFFFFFFFFFFFFFF AND MUL OR SWAP1 SSTORE POP JUMPDEST PUSH1 0x0 PUSH20 0xFFFFFFFFFFFFFFFFFFFFFFFFFFFFFFFFFFFFFFFF AND DUP2 PUSH20 0xFFFFFFFFFFFFFFFFFFFFFFFFFFFFFFFFFFFFFFFF AND EQ PUSH2 0x148 JUMPI DUP1 PUSH1 0x1 PUSH1 0x0 PUSH2 0x100 EXP DUP2 SLOAD DUP2 PUSH20 0xFFFFFFFFFFFFFFFFFFFFFFFFFFFFFFFFFFFFFFFF MUL NOT AND SWAP1 DUP4 PUSH20 0xFFFFFFFFFFFFFFFFFFFFFFFFFFFFFFFFFFFFFFFF AND MUL OR SWAP1 SSTORE POP PUSH2 0x18A JUMP JUMPDEST ADDRESS PUSH1 0x1 PUSH1 0x0 PUSH2 0x100 EXP DUP2 SLOAD DUP2 PUSH20 0xFFFFFFFFFFFFFFFFFFFFFFFFFFFFFFFFFFFFFFFF MUL NOT AND SWAP1 DUP4 PUSH20 0xFFFFFFFFFFFFFFFFFFFFFFFFFFFFFFFFFFFFFFFF AND MUL OR SWAP1 SSTORE POP JUMPDEST POP POP PUSH2 0x5A5F DUP1 PUSH3 0x19C PUSH1 0x0 CODECOPY PUSH1 0x0 RETURN INVALID PUSH1 0x80 PUSH1 0x40 MSTORE CALLVALUE DUP1 ISZERO PUSH3 0x11 JUMPI PUSH1 0x0 DUP1 REVERT JUMPDEST POP PUSH1 0x4 CALLDATASIZE LT PUSH3 0x6A JUMPI PUSH1 0x0 CALLDATALOAD PUSH1 0xE0 SHR DUP1 PUSH4 0x9B08E8FC EQ PUSH3 0x6F JUMPI DUP1 PUSH4 0x9E254D13 EQ PUSH3 0x8F JUMPI DUP1 PUSH4 0xA7D73811 EQ PUSH3 0xB1 JUMPI DUP1 PUSH4 0xC8BCA060 EQ PUSH3 0xE7 JUMPI DUP1 PUSH4 0xD18C7446 EQ PUSH3 0xF3 JUMPI DUP1 PUSH4 0xD3C8DD69 EQ PUSH3 0x115 JUMPI JUMPDEST PUSH1 0x0 DUP1 REVERT JUMPDEST PUSH3 0x8D PUSH1 0x4 DUP1 CALLDATASIZE SUB DUP2 ADD SWAP1 PUSH3 0x87 SWAP2 SWAP1 PUSH3 0x155C JUMP JUMPDEST PUSH3 0x137 JUMP JUMPDEST STOP JUMPDEST PUSH3 0x99 PUSH3 0x20B JUMP JUMPDEST PUSH1 0x40 MLOAD PUSH3 0xA8 SWAP2 SWAP1 PUSH3 0x1B93 JUMP JUMPDEST PUSH1 0x40 MLOAD DUP1 SWAP2 SUB SWAP1 RETURN JUMPDEST PUSH3 0xCF PUSH1 0x4 DUP1 CALLDATASIZE SUB DUP2 ADD SWAP1 PUSH3 0xC9 SWAP2 SWAP1 PUSH3 0x15F2 JUMP JUMPDEST PUSH3 0x235 JUMP JUMPDEST PUSH1 0x40 MLOAD PUSH3 0xDE SWAP2 SWAP1 PUSH3 0x1B93 JUMP JUMPDEST PUSH1 0x40 MLOAD DUP1 SWAP2 SUB SWAP1 RETURN JUMPDEST PUSH3 0xF1 PUSH3 0x482 JUMP JUMPDEST STOP JUMPDEST PUSH3 0xFD PUSH3 0x5FB JUMP JUMPDEST PUSH1 0x40 MLOAD PUSH3 0x10C SWAP2 SWAP1 PUSH3 0x1BED JUMP JUMPDEST PUSH1 0x40 MLOAD DUP1 SWAP2 SUB SWAP1 RETURN JUMPDEST PUSH3 0x11F PUSH3 0xF3D JUMP JUMPDEST PUSH1 0x40 MLOAD PUSH3 0x12E SWAP2 SWAP1 PUSH3 0x1B93 JUMP JUMPDEST PUSH1 0x40 MLOAD DUP1 SWAP2 SUB SWAP1 RETURN JUMPDEST PUSH1 0x0 DUP1 SLOAD SWAP1 PUSH2 0x100 EXP SWAP1 DIV PUSH20 0xFFFFFFFFFFFFFFFFFFFFFFFFFFFFFFFFFFFFFFFF AND PUSH20 0xFFFFFFFFFFFFFFFFFFFFFFFFFFFFFFFFFFFFFFFF AND CALLER PUSH20 0xFFFFFFFFFFFFFFFFFFFFFFFFFFFFFFFFFFFFFFFF AND EQ PUSH3 0x1C8 JUMPI PUSH1 0x40 MLOAD PUSH32 0x8C379A000000000000000000000000000000000000000000000000000000000 DUP2 MSTORE PUSH1 0x4 ADD PUSH3 0x1BF SWAP1 PUSH3 0x1C57 JUMP JUMPDEST PUSH1 0x40 MLOAD DUP1 SWAP2 SUB SWAP1 REVERT JUMPDEST DUP1 PUSH1 0x0 DUP1 PUSH2 0x100 EXP DUP2 SLOAD DUP2 PUSH20 0xFFFFFFFFFFFFFFFFFFFFFFFFFFFFFFFFFFFFFFFF MUL NOT AND SWAP1 DUP4 PUSH20 0xFFFFFFFFFFFFFFFFFFFFFFFFFFFFFFFFFFFFFFFF AND MUL OR SWAP1 SSTORE POP POP JUMP JUMPDEST PUSH1 0x0 PUSH1 0x1 PUSH1 0x0 SWAP1 SLOAD SWAP1 PUSH2 0x100 EXP SWAP1 DIV PUSH20 0xFFFFFFFFFFFFFFFFFFFFFFFFFFFFFFFFFFFFFFFF AND SWAP1 POP SWAP1 JUMP JUMPDEST PUSH1 0x0 DUP1 DUP3 PUSH16 0xFFFFFFFFFFFFFFFFFFFFFFFFFFFFFFFF AND GT PUSH3 0x28E JUMPI PUSH1 0x40 MLOAD PUSH32 0x8C379A000000000000000000000000000000000000000000000000000000000 DUP2 MSTORE PUSH1 0x4 ADD PUSH3 0x285 SWAP1 PUSH3 0x1C35 JUMP JUMPDEST PUSH1 0x40 MLOAD DUP1 SWAP2 SUB SWAP1 REVERT JUMPDEST PUSH1 0x0 DUP1 DUP10 ISZERO PUSH3 0x2A1 JUMPI CALLER SWAP1 POP PUSH3 0x2A5 JUMP JUMPDEST CALLER SWAP2 POP JUMPDEST PUSH1 0x0 DUP10 DUP4 DUP4 DUP12 DUP12 DUP12 DUP12 ADDRESS PUSH3 0x2B9 PUSH3 0x20B JUMP JUMPDEST PUSH1 0x40 MLOAD PUSH3 0x2C7 SWAP1 PUSH3 0x1352 JUMP JUMPDEST PUSH3 0x2DB SWAP10 SWAP9 SWAP8 SWAP7 SWAP6 SWAP5 SWAP4 SWAP3 SWAP2 SWAP1 PUSH3 0x1D23 JUMP JUMPDEST PUSH1 0x40 MLOAD DUP1 SWAP2 SUB SWAP1 PUSH1 0x0 CREATE DUP1 ISZERO DUP1 ISZERO PUSH3 0x2F8 JUMPI RETURNDATASIZE PUSH1 0x0 DUP1 RETURNDATACOPY RETURNDATASIZE PUSH1 0x0 REVERT JUMPDEST POP SWAP1 POP PUSH3 0x306 DUP2 PUSH3 0xF66 JUMP JUMPDEST PUSH3 0x347 CALLER DUP3 DUP8 PUSH16 0xFFFFFFFFFFFFFFFFFFFFFFFFFFFFFFFF AND DUP13 PUSH20 0xFFFFFFFFFFFFFFFFFFFFFFFFFFFFFFFFFFFFFFFF AND PUSH3 0x103B SWAP1 SWAP4 SWAP3 SWAP2 SWAP1 PUSH4 0xFFFFFFFF AND JUMP JUMPDEST PUSH1 0x0 DUP1 DUP3 PUSH20 0xFFFFFFFFFFFFFFFFFFFFFFFFFFFFFFFFFFFFFFFF AND PUSH4 0xB69EF8A8 PUSH1 0x40 MLOAD DUP2 PUSH4 0xFFFFFFFF AND PUSH1 0xE0 SHL DUP2 MSTORE PUSH1 0x4 ADD PUSH1 0x40 DUP1 MLOAD DUP1 DUP4 SUB DUP2 DUP7 DUP1 EXTCODESIZE ISZERO DUP1 ISZERO PUSH3 0x390 JUMPI PUSH1 0x0 DUP1 REVERT JUMPDEST POP GAS STATICCALL ISZERO DUP1 ISZERO PUSH3 0x3A5 JUMPI RETURNDATASIZE PUSH1 0x0 DUP1 RETURNDATACOPY RETURNDATASIZE PUSH1 0x0 REVERT JUMPDEST POP POP POP POP PUSH1 0x40 MLOAD RETURNDATASIZE PUSH1 0x1F NOT PUSH1 0x1F DUP3 ADD AND DUP3 ADD DUP1 PUSH1 0x40 MSTORE POP DUP2 ADD SWAP1 PUSH3 0x3CB SWAP2 SWAP1 PUSH3 0x173B JUMP JUMPDEST SWAP2 POP SWAP2 POP DUP1 DUP3 EQ ISZERO PUSH3 0x415 JUMPI PUSH1 0x40 MLOAD PUSH32 0x8C379A000000000000000000000000000000000000000000000000000000000 DUP2 MSTORE PUSH1 0x4 ADD PUSH3 0x40C SWAP1 PUSH3 0x1C9B JUMP JUMPDEST PUSH1 0x40 MLOAD DUP1 SWAP2 SUB SWAP1 REVERT JUMPDEST CALLER PUSH20 0xFFFFFFFFFFFFFFFFFFFFFFFFFFFFFFFFFFFFFFFF AND DUP4 PUSH20 0xFFFFFFFFFFFFFFFFFFFFFFFFFFFFFFFFFFFFFFFF AND PUSH32 0x96EDF8E8C9198C2371CCF6DFFB0B85B666CDC9618D295FA0ADB538C1B3B48E38 PUSH1 0x40 MLOAD PUSH1 0x40 MLOAD DUP1 SWAP2 SUB SWAP1 LOG3 DUP3 SWAP6 POP POP POP POP POP POP SWAP8 SWAP7 POP POP POP POP POP POP POP JUMP JUMPDEST PUSH1 0x1 PUSH1 0x0 SWAP1 SLOAD SWAP1 PUSH2 0x100 EXP SWAP1 DIV PUSH20 0xFFFFFFFFFFFFFFFFFFFFFFFFFFFFFFFFFFFFFFFF AND PUSH20 0xFFFFFFFFFFFFFFFFFFFFFFFFFFFFFFFFFFFFFFFF AND CALLER PUSH20 0xFFFFFFFFFFFFFFFFFFFFFFFFFFFFFFFFFFFFFFFF AND EQ PUSH3 0x515 JUMPI PUSH1 0x40 MLOAD PUSH32 0x8C379A000000000000000000000000000000000000000000000000000000000 DUP2 MSTORE PUSH1 0x4 ADD PUSH3 0x50C SWAP1 PUSH3 0x1C79 JUMP JUMPDEST PUSH1 0x40 MLOAD DUP1 SWAP2 SUB SWAP1 REVERT JUMPDEST PUSH1 0x1 PUSH1 0x0 SWAP1 SLOAD SWAP1 PUSH2 0x100 EXP SWAP1 DIV PUSH20 0xFFFFFFFFFFFFFFFFFFFFFFFFFFFFFFFFFFFFFFFF AND PUSH20 0xFFFFFFFFFFFFFFFFFFFFFFFFFFFFFFFFFFFFFFFF AND PUSH4 0x9E254D13 PUSH1 0x40 MLOAD DUP2 PUSH4 0xFFFFFFFF AND PUSH1 0xE0 SHL DUP2 MSTORE PUSH1 0x4 ADD PUSH1 0x20 PUSH1 0x40 MLOAD DUP1 DUP4 SUB DUP2 DUP7 DUP1 EXTCODESIZE ISZERO DUP1 ISZERO PUSH3 0x57E JUMPI PUSH1 0x0 DUP1 REVERT JUMPDEST POP GAS STATICCALL ISZERO DUP1 ISZERO PUSH3 0x593 JUMPI RETURNDATASIZE PUSH1 0x0 DUP1 RETURNDATACOPY RETURNDATASIZE PUSH1 0x0 REVERT JUMPDEST POP POP POP POP PUSH1 0x40 MLOAD RETURNDATASIZE PUSH1 0x1F NOT PUSH1 0x1F DUP3 ADD AND DUP3 ADD DUP1 PUSH1 0x40 MSTORE POP DUP2 ADD SWAP1 PUSH3 0x5B9 SWAP2 SWAP1 PUSH3 0x158E JUMP JUMPDEST PUSH1 0x1 PUSH1 0x0 PUSH2 0x100 EXP DUP2 SLOAD DUP2 PUSH20 0xFFFFFFFFFFFFFFFFFFFFFFFFFFFFFFFFFFFFFFFF MUL NOT AND SWAP1 DUP4 PUSH20 0xFFFFFFFFFFFFFFFFFFFFFFFFFFFFFFFFFFFFFFFF AND MUL OR SWAP1 SSTORE POP JUMP JUMPDEST PUSH1 0x60 PUSH1 0x0 DUP1 ADDRESS PUSH20 0xFFFFFFFFFFFFFFFFFFFFFFFFFFFFFFFFFFFFFFFF AND PUSH4 0x9E254D13 PUSH1 0x40 MLOAD DUP2 PUSH4 0xFFFFFFFF AND PUSH1 0xE0 SHL DUP2 MSTORE PUSH1 0x4 ADD PUSH1 0x20 PUSH1 0x40 MLOAD DUP1 DUP4 SUB DUP2 DUP7 DUP1 EXTCODESIZE ISZERO DUP1 ISZERO PUSH3 0x647 JUMPI PUSH1 0x0 DUP1 REVERT JUMPDEST POP GAS STATICCALL ISZERO DUP1 ISZERO PUSH3 0x65C JUMPI RETURNDATASIZE PUSH1 0x0 DUP1 RETURNDATACOPY RETURNDATASIZE PUSH1 0x0 REVERT JUMPDEST POP POP POP POP PUSH1 0x40 MLOAD RETURNDATASIZE PUSH1 0x1F NOT PUSH1 0x1F DUP3 ADD AND DUP3 ADD DUP1 PUSH1 0x40 MSTORE POP DUP2 ADD SWAP1 PUSH3 0x682 SWAP2 SWAP1 PUSH3 0x158E JUMP JUMPDEST SWAP1 POP JUMPDEST ADDRESS PUSH20 0xFFFFFFFFFFFFFFFFFFFFFFFFFFFFFFFFFFFFFFFF AND DUP2 PUSH20 0xFFFFFFFFFFFFFFFFFFFFFFFFFFFFFFFFFFFFFFFF AND EQ PUSH3 0x753 JUMPI DUP2 DUP1 PUSH3 0x6C6 SWAP1 PUSH3 0x1F29 JUMP JUMPDEST SWAP3 POP POP DUP1 PUSH20 0xFFFFFFFFFFFFFFFFFFFFFFFFFFFFFFFFFFFFFFFF AND PUSH4 0x9E254D13 PUSH1 0x40 MLOAD DUP2 PUSH4 0xFFFFFFFF AND PUSH1 0xE0 SHL DUP2 MSTORE PUSH1 0x4 ADD PUSH1 0x20 PUSH1 0x40 MLOAD DUP1 DUP4 SUB DUP2 DUP7 DUP1 EXTCODESIZE ISZERO DUP1 ISZERO PUSH3 0x710 JUMPI PUSH1 0x0 DUP1 REVERT JUMPDEST POP GAS STATICCALL ISZERO DUP1 ISZERO PUSH3 0x725 JUMPI RETURNDATASIZE PUSH1 0x0 DUP1 RETURNDATACOPY RETURNDATASIZE PUSH1 0x0 REVERT JUMPDEST POP POP POP POP PUSH1 0x40 MLOAD RETURNDATASIZE PUSH1 0x1F NOT PUSH1 0x1F DUP3 ADD AND DUP3 ADD DUP1 PUSH1 0x40 MSTORE POP DUP2 ADD SWAP1 PUSH3 0x74B SWAP2 SWAP1 PUSH3 0x158E JUMP JUMPDEST SWAP1 POP PUSH3 0x685 JUMP JUMPDEST POP PUSH1 0x0 DUP1 DUP3 PUSH8 0xFFFFFFFFFFFFFFFF DUP2 GT ISZERO PUSH3 0x774 JUMPI PUSH3 0x773 PUSH3 0x1FD5 JUMP JUMPDEST JUMPDEST PUSH1 0x40 MLOAD SWAP1 DUP1 DUP3 MSTORE DUP1 PUSH1 0x20 MUL PUSH1 0x20 ADD DUP3 ADD PUSH1 0x40 MSTORE DUP1 ISZERO PUSH3 0x7B1 JUMPI DUP2 PUSH1 0x20 ADD JUMPDEST PUSH3 0x79D PUSH3 0x1360 JUMP JUMPDEST DUP2 MSTORE PUSH1 0x20 ADD SWAP1 PUSH1 0x1 SWAP1 SUB SWAP1 DUP2 PUSH3 0x793 JUMPI SWAP1 POP JUMPDEST POP SWAP1 POP PUSH1 0x0 ADDRESS PUSH20 0xFFFFFFFFFFFFFFFFFFFFFFFFFFFFFFFFFFFFFFFF AND PUSH4 0x9E254D13 PUSH1 0x40 MLOAD DUP2 PUSH4 0xFFFFFFFF AND PUSH1 0xE0 SHL DUP2 MSTORE PUSH1 0x4 ADD PUSH1 0x20 PUSH1 0x40 MLOAD DUP1 DUP4 SUB DUP2 DUP7 DUP1 EXTCODESIZE ISZERO DUP1 ISZERO PUSH3 0x7FD JUMPI PUSH1 0x0 DUP1 REVERT JUMPDEST POP GAS STATICCALL ISZERO DUP1 ISZERO PUSH3 0x812 JUMPI RETURNDATASIZE PUSH1 0x0 DUP1 RETURNDATACOPY RETURNDATASIZE PUSH1 0x0 REVERT JUMPDEST POP POP POP POP PUSH1 0x40 MLOAD RETURNDATASIZE PUSH1 0x1F NOT PUSH1 0x1F DUP3 ADD AND DUP3 ADD DUP1 PUSH1 0x40 MSTORE POP DUP2 ADD SWAP1 PUSH3 0x838 SWAP2 SWAP1 PUSH3 0x158E JUMP JUMPDEST SWAP1 POP JUMPDEST ADDRESS PUSH20 0xFFFFFFFFFFFFFFFFFFFFFFFFFFFFFFFFFFFFFFFF AND DUP2 PUSH20 0xFFFFFFFFFFFFFFFFFFFFFFFFFFFFFFFFFFFFFFFF AND EQ PUSH3 0xF33 JUMPI PUSH1 0x0 DUP2 SWAP1 POP PUSH1 0x0 DUP1 DUP3 PUSH20 0xFFFFFFFFFFFFFFFFFFFFFFFFFFFFFFFFFFFFFFFF AND PUSH4 0xB69EF8A8 PUSH1 0x40 MLOAD DUP2 PUSH4 0xFFFFFFFF AND PUSH1 0xE0 SHL DUP2 MSTORE PUSH1 0x4 ADD PUSH1 0x40 DUP1 MLOAD DUP1 DUP4 SUB DUP2 DUP7 DUP1 EXTCODESIZE ISZERO DUP1 ISZERO PUSH3 0x8BD JUMPI PUSH1 0x0 DUP1 REVERT JUMPDEST POP GAS STATICCALL ISZERO DUP1 ISZERO PUSH3 0x8D2 JUMPI RETURNDATASIZE PUSH1 0x0 DUP1 RETURNDATACOPY RETURNDATASIZE PUSH1 0x0 REVERT JUMPDEST POP POP POP POP PUSH1 0x40 MLOAD RETURNDATASIZE PUSH1 0x1F NOT PUSH1 0x1F DUP3 ADD AND DUP3 ADD DUP1 PUSH1 0x40 MSTORE POP DUP2 ADD SWAP1 PUSH3 0x8F8 SWAP2 SWAP1 PUSH3 0x173B JUMP JUMPDEST SWAP2 POP SWAP2 POP PUSH1 0x40 MLOAD DUP1 PUSH2 0x180 ADD PUSH1 0x40 MSTORE DUP1 DUP6 PUSH20 0xFFFFFFFFFFFFFFFFFFFFFFFFFFFFFFFFFFFFFFFF AND DUP2 MSTORE PUSH1 0x20 ADD DUP5 PUSH20 0xFFFFFFFFFFFFFFFFFFFFFFFFFFFFFFFFFFFFFFFF AND PUSH4 0xB1C9FE6E PUSH1 0x40 MLOAD DUP2 PUSH4 0xFFFFFFFF AND PUSH1 0xE0 SHL DUP2 MSTORE PUSH1 0x4 ADD PUSH1 0x20 PUSH1 0x40 MLOAD DUP1 DUP4 SUB DUP2 DUP7 DUP1 EXTCODESIZE ISZERO DUP1 ISZERO PUSH3 0x96B JUMPI PUSH1 0x0 DUP1 REVERT JUMPDEST POP GAS STATICCALL ISZERO DUP1 ISZERO PUSH3 0x980 JUMPI RETURNDATASIZE PUSH1 0x0 DUP1 RETURNDATACOPY RETURNDATASIZE PUSH1 0x0 REVERT JUMPDEST POP POP POP POP PUSH1 0x40 MLOAD RETURNDATASIZE PUSH1 0x1F NOT PUSH1 0x1F DUP3 ADD AND DUP3 ADD DUP1 PUSH1 0x40 MSTORE POP DUP2 ADD SWAP1 PUSH3 0x9A6 SWAP2 SWAP1 PUSH3 0x1782 JUMP JUMPDEST PUSH4 0xFFFFFFFF AND DUP2 MSTORE PUSH1 0x20 ADD DUP5 PUSH20 0xFFFFFFFFFFFFFFFFFFFFFFFFFFFFFFFFFFFFFFFF AND PUSH4 0xFB5A6B4 PUSH1 0x40 MLOAD DUP2 PUSH4 0xFFFFFFFF AND PUSH1 0xE0 SHL DUP2 MSTORE PUSH1 0x4 ADD PUSH1 0x20 PUSH1 0x40 MLOAD DUP1 DUP4 SUB DUP2 DUP7 DUP1 EXTCODESIZE ISZERO DUP1 ISZERO PUSH3 0x9F8 JUMPI PUSH1 0x0 DUP1 REVERT JUMPDEST POP GAS STATICCALL ISZERO DUP1 ISZERO PUSH3 0xA0D JUMPI RETURNDATASIZE PUSH1 0x0 DUP1 RETURNDATACOPY RETURNDATASIZE PUSH1 0x0 REVERT JUMPDEST POP POP POP POP PUSH1 0x40 MLOAD RETURNDATASIZE PUSH1 0x1F NOT PUSH1 0x1F DUP3 ADD AND DUP3 ADD DUP1 PUSH1 0x40 MSTORE POP DUP2 ADD SWAP1 PUSH3 0xA33 SWAP2 SWAP1 PUSH3 0x1782 JUMP JUMPDEST PUSH4 0xFFFFFFFF AND DUP2 MSTORE PUSH1 0x20 ADD DUP5 PUSH20 0xFFFFFFFFFFFFFFFFFFFFFFFFFFFFFFFFFFFFFFFF AND PUSH4 0xE534155D PUSH1 0x40 MLOAD DUP2 PUSH4 0xFFFFFFFF AND PUSH1 0xE0 SHL DUP2 MSTORE PUSH1 0x4 ADD PUSH1 0x20 PUSH1 0x40 MLOAD DUP1 DUP4 SUB DUP2 DUP7 DUP1 EXTCODESIZE ISZERO DUP1 ISZERO PUSH3 0xA85 JUMPI PUSH1 0x0 DUP1 REVERT JUMPDEST POP GAS STATICCALL ISZERO DUP1 ISZERO PUSH3 0xA9A JUMPI RETURNDATASIZE PUSH1 0x0 DUP1 RETURNDATACOPY RETURNDATASIZE PUSH1 0x0 REVERT JUMPDEST POP POP POP POP PUSH1 0x40 MLOAD RETURNDATASIZE PUSH1 0x1F NOT PUSH1 0x1F DUP3 ADD AND DUP3 ADD DUP1 PUSH1 0x40 MSTORE POP DUP2 ADD SWAP1 PUSH3 0xAC0 SWAP2 SWAP1 PUSH3 0x158E JUMP JUMPDEST PUSH20 0xFFFFFFFFFFFFFFFFFFFFFFFFFFFFFFFFFFFFFFFF AND DUP2 MSTORE PUSH1 0x20 ADD DUP5 PUSH20 0xFFFFFFFFFFFFFFFFFFFFFFFFFFFFFFFFFFFFFFFF AND PUSH4 0x8551A53 PUSH1 0x40 MLOAD DUP2 PUSH4 0xFFFFFFFF AND PUSH1 0xE0 SHL DUP2 MSTORE PUSH1 0x4 ADD PUSH1 0x20 PUSH1 0x40 MLOAD DUP1 DUP4 SUB DUP2 DUP7 DUP1 EXTCODESIZE ISZERO DUP1 ISZERO PUSH3 0xB22 JUMPI PUSH1 0x0 DUP1 REVERT JUMPDEST POP GAS STATICCALL ISZERO DUP1 ISZERO PUSH3 0xB37 JUMPI RETURNDATASIZE PUSH1 0x0 DUP1 RETURNDATACOPY RETURNDATASIZE PUSH1 0x0 REVERT JUMPDEST POP POP POP POP PUSH1 0x40 MLOAD RETURNDATASIZE PUSH1 0x1F NOT PUSH1 0x1F DUP3 ADD AND DUP3 ADD DUP1 PUSH1 0x40 MSTORE POP DUP2 ADD SWAP1 PUSH3 0xB5D SWAP2 SWAP1 PUSH3 0x158E JUMP JUMPDEST PUSH20 0xFFFFFFFFFFFFFFFFFFFFFFFFFFFFFFFFFFFFFFFF AND DUP2 MSTORE PUSH1 0x20 ADD DUP5 PUSH20 0xFFFFFFFFFFFFFFFFFFFFFFFFFFFFFFFFFFFFFFFF AND PUSH4 0x4665096D PUSH1 0x40 MLOAD DUP2 PUSH4 0xFFFFFFFF AND PUSH1 0xE0 SHL DUP2 MSTORE PUSH1 0x4 ADD PUSH1 0x20 PUSH1 0x40 MLOAD DUP1 DUP4 SUB DUP2 DUP7 DUP1 EXTCODESIZE ISZERO DUP1 ISZERO PUSH3 0xBBF JUMPI PUSH1 0x0 DUP1 REVERT JUMPDEST POP GAS STATICCALL ISZERO DUP1 ISZERO PUSH3 0xBD4 JUMPI RETURNDATASIZE PUSH1 0x0 DUP1 RETURNDATACOPY RETURNDATASIZE PUSH1 0x0 REVERT JUMPDEST POP POP POP POP PUSH1 0x40 MLOAD RETURNDATASIZE PUSH1 0x1F NOT PUSH1 0x1F DUP3 ADD AND DUP3 ADD DUP1 PUSH1 0x40 MSTORE POP DUP2 ADD SWAP1 PUSH3 0xBFA SWAP2 SWAP1 PUSH3 0x1709 JUMP JUMPDEST DUP2 MSTORE PUSH1 0x20 ADD DUP5 PUSH20 0xFFFFFFFFFFFFFFFFFFFFFFFFFFFFFFFFFFFFFFFF AND PUSH4 0xDFE1681 PUSH1 0x40 MLOAD DUP2 PUSH4 0xFFFFFFFF AND PUSH1 0xE0 SHL DUP2 MSTORE PUSH1 0x4 ADD PUSH1 0x20 PUSH1 0x40 MLOAD DUP1 DUP4 SUB DUP2 DUP7 DUP1 EXTCODESIZE ISZERO DUP1 ISZERO PUSH3 0xC46 JUMPI PUSH1 0x0 DUP1 REVERT JUMPDEST POP GAS STATICCALL ISZERO DUP1 ISZERO PUSH3 0xC5B JUMPI RETURNDATASIZE PUSH1 0x0 DUP1 RETURNDATACOPY RETURNDATASIZE PUSH1 0x0 REVERT JUMPDEST POP POP POP POP PUSH1 0x40 MLOAD RETURNDATASIZE PUSH1 0x1F NOT PUSH1 0x1F DUP3 ADD AND DUP3 ADD DUP1 PUSH1 0x40 MSTORE POP DUP2 ADD SWAP1 PUSH3 0xC81 SWAP2 SWAP1 PUSH3 0x16A5 JUMP JUMPDEST PUSH20 0xFFFFFFFFFFFFFFFFFFFFFFFFFFFFFFFFFFFFFFFF AND DUP2 MSTORE PUSH1 0x20 ADD DUP5 PUSH20 0xFFFFFFFFFFFFFFFFFFFFFFFFFFFFFFFFFFFFFFFF AND PUSH4 0xD21220A7 PUSH1 0x40 MLOAD DUP2 PUSH4 0xFFFFFFFF AND PUSH1 0xE0 SHL DUP2 MSTORE PUSH1 0x4 ADD PUSH1 0x20 PUSH1 0x40 MLOAD DUP1 DUP4 SUB DUP2 DUP7 DUP1 EXTCODESIZE ISZERO DUP1 ISZERO PUSH3 0xCE3 JUMPI PUSH1 0x0 DUP1 REVERT JUMPDEST POP GAS STATICCALL ISZERO DUP1 ISZERO PUSH3 0xCF8 JUMPI RETURNDATASIZE PUSH1 0x0 DUP1 RETURNDATACOPY RETURNDATASIZE PUSH1 0x0 REVERT JUMPDEST POP POP POP POP PUSH1 0x40 MLOAD RETURNDATASIZE PUSH1 0x1F NOT PUSH1 0x1F DUP3 ADD AND DUP3 ADD DUP1 PUSH1 0x40 MSTORE POP DUP2 ADD SWAP1 PUSH3 0xD1E SWAP2 SWAP1 PUSH3 0x16A5 JUMP JUMPDEST PUSH20 0xFFFFFFFFFFFFFFFFFFFFFFFFFFFFFFFFFFFFFFFF AND DUP2 MSTORE PUSH1 0x20 ADD DUP4 DUP2 MSTORE PUSH1 0x20 ADD DUP3 DUP2 MSTORE PUSH1 0x20 ADD DUP5 PUSH20 0xFFFFFFFFFFFFFFFFFFFFFFFFFFFFFFFFFFFFFFFF AND PUSH4 0x659621B5 PUSH1 0x40 MLOAD DUP2 PUSH4 0xFFFFFFFF AND PUSH1 0xE0 SHL DUP2 MSTORE PUSH1 0x4 ADD PUSH1 0x20 PUSH1 0x40 MLOAD DUP1 DUP4 SUB DUP2 DUP7 DUP1 EXTCODESIZE ISZERO DUP1 ISZERO PUSH3 0xD8C JUMPI PUSH1 0x0 DUP1 REVERT JUMPDEST POP GAS STATICCALL ISZERO DUP1 ISZERO PUSH3 0xDA1 JUMPI RETURNDATASIZE PUSH1 0x0 DUP1 RETURNDATACOPY RETURNDATASIZE PUSH1 0x0 REVERT JUMPDEST POP POP POP POP PUSH1 0x40 MLOAD RETURNDATASIZE PUSH1 0x1F NOT PUSH1 0x1F DUP3 ADD AND DUP3 ADD DUP1 PUSH1 0x40 MSTORE POP DUP2 ADD SWAP1 PUSH3 0xDC7 SWAP2 SWAP1 PUSH3 0x16D7 JUMP JUMPDEST PUSH16 0xFFFFFFFFFFFFFFFFFFFFFFFFFFFFFFFF AND DUP2 MSTORE PUSH1 0x20 ADD DUP5 PUSH20 0xFFFFFFFFFFFFFFFFFFFFFFFFFFFFFFFFFFFFFFFF AND PUSH4 0x6CA5B5B0 PUSH1 0x40 MLOAD DUP2 PUSH4 0xFFFFFFFF AND PUSH1 0xE0 SHL DUP2 MSTORE PUSH1 0x4 ADD PUSH1 0x20 PUSH1 0x40 MLOAD DUP1 DUP4 SUB DUP2 DUP7 DUP1 EXTCODESIZE ISZERO DUP1 ISZERO PUSH3 0xE25 JUMPI PUSH1 0x0 DUP1 REVERT JUMPDEST POP GAS STATICCALL ISZERO DUP1 ISZERO PUSH3 0xE3A JUMPI RETURNDATASIZE PUSH1 0x0 DUP1 RETURNDATACOPY RETURNDATASIZE PUSH1 0x0 REVERT JUMPDEST POP POP POP POP PUSH1 0x40 MLOAD RETURNDATASIZE PUSH1 0x1F NOT PUSH1 0x1F DUP3 ADD AND DUP3 ADD DUP1 PUSH1 0x40 MSTORE POP DUP2 ADD SWAP1 PUSH3 0xE60 SWAP2 SWAP1 PUSH3 0x16D7 JUMP JUMPDEST PUSH16 0xFFFFFFFFFFFFFFFFFFFFFFFFFFFFFFFF AND DUP2 MSTORE POP DUP6 DUP8 DUP2 MLOAD DUP2 LT PUSH3 0xE8B JUMPI PUSH3 0xE8A PUSH3 0x1FA6 JUMP JUMPDEST JUMPDEST PUSH1 0x20 MUL PUSH1 0x20 ADD ADD DUP2 SWAP1 MSTORE POP DUP6 DUP1 PUSH3 0xEA3 SWAP1 PUSH3 0x1F29 JUMP JUMPDEST SWAP7 POP POP POP POP POP DUP1 PUSH20 0xFFFFFFFFFFFFFFFFFFFFFFFFFFFFFFFFFFFFFFFF AND PUSH4 0x9E254D13 PUSH1 0x40 MLOAD DUP2 PUSH4 0xFFFFFFFF AND PUSH1 0xE0 SHL DUP2 MSTORE PUSH1 0x4 ADD PUSH1 0x20 PUSH1 0x40 MLOAD DUP1 DUP4 SUB DUP2 DUP7 DUP1 EXTCODESIZE ISZERO DUP1 ISZERO PUSH3 0xEF0 JUMPI PUSH1 0x0 DUP1 REVERT JUMPDEST POP GAS STATICCALL ISZERO DUP1 ISZERO PUSH3 0xF05 JUMPI RETURNDATASIZE PUSH1 0x0 DUP1 RETURNDATACOPY RETURNDATASIZE PUSH1 0x0 REVERT JUMPDEST POP POP POP POP PUSH1 0x40 MLOAD RETURNDATASIZE PUSH1 0x1F NOT PUSH1 0x1F DUP3 ADD AND DUP3 ADD DUP1 PUSH1 0x40 MSTORE POP DUP2 ADD SWAP1 PUSH3 0xF2B SWAP2 SWAP1 PUSH3 0x158E JUMP JUMPDEST SWAP1 POP PUSH3 0x83B JUMP JUMPDEST POP DUP1 SWAP4 POP POP POP POP SWAP1 JUMP JUMPDEST PUSH1 0x0 DUP1 PUSH1 0x0 SWAP1 SLOAD SWAP1 PUSH2 0x100 EXP SWAP1 DIV PUSH20 0xFFFFFFFFFFFFFFFFFFFFFFFFFFFFFFFFFFFFFFFF AND SWAP1 POP SWAP1 JUMP JUMPDEST PUSH1 0x1 PUSH1 0x0 SWAP1 SLOAD SWAP1 PUSH2 0x100 EXP SWAP1 DIV PUSH20 0xFFFFFFFFFFFFFFFFFFFFFFFFFFFFFFFFFFFFFFFF AND PUSH20 0xFFFFFFFFFFFFFFFFFFFFFFFFFFFFFFFFFFFFFFFF AND PUSH4 0x9B08E8FC DUP3 PUSH1 0x40 MLOAD DUP3 PUSH4 0xFFFFFFFF AND PUSH1 0xE0 SHL DUP2 MSTORE PUSH1 0x4 ADD PUSH3 0xFC3 SWAP2 SWAP1 PUSH3 0x1B93 JUMP JUMPDEST PUSH1 0x0 PUSH1 0x40 MLOAD DUP1 DUP4 SUB DUP2 PUSH1 0x0 DUP8 DUP1 EXTCODESIZE ISZERO DUP1 ISZERO PUSH3 0xFDE JUMPI PUSH1 0x0 DUP1 REVERT JUMPDEST POP GAS CALL ISZERO DUP1 ISZERO PUSH3 0xFF3 JUMPI RETURNDATASIZE PUSH1 0x0 DUP1 RETURNDATACOPY RETURNDATASIZE PUSH1 0x0 REVERT JUMPDEST POP POP POP POP DUP1 PUSH1 0x1 PUSH1 0x0 PUSH2 0x100 EXP DUP2 SLOAD DUP2 PUSH20 0xFFFFFFFFFFFFFFFFFFFFFFFFFFFFFFFFFFFFFFFF MUL NOT AND SWAP1 DUP4 PUSH20 0xFFFFFFFFFFFFFFFFFFFFFFFFFFFFFFFFFFFFFFFF AND MUL OR SWAP1 SSTORE POP POP JUMP JUMPDEST PUSH3 0x10C2 DUP5 PUSH4 0x23B872DD PUSH1 0xE0 SHL DUP6 DUP6 DUP6 PUSH1 0x40 MLOAD PUSH1 0x24 ADD PUSH3 0x105F SWAP4 SWAP3 SWAP2 SWAP1 PUSH3 0x1BB0 JUMP JUMPDEST PUSH1 0x40 MLOAD PUSH1 0x20 DUP2 DUP4 SUB SUB DUP2 MSTORE SWAP1 PUSH1 0x40 MSTORE SWAP1 PUSH28 0xFFFFFFFFFFFFFFFFFFFFFFFFFFFFFFFFFFFFFFFFFFFFFFFFFFFFFFFF NOT AND PUSH1 0x20 DUP3 ADD DUP1 MLOAD PUSH28 0xFFFFFFFFFFFFFFFFFFFFFFFFFFFFFFFFFFFFFFFFFFFFFFFFFFFFFFFF DUP4 DUP2 DUP4 AND OR DUP4 MSTORE POP POP POP POP PUSH3 0x10C8 JUMP JUMPDEST POP POP POP POP JUMP JUMPDEST PUSH1 0x0 PUSH3 0x112C DUP3 PUSH1 0x40 MLOAD DUP1 PUSH1 0x40 ADD PUSH1 0x40 MSTORE DUP1 PUSH1 0x20 DUP2 MSTORE PUSH1 0x20 ADD PUSH32 0x5361666545524332303A206C6F772D6C6576656C2063616C6C206661696C6564 DUP2 MSTORE POP DUP6 PUSH20 0xFFFFFFFFFFFFFFFFFFFFFFFFFFFFFFFFFFFFFFFF AND PUSH3 0x1197 SWAP1 SWAP3 SWAP2 SWAP1 PUSH4 0xFFFFFFFF AND JUMP JUMPDEST SWAP1 POP PUSH1 0x0 DUP2 MLOAD GT ISZERO PUSH3 0x1192 JUMPI DUP1 DUP1 PUSH1 0x20 ADD SWAP1 MLOAD DUP2 ADD SWAP1 PUSH3 0x114F SWAP2 SWAP1 PUSH3 0x15C0 JUMP JUMPDEST PUSH3 0x1191 JUMPI PUSH1 0x40 MLOAD PUSH32 0x8C379A000000000000000000000000000000000000000000000000000000000 DUP2 MSTORE PUSH1 0x4 ADD PUSH3 0x1188 SWAP1 PUSH3 0x1D01 JUMP JUMPDEST PUSH1 0x40 MLOAD DUP1 SWAP2 SUB SWAP1 REVERT JUMPDEST JUMPDEST POP POP POP JUMP JUMPDEST PUSH1 0x60 PUSH3 0x11A8 DUP5 DUP5 PUSH1 0x0 DUP6 PUSH3 0x11B1 JUMP JUMPDEST SWAP1 POP SWAP4 SWAP3 POP POP POP JUMP JUMPDEST PUSH1 0x60 DUP3 SELFBALANCE LT ISZERO PUSH3 0x11F9 JUMPI PUSH1 0x40 MLOAD PUSH32 0x8C379A000000000000000000000000000000000000000000000000000000000 DUP2 MSTORE PUSH1 0x4 ADD PUSH3 0x11F0 SWAP1 PUSH3 0x1CBD JUMP JUMPDEST PUSH1 0x40 MLOAD DUP1 SWAP2 SUB SWAP1 REVERT JUMPDEST PUSH3 0x1204 DUP6 PUSH3 0x12D3 JUMP JUMPDEST PUSH3 0x1246 JUMPI PUSH1 0x40 MLOAD PUSH32 0x8C379A000000000000000000000000000000000000000000000000000000000 DUP2 MSTORE PUSH1 0x4 ADD PUSH3 0x123D SWAP1 PUSH3 0x1CDF JUMP JUMPDEST PUSH1 0x40 MLOAD DUP1 SWAP2 SUB SWAP1 REVERT JUMPDEST PUSH1 0x0 DUP1 DUP7 PUSH20 0xFFFFFFFFFFFFFFFFFFFFFFFFFFFFFFFFFFFFFFFF AND DUP6 DUP8 PUSH1 0x40 MLOAD PUSH3 0x1271 SWAP2 SWAP1 PUSH3 0x1B7A JUMP JUMPDEST PUSH1 0x0 PUSH1 0x40 MLOAD DUP1 DUP4 SUB DUP2 DUP6 DUP8 GAS CALL SWAP3 POP POP POP RETURNDATASIZE DUP1 PUSH1 0x0 DUP2 EQ PUSH3 0x12B0 JUMPI PUSH1 0x40 MLOAD SWAP2 POP PUSH1 0x1F NOT PUSH1 0x3F RETURNDATASIZE ADD AND DUP3 ADD PUSH1 0x40 MSTORE RETURNDATASIZE DUP3 MSTORE RETURNDATASIZE PUSH1 0x0 PUSH1 0x20 DUP5 ADD RETURNDATACOPY PUSH3 0x12B5 JUMP JUMPDEST PUSH1 0x60 SWAP2 POP JUMPDEST POP SWAP2 POP SWAP2 POP PUSH3 0x12C7 DUP3 DUP3 DUP7 PUSH3 0x12E6 JUMP JUMPDEST SWAP3 POP POP POP SWAP5 SWAP4 POP POP POP POP JUMP JUMPDEST PUSH1 0x0 DUP1 DUP3 EXTCODESIZE SWAP1 POP PUSH1 0x0 DUP2 GT SWAP2 POP POP SWAP2 SWAP1 POP JUMP JUMPDEST PUSH1 0x60 DUP4 ISZERO PUSH3 0x12F8 JUMPI DUP3 SWAP1 POP PUSH3 0x134B JUMP JUMPDEST PUSH1 0x0 DUP4 MLOAD GT ISZERO PUSH3 0x130C JUMPI DUP3 MLOAD DUP1 DUP5 PUSH1 0x20 ADD REVERT JUMPDEST DUP2 PUSH1 0x40 MLOAD PUSH32 0x8C379A000000000000000000000000000000000000000000000000000000000 DUP2 MSTORE PUSH1 0x4 ADD PUSH3 0x1342 SWAP2 SWAP1 PUSH3 0x1C11 JUMP JUMPDEST PUSH1 0x40 MLOAD DUP1 SWAP2 SUB SWAP1 REVERT JUMPDEST SWAP4 SWAP3 POP POP POP JUMP JUMPDEST PUSH2 0x3770 DUP1 PUSH3 0x22BA DUP4 CODECOPY ADD SWAP1 JUMP JUMPDEST PUSH1 0x40 MLOAD DUP1 PUSH2 0x180 ADD PUSH1 0x40 MSTORE DUP1 PUSH1 0x0 PUSH20 0xFFFFFFFFFFFFFFFFFFFFFFFFFFFFFFFFFFFFFFFF AND DUP2 MSTORE PUSH1 0x20 ADD PUSH1 0x0 PUSH4 0xFFFFFFFF AND DUP2 MSTORE PUSH1 0x20 ADD PUSH1 0x0 PUSH4 0xFFFFFFFF AND DUP2 MSTORE PUSH1 0x20 ADD PUSH1 0x0 PUSH20 0xFFFFFFFFFFFFFFFFFFFFFFFFFFFFFFFFFFFFFFFF AND DUP2 MSTORE PUSH1 0x20 ADD PUSH1 0x0 PUSH20 0xFFFFFFFFFFFFFFFFFFFFFFFFFFFFFFFFFFFFFFFF AND DUP2 MSTORE PUSH1 0x20 ADD PUSH1 0x0 DUP2 MSTORE PUSH1 0x20 ADD PUSH1 0x0 PUSH20 0xFFFFFFFFFFFFFFFFFFFFFFFFFFFFFFFFFFFFFFFF AND DUP2 MSTORE PUSH1 0x20 ADD PUSH1 0x0 PUSH20 0xFFFFFFFFFFFFFFFFFFFFFFFFFFFFFFFFFFFFFFFF AND DUP2 MSTORE PUSH1 0x20 ADD PUSH1 0x0 DUP2 MSTORE PUSH1 0x20 ADD PUSH1 0x0 DUP2 MSTORE PUSH1 0x20 ADD PUSH1 0x0 PUSH16 0xFFFFFFFFFFFFFFFFFFFFFFFFFFFFFFFF AND DUP2 MSTORE PUSH1 0x20 ADD PUSH1 0x0 PUSH16 0xFFFFFFFFFFFFFFFFFFFFFFFFFFFFFFFF AND DUP2 MSTORE POP SWAP1 JUMP JUMPDEST PUSH1 0x0 DUP2 CALLDATALOAD SWAP1 POP PUSH3 0x1470 DUP2 PUSH3 0x221D JUMP JUMPDEST SWAP3 SWAP2 POP POP JUMP JUMPDEST PUSH1 0x0 DUP2 MLOAD SWAP1 POP PUSH3 0x1487 DUP2 PUSH3 0x221D JUMP JUMPDEST SWAP3 SWAP2 POP POP JUMP JUMPDEST PUSH1 0x0 DUP2 CALLDATALOAD SWAP1 POP PUSH3 0x149E DUP2 PUSH3 0x2237 JUMP JUMPDEST SWAP3 SWAP2 POP POP JUMP JUMPDEST PUSH1 0x0 DUP2 MLOAD SWAP1 POP PUSH3 0x14B5 DUP2 PUSH3 0x2237 JUMP JUMPDEST SWAP3 SWAP2 POP POP JUMP JUMPDEST PUSH1 0x0 DUP2 CALLDATALOAD SWAP1 POP PUSH3 0x14CC DUP2 PUSH3 0x2251 JUMP JUMPDEST SWAP3 SWAP2 POP POP JUMP JUMPDEST PUSH1 0x0 DUP2 MLOAD SWAP1 POP PUSH3 0x14E3 DUP2 PUSH3 0x2251 JUMP JUMPDEST SWAP3 SWAP2 POP POP JUMP JUMPDEST PUSH1 0x0 DUP2 CALLDATALOAD SWAP1 POP PUSH3 0x14FA DUP2 PUSH3 0x226B JUMP JUMPDEST SWAP3 SWAP2 POP POP JUMP JUMPDEST PUSH1 0x0 DUP2 MLOAD SWAP1 POP PUSH3 0x1511 DUP2 PUSH3 0x226B JUMP JUMPDEST SWAP3 SWAP2 POP POP JUMP JUMPDEST PUSH1 0x0 DUP2 MLOAD SWAP1 POP PUSH3 0x1528 DUP2 PUSH3 0x2285 JUMP JUMPDEST SWAP3 SWAP2 POP POP JUMP JUMPDEST PUSH1 0x0 DUP2 CALLDATALOAD SWAP1 POP PUSH3 0x153F DUP2 PUSH3 0x229F JUMP JUMPDEST SWAP3 SWAP2 POP POP JUMP JUMPDEST PUSH1 0x0 DUP2 MLOAD SWAP1 POP PUSH3 0x1556 DUP2 PUSH3 0x229F JUMP JUMPDEST SWAP3 SWAP2 POP POP JUMP JUMPDEST PUSH1 0x0 PUSH1 0x20 DUP3 DUP5 SUB SLT ISZERO PUSH3 0x1575 JUMPI PUSH3 0x1574 PUSH3 0x2004 JUMP JUMPDEST JUMPDEST PUSH1 0x0 PUSH3 0x1585 DUP5 DUP3 DUP6 ADD PUSH3 0x145F JUMP JUMPDEST SWAP2 POP POP SWAP3 SWAP2 POP POP JUMP JUMPDEST PUSH1 0x0 PUSH1 0x20 DUP3 DUP5 SUB SLT ISZERO PUSH3 0x15A7 JUMPI PUSH3 0x15A6 PUSH3 0x2004 JUMP JUMPDEST JUMPDEST PUSH1 0x0 PUSH3 0x15B7 DUP5 DUP3 DUP6 ADD PUSH3 0x1476 JUMP JUMPDEST SWAP2 POP POP SWAP3 SWAP2 POP POP JUMP JUMPDEST PUSH1 0x0 PUSH1 0x20 DUP3 DUP5 SUB SLT ISZERO PUSH3 0x15D9 JUMPI PUSH3 0x15D8 PUSH3 0x2004 JUMP JUMPDEST JUMPDEST PUSH1 0x0 PUSH3 0x15E9 DUP5 DUP3 DUP6 ADD PUSH3 0x14A4 JUMP JUMPDEST SWAP2 POP POP SWAP3 SWAP2 POP POP JUMP JUMPDEST PUSH1 0x0 DUP1 PUSH1 0x0 DUP1 PUSH1 0x0 DUP1 PUSH1 0x0 PUSH1 0xE0 DUP9 DUP11 SUB SLT ISZERO PUSH3 0x1614 JUMPI PUSH3 0x1613 PUSH3 0x2004 JUMP JUMPDEST JUMPDEST PUSH1 0x0 PUSH3 0x1624 DUP11 DUP3 DUP12 ADD PUSH3 0x148D JUMP JUMPDEST SWAP8 POP POP PUSH1 0x20 PUSH3 0x1637 DUP11 DUP3 DUP12 ADD PUSH3 0x152E JUMP JUMPDEST SWAP7 POP POP PUSH1 0x40 PUSH3 0x164A DUP11 DUP3 DUP12 ADD PUSH3 0x14BB JUMP JUMPDEST SWAP6 POP POP PUSH1 0x60 PUSH3 0x165D DUP11 DUP3 DUP12 ADD PUSH3 0x14BB JUMP JUMPDEST SWAP5 POP POP PUSH1 0x80 PUSH3 0x1670 DUP11 DUP3 DUP12 ADD PUSH3 0x14E9 JUMP JUMPDEST SWAP4 POP POP PUSH1 0xA0 PUSH3 0x1683 DUP11 DUP3 DUP12 ADD PUSH3 0x14E9 JUMP JUMPDEST SWAP3 POP POP PUSH1 0xC0 PUSH3 0x1696 DUP11 DUP3 DUP12 ADD PUSH3 0x14E9 JUMP JUMPDEST SWAP2 POP POP SWAP3 SWAP6 SWAP9 SWAP2 SWAP5 SWAP8 POP SWAP3 SWAP6 POP JUMP JUMPDEST PUSH1 0x0 PUSH1 0x20 DUP3 DUP5 SUB SLT ISZERO PUSH3 0x16BE JUMPI PUSH3 0x16BD PUSH3 0x2004 JUMP JUMPDEST JUMPDEST PUSH1 0x0 PUSH3 0x16CE DUP5 DUP3 DUP6 ADD PUSH3 0x14D2 JUMP JUMPDEST SWAP2 POP POP SWAP3 SWAP2 POP POP JUMP JUMPDEST PUSH1 0x0 PUSH1 0x20 DUP3 DUP5 SUB SLT ISZERO PUSH3 0x16F0 JUMPI PUSH3 0x16EF PUSH3 0x2004 JUMP JUMPDEST JUMPDEST PUSH1 0x0 PUSH3 0x1700 DUP5 DUP3 DUP6 ADD PUSH3 0x1500 JUMP JUMPDEST SWAP2 POP POP SWAP3 SWAP2 POP POP JUMP JUMPDEST PUSH1 0x0 PUSH1 0x20 DUP3 DUP5 SUB SLT ISZERO PUSH3 0x1722 JUMPI PUSH3 0x1721 PUSH3 0x2004 JUMP JUMPDEST JUMPDEST PUSH1 0x0 PUSH3 0x1732 DUP5 DUP3 DUP6 ADD PUSH3 0x1517 JUMP JUMPDEST SWAP2 POP POP SWAP3 SWAP2 POP POP JUMP JUMPDEST PUSH1 0x0 DUP1 PUSH1 0x40 DUP4 DUP6 SUB SLT ISZERO PUSH3 0x1755 JUMPI PUSH3 0x1754 PUSH3 0x2004 JUMP JUMPDEST JUMPDEST PUSH1 0x0 PUSH3 0x1765 DUP6 DUP3 DUP7 ADD PUSH3 0x1517 JUMP JUMPDEST SWAP3 POP POP PUSH1 0x20 PUSH3 0x1778 DUP6 DUP3 DUP7 ADD PUSH3 0x1517 JUMP JUMPDEST SWAP2 POP POP SWAP3 POP SWAP3 SWAP1 POP JUMP JUMPDEST PUSH1 0x0 PUSH1 0x20 DUP3 DUP5 SUB SLT ISZERO PUSH3 0x179B JUMPI PUSH3 0x179A PUSH3 0x2004 JUMP JUMPDEST JUMPDEST PUSH1 0x0 PUSH3 0x17AB DUP5 DUP3 DUP6 ADD PUSH3 0x1545 JUMP JUMPDEST SWAP2 POP POP SWAP3 SWAP2 POP POP JUMP JUMPDEST PUSH1 0x0 PUSH3 0x17C2 DUP4 DUP4 PUSH3 0x1A06 JUMP JUMPDEST PUSH2 0x180 DUP4 ADD SWAP1 POP SWAP3 SWAP2 POP POP JUMP JUMPDEST PUSH3 0x17DA DUP2 PUSH3 0x1E2D JUMP JUMPDEST DUP3 MSTORE POP POP JUMP JUMPDEST PUSH3 0x17EB DUP2 PUSH3 0x1E2D JUMP JUMPDEST DUP3 MSTORE POP POP JUMP JUMPDEST PUSH1 0x0 PUSH3 0x17FE DUP3 PUSH3 0x1DD2 JUMP JUMPDEST PUSH3 0x180A DUP2 DUP6 PUSH3 0x1E00 JUMP JUMPDEST SWAP4 POP PUSH3 0x1817 DUP4 PUSH3 0x1DC2 JUMP JUMPDEST DUP1 PUSH1 0x0 JUMPDEST DUP4 DUP2 LT ISZERO PUSH3 0x184E JUMPI DUP2 MLOAD PUSH3 0x1832 DUP9 DUP3 PUSH3 0x17B4 JUMP JUMPDEST SWAP8 POP PUSH3 0x183F DUP4 PUSH3 0x1DF3 JUMP JUMPDEST SWAP3 POP POP PUSH1 0x1 DUP2 ADD SWAP1 POP PUSH3 0x181B JUMP JUMPDEST POP DUP6 SWAP4 POP POP POP POP SWAP3 SWAP2 POP POP JUMP JUMPDEST PUSH1 0x0 PUSH3 0x1868 DUP3 PUSH3 0x1DDD JUMP JUMPDEST PUSH3 0x1874 DUP2 DUP6 PUSH3 0x1E11 JUMP JUMPDEST SWAP4 POP PUSH3 0x1886 DUP2 DUP6 PUSH1 0x20 DUP7 ADD PUSH3 0x1EF3 JUMP JUMPDEST DUP1 DUP5 ADD SWAP2 POP POP SWAP3 SWAP2 POP POP JUMP JUMPDEST PUSH3 0x189D DUP2 PUSH3 0x1EB7 JUMP JUMPDEST DUP3 MSTORE POP POP JUMP JUMPDEST PUSH3 0x18AE DUP2 PUSH3 0x1EB7 JUMP JUMPDEST DUP3 MSTORE POP POP JUMP JUMPDEST PUSH1 0x0 PUSH3 0x18C1 DUP3 PUSH3 0x1DE8 JUMP JUMPDEST PUSH3 0x18CD DUP2 DUP6 PUSH3 0x1E1C JUMP JUMPDEST SWAP4 POP PUSH3 0x18DF DUP2 DUP6 PUSH1 0x20 DUP7 ADD PUSH3 0x1EF3 JUMP JUMPDEST PUSH3 0x18EA DUP2 PUSH3 0x2009 JUMP JUMPDEST DUP5 ADD SWAP2 POP POP SWAP3 SWAP2 POP POP JUMP JUMPDEST PUSH1 0x0 PUSH3 0x1904 PUSH1 0x23 DUP4 PUSH3 0x1E1C JUMP JUMPDEST SWAP2 POP PUSH3 0x1911 DUP3 PUSH3 0x201A JUMP JUMPDEST PUSH1 0x40 DUP3 ADD SWAP1 POP SWAP2 SWAP1 POP JUMP JUMPDEST PUSH1 0x0 PUSH3 0x192B PUSH1 0x25 DUP4 PUSH3 0x1E1C JUMP JUMPDEST SWAP2 POP PUSH3 0x1938 DUP3 PUSH3 0x2069 JUMP JUMPDEST PUSH1 0x40 DUP3 ADD SWAP1 POP SWAP2 SWAP1 POP JUMP JUMPDEST PUSH1 0x0 PUSH3 0x1952 PUSH1 0x24 DUP4 PUSH3 0x1E1C JUMP JUMPDEST SWAP2 POP PUSH3 0x195F DUP3 PUSH3 0x20B8 JUMP JUMPDEST PUSH1 0x40 DUP3 ADD SWAP1 POP SWAP2 SWAP1 POP JUMP JUMPDEST PUSH1 0x0 PUSH3 0x1979 PUSH1 0x28 DUP4 PUSH3 0x1E1C JUMP JUMPDEST SWAP2 POP PUSH3 0x1986 DUP3 PUSH3 0x2107 JUMP JUMPDEST PUSH1 0x40 DUP3 ADD SWAP1 POP SWAP2 SWAP1 POP JUMP JUMPDEST PUSH1 0x0 PUSH3 0x19A0 PUSH1 0x26 DUP4 PUSH3 0x1E1C JUMP JUMPDEST SWAP2 POP PUSH3 0x19AD DUP3 PUSH3 0x2156 JUMP JUMPDEST PUSH1 0x40 DUP3 ADD SWAP1 POP SWAP2 SWAP1 POP JUMP JUMPDEST PUSH1 0x0 PUSH3 0x19C7 PUSH1 0x1D DUP4 PUSH3 0x1E1C JUMP JUMPDEST SWAP2 POP PUSH3 0x19D4 DUP3 PUSH3 0x21A5 JUMP JUMPDEST PUSH1 0x20 DUP3 ADD SWAP1 POP SWAP2 SWAP1 POP JUMP JUMPDEST PUSH1 0x0 PUSH3 0x19EE PUSH1 0x2A DUP4 PUSH3 0x1E1C JUMP JUMPDEST SWAP2 POP PUSH3 0x19FB DUP3 PUSH3 0x21CE JUMP JUMPDEST PUSH1 0x40 DUP3 ADD SWAP1 POP SWAP2 SWAP1 POP JUMP JUMPDEST PUSH2 0x180 DUP3 ADD PUSH1 0x0 DUP3 ADD MLOAD PUSH3 0x1A1F PUSH1 0x0 DUP6 ADD DUP3 PUSH3 0x17CF JUMP JUMPDEST POP PUSH1 0x20 DUP3 ADD MLOAD PUSH3 0x1A34 PUSH1 0x20 DUP6 ADD DUP3 PUSH3 0x1B58 JUMP JUMPDEST POP PUSH1 0x40 DUP3 ADD MLOAD PUSH3 0x1A49 PUSH1 0x40 DUP6 ADD DUP3 PUSH3 0x1B58 JUMP JUMPDEST POP PUSH1 0x60 DUP3 ADD MLOAD PUSH3 0x1A5E PUSH1 0x60 DUP6 ADD DUP3 PUSH3 0x17CF JUMP JUMPDEST POP PUSH1 0x80 DUP3 ADD MLOAD PUSH3 0x1A73 PUSH1 0x80 DUP6 ADD DUP3 PUSH3 0x17CF JUMP JUMPDEST POP PUSH1 0xA0 DUP3 ADD MLOAD PUSH3 0x1A88 PUSH1 0xA0 DUP6 ADD DUP3 PUSH3 0x1B36 JUMP JUMPDEST POP PUSH1 0xC0 DUP3 ADD MLOAD PUSH3 0x1A9D PUSH1 0xC0 DUP6 ADD DUP3 PUSH3 0x1892 JUMP JUMPDEST POP PUSH1 0xE0 DUP3 ADD MLOAD PUSH3 0x1AB2 PUSH1 0xE0 DUP6 ADD DUP3 PUSH3 0x1892 JUMP JUMPDEST POP PUSH2 0x100 DUP3 ADD MLOAD PUSH3 0x1AC9 PUSH2 0x100 DUP6 ADD DUP3 PUSH3 0x1B36 JUMP JUMPDEST POP PUSH2 0x120 DUP3 ADD MLOAD PUSH3 0x1AE0 PUSH2 0x120 DUP6 ADD DUP3 PUSH3 0x1B36 JUMP JUMPDEST POP PUSH2 0x140 DUP3 ADD MLOAD PUSH3 0x1AF7 PUSH2 0x140 DUP6 ADD DUP3 PUSH3 0x1B14 JUMP JUMPDEST POP PUSH2 0x160 DUP3 ADD MLOAD PUSH3 0x1B0E PUSH2 0x160 DUP6 ADD DUP3 PUSH3 0x1B14 JUMP JUMPDEST POP POP POP POP JUMP JUMPDEST PUSH3 0x1B1F DUP2 PUSH3 0x1E61 JUMP JUMPDEST DUP3 MSTORE POP POP JUMP JUMPDEST PUSH3 0x1B30 DUP2 PUSH3 0x1E61 JUMP JUMPDEST DUP3 MSTORE POP POP JUMP JUMPDEST PUSH3 0x1B41 DUP2 PUSH3 0x1E9D JUMP JUMPDEST DUP3 MSTORE POP POP JUMP JUMPDEST PUSH3 0x1B52 DUP2 PUSH3 0x1E9D JUMP JUMPDEST DUP3 MSTORE POP POP JUMP JUMPDEST PUSH3 0x1B63 DUP2 PUSH3 0x1EA7 JUMP JUMPDEST DUP3 MSTORE POP POP JUMP JUMPDEST PUSH3 0x1B74 DUP2 PUSH3 0x1EA7 JUMP JUMPDEST DUP3 MSTORE POP POP JUMP JUMPDEST PUSH1 0x0 PUSH3 0x1B88 DUP3 DUP5 PUSH3 0x185B JUMP JUMPDEST SWAP2 POP DUP2 SWAP1 POP SWAP3 SWAP2 POP POP JUMP JUMPDEST PUSH1 0x0 PUSH1 0x20 DUP3 ADD SWAP1 POP PUSH3 0x1BAA PUSH1 0x0 DUP4 ADD DUP5 PUSH3 0x17E0 JUMP JUMPDEST SWAP3 SWAP2 POP POP JUMP JUMPDEST PUSH1 0x0 PUSH1 0x60 DUP3 ADD SWAP1 POP PUSH3 0x1BC7 PUSH1 0x0 DUP4 ADD DUP7 PUSH3 0x17E0 JUMP JUMPDEST PUSH3 0x1BD6 PUSH1 0x20 DUP4 ADD DUP6 PUSH3 0x17E0 JUMP JUMPDEST PUSH3 0x1BE5 PUSH1 0x40 DUP4 ADD DUP5 PUSH3 0x1B47 JUMP JUMPDEST SWAP5 SWAP4 POP POP POP POP JUMP JUMPDEST PUSH1 0x0 PUSH1 0x20 DUP3 ADD SWAP1 POP DUP2 DUP2 SUB PUSH1 0x0 DUP4 ADD MSTORE PUSH3 0x1C09 DUP2 DUP5 PUSH3 0x17F1 JUMP JUMPDEST SWAP1 POP SWAP3 SWAP2 POP POP JUMP JUMPDEST PUSH1 0x0 PUSH1 0x20 DUP3 ADD SWAP1 POP DUP2 DUP2 SUB PUSH1 0x0 DUP4 ADD MSTORE PUSH3 0x1C2D DUP2 DUP5 PUSH3 0x18B4 JUMP JUMPDEST SWAP1 POP SWAP3 SWAP2 POP POP JUMP JUMPDEST PUSH1 0x0 PUSH1 0x20 DUP3 ADD SWAP1 POP DUP2 DUP2 SUB PUSH1 0x0 DUP4 ADD MSTORE PUSH3 0x1C50 DUP2 PUSH3 0x18F5 JUMP JUMPDEST SWAP1 POP SWAP2 SWAP1 POP JUMP JUMPDEST PUSH1 0x0 PUSH1 0x20 DUP3 ADD SWAP1 POP DUP2 DUP2 SUB PUSH1 0x0 DUP4 ADD MSTORE PUSH3 0x1C72 DUP2 PUSH3 0x191C JUMP JUMPDEST SWAP1 POP SWAP2 SWAP1 POP JUMP JUMPDEST PUSH1 0x0 PUSH1 0x20 DUP3 ADD SWAP1 POP DUP2 DUP2 SUB PUSH1 0x0 DUP4 ADD MSTORE PUSH3 0x1C94 DUP2 PUSH3 0x1943 JUMP JUMPDEST SWAP1 POP SWAP2 SWAP1 POP JUMP JUMPDEST PUSH1 0x0 PUSH1 0x20 DUP3 ADD SWAP1 POP DUP2 DUP2 SUB PUSH1 0x0 DUP4 ADD MSTORE PUSH3 0x1CB6 DUP2 PUSH3 0x196A JUMP JUMPDEST SWAP1 POP SWAP2 SWAP1 POP JUMP JUMPDEST PUSH1 0x0 PUSH1 0x20 DUP3 ADD SWAP1 POP DUP2 DUP2 SUB PUSH1 0x0 DUP4 ADD MSTORE PUSH3 0x1CD8 DUP2 PUSH3 0x1991 JUMP JUMPDEST SWAP1 POP SWAP2 SWAP1 POP JUMP JUMPDEST PUSH1 0x0 PUSH1 0x20 DUP3 ADD SWAP1 POP DUP2 DUP2 SUB PUSH1 0x0 DUP4 ADD MSTORE PUSH3 0x1CFA DUP2 PUSH3 0x19B8 JUMP JUMPDEST SWAP1 POP SWAP2 SWAP1 POP JUMP JUMPDEST PUSH1 0x0 PUSH1 0x20 DUP3 ADD SWAP1 POP DUP2 DUP2 SUB PUSH1 0x0 DUP4 ADD MSTORE PUSH3 0x1D1C DUP2 PUSH3 0x19DF JUMP JUMPDEST SWAP1 POP SWAP2 SWAP1 POP JUMP JUMPDEST PUSH1 0x0 PUSH2 0x120 DUP3 ADD SWAP1 POP PUSH3 0x1D3B PUSH1 0x0 DUP4 ADD DUP13 PUSH3 0x1B69 JUMP JUMPDEST PUSH3 0x1D4A PUSH1 0x20 DUP4 ADD DUP12 PUSH3 0x17E0 JUMP JUMPDEST PUSH3 0x1D59 PUSH1 0x40 DUP4 ADD DUP11 PUSH3 0x17E0 JUMP JUMPDEST PUSH3 0x1D68 PUSH1 0x60 DUP4 ADD DUP10 PUSH3 0x18A3 JUMP JUMPDEST PUSH3 0x1D77 PUSH1 0x80 DUP4 ADD DUP9 PUSH3 0x18A3 JUMP JUMPDEST PUSH3 0x1D86 PUSH1 0xA0 DUP4 ADD DUP8 PUSH3 0x1B25 JUMP JUMPDEST PUSH3 0x1D95 PUSH1 0xC0 DUP4 ADD DUP7 PUSH3 0x1B25 JUMP JUMPDEST PUSH3 0x1DA4 PUSH1 0xE0 DUP4 ADD DUP6 PUSH3 0x17E0 JUMP JUMPDEST PUSH3 0x1DB4 PUSH2 0x100 DUP4 ADD DUP5 PUSH3 0x17E0 JUMP JUMPDEST SWAP11 SWAP10 POP POP POP POP POP POP POP POP POP POP JUMP JUMPDEST PUSH1 0x0 DUP2 SWAP1 POP PUSH1 0x20 DUP3 ADD SWAP1 POP SWAP2 SWAP1 POP JUMP JUMPDEST PUSH1 0x0 DUP2 MLOAD SWAP1 POP SWAP2 SWAP1 POP JUMP JUMPDEST PUSH1 0x0 DUP2 MLOAD SWAP1 POP SWAP2 SWAP1 POP JUMP JUMPDEST PUSH1 0x0 DUP2 MLOAD SWAP1 POP SWAP2 SWAP1 POP JUMP JUMPDEST PUSH1 0x0 PUSH1 0x20 DUP3 ADD SWAP1 POP SWAP2 SWAP1 POP JUMP JUMPDEST PUSH1 0x0 DUP3 DUP3 MSTORE PUSH1 0x20 DUP3 ADD SWAP1 POP SWAP3 SWAP2 POP POP JUMP JUMPDEST PUSH1 0x0 DUP2 SWAP1 POP SWAP3 SWAP2 POP POP JUMP JUMPDEST PUSH1 0x0 DUP3 DUP3 MSTORE PUSH1 0x20 DUP3 ADD SWAP1 POP SWAP3 SWAP2 POP POP JUMP JUMPDEST PUSH1 0x0 PUSH3 0x1E3A DUP3 PUSH3 0x1E7D JUMP JUMPDEST SWAP1 POP SWAP2 SWAP1 POP JUMP JUMPDEST PUSH1 0x0 DUP2 ISZERO ISZERO SWAP1 POP SWAP2 SWAP1 POP JUMP JUMPDEST PUSH1 0x0 PUSH3 0x1E5A DUP3 PUSH3 0x1E2D JUMP JUMPDEST SWAP1 POP SWAP2 SWAP1 POP JUMP JUMPDEST PUSH1 0x0 PUSH16 0xFFFFFFFFFFFFFFFFFFFFFFFFFFFFFFFF DUP3 AND SWAP1 POP SWAP2 SWAP1 POP JUMP JUMPDEST PUSH1 0x0 PUSH20 0xFFFFFFFFFFFFFFFFFFFFFFFFFFFFFFFFFFFFFFFF DUP3 AND SWAP1 POP SWAP2 SWAP1 POP JUMP JUMPDEST PUSH1 0x0 DUP2 SWAP1 POP SWAP2 SWAP1 POP JUMP JUMPDEST PUSH1 0x0 PUSH4 0xFFFFFFFF DUP3 AND SWAP1 POP SWAP2 SWAP1 POP JUMP JUMPDEST PUSH1 0x0 PUSH3 0x1EC4 DUP3 PUSH3 0x1ECB JUMP JUMPDEST SWAP1 POP SWAP2 SWAP1 POP JUMP JUMPDEST PUSH1 0x0 PUSH3 0x1ED8 DUP3 PUSH3 0x1EDF JUMP JUMPDEST SWAP1 POP SWAP2 SWAP1 POP JUMP JUMPDEST PUSH1 0x0 PUSH3 0x1EEC DUP3 PUSH3 0x1E7D JUMP JUMPDEST SWAP1 POP SWAP2 SWAP1 POP JUMP JUMPDEST PUSH1 0x0 JUMPDEST DUP4 DUP2 LT ISZERO PUSH3 0x1F13 JUMPI DUP1 DUP3 ADD MLOAD DUP2 DUP5 ADD MSTORE PUSH1 0x20 DUP2 ADD SWAP1 POP PUSH3 0x1EF6 JUMP JUMPDEST DUP4 DUP2 GT ISZERO PUSH3 0x1F23 JUMPI PUSH1 0x0 DUP5 DUP5 ADD MSTORE JUMPDEST POP POP POP POP JUMP JUMPDEST PUSH1 0x0 PUSH3 0x1F36 DUP3 PUSH3 0x1E9D JUMP JUMPDEST SWAP2 POP PUSH32 0xFFFFFFFFFFFFFFFFFFFFFFFFFFFFFFFFFFFFFFFFFFFFFFFFFFFFFFFFFFFFFFFF DUP3 EQ ISZERO PUSH3 0x1F6C JUMPI PUSH3 0x1F6B PUSH3 0x1F77 JUMP JUMPDEST JUMPDEST PUSH1 0x1 DUP3 ADD SWAP1 POP SWAP2 SWAP1 POP JUMP JUMPDEST PUSH32 0x4E487B7100000000000000000000000000000000000000000000000000000000 PUSH1 0x0 MSTORE PUSH1 0x11 PUSH1 0x4 MSTORE PUSH1 0x24 PUSH1 0x0 REVERT JUMPDEST PUSH32 0x4E487B7100000000000000000000000000000000000000000000000000000000 PUSH1 0x0 MSTORE PUSH1 0x32 PUSH1 0x4 MSTORE PUSH1 0x24 PUSH1 0x0 REVERT JUMPDEST PUSH32 0x4E487B7100000000000000000000000000000000000000000000000000000000 PUSH1 0x0 MSTORE PUSH1 0x41 PUSH1 0x4 MSTORE PUSH1 0x24 PUSH1 0x0 REVERT JUMPDEST PUSH1 0x0 DUP1 REVERT JUMPDEST PUSH1 0x0 PUSH1 0x1F NOT PUSH1 0x1F DUP4 ADD AND SWAP1 POP SWAP2 SWAP1 POP JUMP JUMPDEST PUSH32 0x416D6F756E7430206D7573742062652061206E6F6E207A65726F207175616E74 PUSH1 0x0 DUP3 ADD MSTORE PUSH32 0x6974790000000000000000000000000000000000000000000000000000000000 PUSH1 0x20 DUP3 ADD MSTORE POP JUMP JUMPDEST PUSH32 0x4F6E6C792074686520706172656E742063616E2061736B20746F206265206368 PUSH1 0x0 DUP3 ADD MSTORE PUSH32 0x616E676564000000000000000000000000000000000000000000000000000000 PUSH1 0x20 DUP3 ADD MSTORE POP JUMP JUMPDEST PUSH32 0x4F6E6C7920746865206368696C642063616E2061736B20746F2062652072656D PUSH1 0x0 DUP3 ADD MSTORE PUSH32 0x6F76656400000000000000000000000000000000000000000000000000000000 PUSH1 0x20 DUP3 ADD MSTORE POP JUMP JUMPDEST PUSH32 0x546F6B656E73206D7573742062652074776F2064697374696E63742045524332 PUSH1 0x0 DUP3 ADD MSTORE PUSH32 0x3020746F6B656E73000000000000000000000000000000000000000000000000 PUSH1 0x20 DUP3 ADD MSTORE POP JUMP JUMPDEST PUSH32 0x416464726573733A20696E73756666696369656E742062616C616E636520666F PUSH1 0x0 DUP3 ADD MSTORE PUSH32 0x722063616C6C0000000000000000000000000000000000000000000000000000 PUSH1 0x20 DUP3 ADD MSTORE POP JUMP JUMPDEST PUSH32 0x416464726573733A2063616C6C20746F206E6F6E2D636F6E7472616374000000 PUSH1 0x0 DUP3 ADD MSTORE POP JUMP JUMPDEST PUSH32 0x5361666545524332303A204552433230206F7065726174696F6E20646964206E PUSH1 0x0 DUP3 ADD MSTORE PUSH32 0x6F74207375636365656400000000000000000000000000000000000000000000 PUSH1 0x20 DUP3 ADD MSTORE POP JUMP JUMPDEST PUSH3 0x2228 DUP2 PUSH3 0x1E2D JUMP JUMPDEST DUP2 EQ PUSH3 0x2234 JUMPI PUSH1 0x0 DUP1 REVERT JUMPDEST POP JUMP JUMPDEST PUSH3 0x2242 DUP2 PUSH3 0x1E41 JUMP JUMPDEST DUP2 EQ PUSH3 0x224E JUMPI PUSH1 0x0 DUP1 REVERT JUMPDEST POP JUMP JUMPDEST PUSH3 0x225C DUP2 PUSH3 0x1E4D JUMP JUMPDEST DUP2 EQ PUSH3 0x2268 JUMPI PUSH1 0x0 DUP1 REVERT JUMPDEST POP JUMP JUMPDEST PUSH3 0x2276 DUP2 PUSH3 0x1E61 JUMP JUMPDEST DUP2 EQ PUSH3 0x2282 JUMPI PUSH1 0x0 DUP1 REVERT JUMPDEST POP JUMP JUMPDEST PUSH3 0x2290 DUP2 PUSH3 0x1E9D JUMP JUMPDEST DUP2 EQ PUSH3 0x229C JUMPI PUSH1 0x0 DUP1 REVERT JUMPDEST POP JUMP JUMPDEST PUSH3 0x22AA DUP2 PUSH3 0x1EA7 JUMP JUMPDEST DUP2 EQ PUSH3 0x22B6 JUMPI PUSH1 0x0 DUP1 REVERT JUMPDEST POP JUMP INVALID PUSH1 0x80 PUSH1 0x40 MSTORE CALLVALUE DUP1 ISZERO PUSH3 0x11 JUMPI PUSH1 0x0 DUP1 REVERT JUMPDEST POP PUSH1 0x40 MLOAD PUSH3 0x3770 CODESIZE SUB DUP1 PUSH3 0x3770 DUP4 CODECOPY DUP2 DUP2 ADD PUSH1 0x40 MSTORE DUP2 ADD SWAP1 PUSH3 0x37 SWAP2 SWAP1 PUSH3 0x66B JUMP JUMPDEST DUP2 DUP2 PUSH1 0x0 PUSH20 0xFFFFFFFFFFFFFFFFFFFFFFFFFFFFFFFFFFFFFFFF AND DUP3 PUSH20 0xFFFFFFFFFFFFFFFFFFFFFFFFFFFFFFFFFFFFFFFF AND EQ PUSH3 0xB4 JUMPI DUP2 PUSH1 0x0 DUP1 PUSH2 0x100 EXP DUP2 SLOAD DUP2 PUSH20 0xFFFFFFFFFFFFFFFFFFFFFFFFFFFFFFFFFFFFFFFF MUL NOT AND SWAP1 DUP4 PUSH20 0xFFFFFFFFFFFFFFFFFFFFFFFFFFFFFFFFFFFFFFFF AND MUL OR SWAP1 SSTORE POP PUSH3 0xF5 JUMP JUMPDEST ADDRESS PUSH1 0x0 DUP1 PUSH2 0x100 EXP DUP2 SLOAD DUP2 PUSH20 0xFFFFFFFFFFFFFFFFFFFFFFFFFFFFFFFFFFFFFFFF MUL NOT AND SWAP1 DUP4 PUSH20 0xFFFFFFFFFFFFFFFFFFFFFFFFFFFFFFFFFFFFFFFF AND MUL OR SWAP1 SSTORE POP JUMPDEST PUSH1 0x0 PUSH20 0xFFFFFFFFFFFFFFFFFFFFFFFFFFFFFFFFFFFFFFFF AND DUP2 PUSH20 0xFFFFFFFFFFFFFFFFFFFFFFFFFFFFFFFFFFFFFFFF AND EQ PUSH3 0x171 JUMPI DUP1 PUSH1 0x1 PUSH1 0x0 PUSH2 0x100 EXP DUP2 SLOAD DUP2 PUSH20 0xFFFFFFFFFFFFFFFFFFFFFFFFFFFFFFFFFFFFFFFF MUL NOT AND SWAP1 DUP4 PUSH20 0xFFFFFFFFFFFFFFFFFFFFFFFFFFFFFFFFFFFFFFFF AND MUL OR SWAP1 SSTORE POP PUSH3 0x1B3 JUMP JUMPDEST ADDRESS PUSH1 0x1 PUSH1 0x0 PUSH2 0x100 EXP DUP2 SLOAD DUP2 PUSH20 0xFFFFFFFFFFFFFFFFFFFFFFFFFFFFFFFFFFFFFFFF MUL NOT AND SWAP1 DUP4 PUSH20 0xFFFFFFFFFFFFFFFFFFFFFFFFFFFFFFFFFFFFFFFF AND MUL OR SWAP1 SSTORE POP JUMPDEST POP POP PUSH1 0x1 DUP1 PUSH1 0x14 PUSH2 0x100 EXP DUP2 SLOAD DUP2 PUSH4 0xFFFFFFFF MUL NOT AND SWAP1 DUP4 PUSH4 0xFFFFFFFF AND MUL OR SWAP1 SSTORE POP PUSH1 0x0 DUP10 PUSH4 0xFFFFFFFF AND GT PUSH3 0x222 JUMPI PUSH1 0x40 MLOAD PUSH32 0x8C379A000000000000000000000000000000000000000000000000000000000 DUP2 MSTORE PUSH1 0x4 ADD PUSH3 0x219 SWAP1 PUSH3 0x82F JUMP JUMPDEST PUSH1 0x40 MLOAD DUP1 SWAP2 SUB SWAP1 REVERT JUMPDEST DUP9 PUSH1 0x1 PUSH1 0x18 PUSH2 0x100 EXP DUP2 SLOAD DUP2 PUSH4 0xFFFFFFFF MUL NOT AND SWAP1 DUP4 PUSH4 0xFFFFFFFF AND MUL OR SWAP1 SSTORE POP PUSH1 0x0 PUSH20 0xFFFFFFFFFFFFFFFFFFFFFFFFFFFFFFFFFFFFFFFF AND DUP9 PUSH20 0xFFFFFFFFFFFFFFFFFFFFFFFFFFFFFFFFFFFFFFFF AND EQ DUP1 PUSH3 0x2AB JUMPI POP PUSH1 0x0 PUSH20 0xFFFFFFFFFFFFFFFFFFFFFFFFFFFFFFFFFFFFFFFF AND DUP8 PUSH20 0xFFFFFFFFFFFFFFFFFFFFFFFFFFFFFFFFFFFFFFFF AND EQ JUMPDEST PUSH3 0x2ED JUMPI PUSH1 0x40 MLOAD PUSH32 0x8C379A000000000000000000000000000000000000000000000000000000000 DUP2 MSTORE PUSH1 0x4 ADD PUSH3 0x2E4 SWAP1 PUSH3 0x873 JUMP JUMPDEST PUSH1 0x40 MLOAD DUP1 SWAP2 SUB SWAP1 REVERT JUMPDEST DUP8 PUSH1 0x2 PUSH1 0x0 PUSH2 0x100 EXP DUP2 SLOAD DUP2 PUSH20 0xFFFFFFFFFFFFFFFFFFFFFFFFFFFFFFFFFFFFFFFF MUL NOT AND SWAP1 DUP4 PUSH20 0xFFFFFFFFFFFFFFFFFFFFFFFFFFFFFFFFFFFFFFFF AND MUL OR SWAP1 SSTORE POP DUP7 PUSH1 0x3 PUSH1 0x0 PUSH2 0x100 EXP DUP2 SLOAD DUP2 PUSH20 0xFFFFFFFFFFFFFFFFFFFFFFFFFFFFFFFFFFFFFFFF MUL NOT AND SWAP1 DUP4 PUSH20 0xFFFFFFFFFFFFFFFFFFFFFFFFFFFFFFFFFFFFFFFF AND MUL OR SWAP1 SSTORE POP TIMESTAMP PUSH1 0x4 DUP2 SWAP1 SSTORE POP PUSH1 0x0 PUSH20 0xFFFFFFFFFFFFFFFFFFFFFFFFFFFFFFFFFFFFFFFF AND DUP7 PUSH20 0xFFFFFFFFFFFFFFFFFFFFFFFFFFFFFFFFFFFFFFFF AND EQ ISZERO DUP1 ISZERO PUSH3 0x3E1 JUMPI POP PUSH1 0x0 PUSH20 0xFFFFFFFFFFFFFFFFFFFFFFFFFFFFFFFFFFFFFFFF AND DUP6 PUSH20 0xFFFFFFFFFFFFFFFFFFFFFFFFFFFFFFFFFFFFFFFF AND EQ ISZERO JUMPDEST PUSH3 0x423 JUMPI PUSH1 0x40 MLOAD PUSH32 0x8C379A000000000000000000000000000000000000000000000000000000000 DUP2 MSTORE PUSH1 0x4 ADD PUSH3 0x41A SWAP1 PUSH3 0x851 JUMP JUMPDEST PUSH1 0x40 MLOAD DUP1 SWAP2 SUB SWAP1 REVERT JUMPDEST DUP5 PUSH20 0xFFFFFFFFFFFFFFFFFFFFFFFFFFFFFFFFFFFFFFFF AND DUP7 PUSH20 0xFFFFFFFFFFFFFFFFFFFFFFFFFFFFFFFFFFFFFFFF AND EQ ISZERO PUSH3 0x495 JUMPI PUSH1 0x40 MLOAD PUSH32 0x8C379A000000000000000000000000000000000000000000000000000000000 DUP2 MSTORE PUSH1 0x4 ADD PUSH3 0x48C SWAP1 PUSH3 0x80D JUMP JUMPDEST PUSH1 0x40 MLOAD DUP1 SWAP2 SUB SWAP1 REVERT JUMPDEST DUP6 PUSH1 0x5 PUSH1 0x0 PUSH2 0x100 EXP DUP2 SLOAD DUP2 PUSH20 0xFFFFFFFFFFFFFFFFFFFFFFFFFFFFFFFFFFFFFFFF MUL NOT AND SWAP1 DUP4 PUSH20 0xFFFFFFFFFFFFFFFFFFFFFFFFFFFFFFFFFFFFFFFF AND MUL OR SWAP1 SSTORE POP DUP5 PUSH1 0x6 PUSH1 0x0 PUSH2 0x100 EXP DUP2 SLOAD DUP2 PUSH20 0xFFFFFFFFFFFFFFFFFFFFFFFFFFFFFFFFFFFFFFFF MUL NOT AND SWAP1 DUP4 PUSH20 0xFFFFFFFFFFFFFFFFFFFFFFFFFFFFFFFFFFFFFFFF AND MUL OR SWAP1 SSTORE POP PUSH1 0x0 DUP5 PUSH16 0xFFFFFFFFFFFFFFFFFFFFFFFFFFFFFFFF AND GT DUP1 ISZERO PUSH3 0x54C JUMPI POP PUSH1 0x0 DUP4 PUSH16 0xFFFFFFFFFFFFFFFFFFFFFFFFFFFFFFFF AND GT JUMPDEST PUSH3 0x58E JUMPI PUSH1 0x40 MLOAD PUSH32 0x8C379A000000000000000000000000000000000000000000000000000000000 DUP2 MSTORE PUSH1 0x4 ADD PUSH3 0x585 SWAP1 PUSH3 0x895 JUMP JUMPDEST PUSH1 0x40 MLOAD DUP1 SWAP2 SUB SWAP1 REVERT JUMPDEST DUP4 PUSH1 0x7 PUSH1 0x0 PUSH2 0x100 EXP DUP2 SLOAD DUP2 PUSH16 0xFFFFFFFFFFFFFFFFFFFFFFFFFFFFFFFF MUL NOT AND SWAP1 DUP4 PUSH16 0xFFFFFFFFFFFFFFFFFFFFFFFFFFFFFFFF AND MUL OR SWAP1 SSTORE POP DUP3 PUSH1 0x7 PUSH1 0x10 PUSH2 0x100 EXP DUP2 SLOAD DUP2 PUSH16 0xFFFFFFFFFFFFFFFFFFFFFFFFFFFFFFFF MUL NOT AND SWAP1 DUP4 PUSH16 0xFFFFFFFFFFFFFFFFFFFFFFFFFFFFFFFF AND MUL OR SWAP1 SSTORE POP POP POP POP POP POP POP POP POP POP PUSH3 0xB34 JUMP JUMPDEST PUSH1 0x0 DUP2 MLOAD SWAP1 POP PUSH3 0x620 DUP2 PUSH3 0xACC JUMP JUMPDEST SWAP3 SWAP2 POP POP JUMP JUMPDEST PUSH1 0x0 DUP2 MLOAD SWAP1 POP PUSH3 0x637 DUP2 PUSH3 0xAE6 JUMP JUMPDEST SWAP3 SWAP2 POP POP JUMP JUMPDEST PUSH1 0x0 DUP2 MLOAD SWAP1 POP PUSH3 0x64E DUP2 PUSH3 0xB00 JUMP JUMPDEST SWAP3 SWAP2 POP POP JUMP JUMPDEST PUSH1 0x0 DUP2 MLOAD SWAP1 POP PUSH3 0x665 DUP2 PUSH3 0xB1A JUMP JUMPDEST SWAP3 SWAP2 POP POP JUMP JUMPDEST PUSH1 0x0 DUP1 PUSH1 0x0 DUP1 PUSH1 0x0 DUP1 PUSH1 0x0 DUP1 PUSH1 0x0 PUSH2 0x120 DUP11 DUP13 SUB SLT ISZERO PUSH3 0x691 JUMPI PUSH3 0x690 PUSH3 0x93C JUMP JUMPDEST JUMPDEST PUSH1 0x0 PUSH3 0x6A1 DUP13 DUP3 DUP14 ADD PUSH3 0x654 JUMP JUMPDEST SWAP10 POP POP PUSH1 0x20 PUSH3 0x6B4 DUP13 DUP3 DUP14 ADD PUSH3 0x60F JUMP JUMPDEST SWAP9 POP POP PUSH1 0x40 PUSH3 0x6C7 DUP13 DUP3 DUP14 ADD PUSH3 0x60F JUMP JUMPDEST SWAP8 POP POP PUSH1 0x60 PUSH3 0x6DA DUP13 DUP3 DUP14 ADD PUSH3 0x626 JUMP JUMPDEST SWAP7 POP POP PUSH1 0x80 PUSH3 0x6ED DUP13 DUP3 DUP14 ADD PUSH3 0x626 JUMP JUMPDEST SWAP6 POP POP PUSH1 0xA0 PUSH3 0x700 DUP13 DUP3 DUP14 ADD PUSH3 0x63D JUMP JUMPDEST SWAP5 POP POP PUSH1 0xC0 PUSH3 0x713 DUP13 DUP3 DUP14 ADD PUSH3 0x63D JUMP JUMPDEST SWAP4 POP POP PUSH1 0xE0 PUSH3 0x726 DUP13 DUP3 DUP14 ADD PUSH3 0x60F JUMP JUMPDEST SWAP3 POP POP PUSH2 0x100 PUSH3 0x73A DUP13 DUP3 DUP14 ADD PUSH3 0x60F JUMP JUMPDEST SWAP2 POP POP SWAP3 SWAP6 SWAP9 POP SWAP3 SWAP6 SWAP9 POP SWAP3 SWAP6 SWAP9 JUMP JUMPDEST PUSH1 0x0 PUSH3 0x759 PUSH1 0x28 DUP4 PUSH3 0x8B7 JUMP JUMPDEST SWAP2 POP PUSH3 0x766 DUP3 PUSH3 0x941 JUMP JUMPDEST PUSH1 0x40 DUP3 ADD SWAP1 POP SWAP2 SWAP1 POP JUMP JUMPDEST PUSH1 0x0 PUSH3 0x780 PUSH1 0x24 DUP4 PUSH3 0x8B7 JUMP JUMPDEST SWAP2 POP PUSH3 0x78D DUP3 PUSH3 0x990 JUMP JUMPDEST PUSH1 0x40 DUP3 ADD SWAP1 POP SWAP2 SWAP1 POP JUMP JUMPDEST PUSH1 0x0 PUSH3 0x7A7 PUSH1 0x2D DUP4 PUSH3 0x8B7 JUMP JUMPDEST SWAP2 POP PUSH3 0x7B4 DUP3 PUSH3 0x9DF JUMP JUMPDEST PUSH1 0x40 DUP3 ADD SWAP1 POP SWAP2 SWAP1 POP JUMP JUMPDEST PUSH1 0x0 PUSH3 0x7CE PUSH1 0x33 DUP4 PUSH3 0x8B7 JUMP JUMPDEST SWAP2 POP PUSH3 0x7DB DUP3 PUSH3 0xA2E JUMP JUMPDEST PUSH1 0x40 DUP3 ADD SWAP1 POP SWAP2 SWAP1 POP JUMP JUMPDEST PUSH1 0x0 PUSH3 0x7F5 PUSH1 0x2D DUP4 PUSH3 0x8B7 JUMP JUMPDEST SWAP2 POP PUSH3 0x802 DUP3 PUSH3 0xA7D JUMP JUMPDEST PUSH1 0x40 DUP3 ADD SWAP1 POP SWAP2 SWAP1 POP JUMP JUMPDEST PUSH1 0x0 PUSH1 0x20 DUP3 ADD SWAP1 POP DUP2 DUP2 SUB PUSH1 0x0 DUP4 ADD MSTORE PUSH3 0x828 DUP2 PUSH3 0x74A JUMP JUMPDEST SWAP1 POP SWAP2 SWAP1 POP JUMP JUMPDEST PUSH1 0x0 PUSH1 0x20 DUP3 ADD SWAP1 POP DUP2 DUP2 SUB PUSH1 0x0 DUP4 ADD MSTORE PUSH3 0x84A DUP2 PUSH3 0x771 JUMP JUMPDEST SWAP1 POP SWAP2 SWAP1 POP JUMP JUMPDEST PUSH1 0x0 PUSH1 0x20 DUP3 ADD SWAP1 POP DUP2 DUP2 SUB PUSH1 0x0 DUP4 ADD MSTORE PUSH3 0x86C DUP2 PUSH3 0x798 JUMP JUMPDEST SWAP1 POP SWAP2 SWAP1 POP JUMP JUMPDEST PUSH1 0x0 PUSH1 0x20 DUP3 ADD SWAP1 POP DUP2 DUP2 SUB PUSH1 0x0 DUP4 ADD MSTORE PUSH3 0x88E DUP2 PUSH3 0x7BF JUMP JUMPDEST SWAP1 POP SWAP2 SWAP1 POP JUMP JUMPDEST PUSH1 0x0 PUSH1 0x20 DUP3 ADD SWAP1 POP DUP2 DUP2 SUB PUSH1 0x0 DUP4 ADD MSTORE PUSH3 0x8B0 DUP2 PUSH3 0x7E6 JUMP JUMPDEST SWAP1 POP SWAP2 SWAP1 POP JUMP JUMPDEST PUSH1 0x0 DUP3 DUP3 MSTORE PUSH1 0x20 DUP3 ADD SWAP1 POP SWAP3 SWAP2 POP POP JUMP JUMPDEST PUSH1 0x0 PUSH3 0x8D5 DUP3 PUSH3 0x90C JUMP JUMPDEST SWAP1 POP SWAP2 SWAP1 POP JUMP JUMPDEST PUSH1 0x0 PUSH3 0x8E9 DUP3 PUSH3 0x8C8 JUMP JUMPDEST SWAP1 POP SWAP2 SWAP1 POP JUMP JUMPDEST PUSH1 0x0 PUSH16 0xFFFFFFFFFFFFFFFFFFFFFFFFFFFFFFFF DUP3 AND SWAP1 POP SWAP2 SWAP1 POP JUMP JUMPDEST PUSH1 0x0 PUSH20 0xFFFFFFFFFFFFFFFFFFFFFFFFFFFFFFFFFFFFFFFF DUP3 AND SWAP1 POP SWAP2 SWAP1 POP JUMP JUMPDEST PUSH1 0x0 PUSH4 0xFFFFFFFF DUP3 AND SWAP1 POP SWAP2 SWAP1 POP JUMP JUMPDEST PUSH1 0x0 DUP1 REVERT JUMPDEST PUSH32 0x546F6B656E73206D7573742062652074776F2064697374696E63742045524332 PUSH1 0x0 DUP3 ADD MSTORE PUSH32 0x3020746F6B656E73000000000000000000000000000000000000000000000000 PUSH1 0x20 DUP3 ADD MSTORE POP JUMP JUMPDEST PUSH32 0x4475726174696F6E206D7573742062652061206E6F6E207A65726F207175616E PUSH1 0x0 DUP3 ADD MSTORE PUSH32 0x7469747900000000000000000000000000000000000000000000000000000000 PUSH1 0x20 DUP3 ADD MSTORE POP JUMP JUMPDEST PUSH32 0x546F6B656E20616464726573736573206D7573742062652076616C6964204552 PUSH1 0x0 DUP3 ADD MSTORE PUSH32 0x4332302061646472657373657300000000000000000000000000000000000000 PUSH1 0x20 DUP3 ADD MSTORE POP JUMP JUMPDEST PUSH32 0x4F6E6C79206F6E65206265747765656E20686F6C64657220616E642073656C6C PUSH1 0x0 DUP3 ADD MSTORE PUSH32 0x65722063616E2062652073706563696669656400000000000000000000000000 PUSH1 0x20 DUP3 ADD MSTORE POP JUMP JUMPDEST PUSH32 0x5265736572766520636F6E7374616E7473206D7573742062652061206E6F6E20 PUSH1 0x0 DUP3 ADD MSTORE PUSH32 0x7A65726F207175616E7469747900000000000000000000000000000000000000 PUSH1 0x20 DUP3 ADD MSTORE POP JUMP JUMPDEST PUSH3 0xAD7 DUP2 PUSH3 0x8C8 JUMP JUMPDEST DUP2 EQ PUSH3 0xAE3 JUMPI PUSH1 0x0 DUP1 REVERT JUMPDEST POP JUMP JUMPDEST PUSH3 0xAF1 DUP2 PUSH3 0x8DC JUMP JUMPDEST DUP2 EQ PUSH3 0xAFD JUMPI PUSH1 0x0 DUP1 REVERT JUMPDEST POP JUMP JUMPDEST PUSH3 0xB0B DUP2 PUSH3 0x8F0 JUMP JUMPDEST DUP2 EQ PUSH3 0xB17 JUMPI PUSH1 0x0 DUP1 REVERT JUMPDEST POP JUMP JUMPDEST PUSH3 0xB25 DUP2 PUSH3 0x92C JUMP JUMPDEST DUP2 EQ PUSH3 0xB31 JUMPI PUSH1 0x0 DUP1 REVERT JUMPDEST POP JUMP JUMPDEST PUSH2 0x2C2C DUP1 PUSH3 0xB44 PUSH1 0x0 CODECOPY PUSH1 0x0 RETURN INVALID PUSH1 0x80 PUSH1 0x40 MSTORE CALLVALUE DUP1 ISZERO PUSH2 0x10 JUMPI PUSH1 0x0 DUP1 REVERT JUMPDEST POP PUSH1 0x4 CALLDATASIZE LT PUSH2 0x121 JUMPI PUSH1 0x0 CALLDATALOAD PUSH1 0xE0 SHR DUP1 PUSH4 0x9B08E8FC GT PUSH2 0xAD JUMPI DUP1 PUSH4 0xC8BCA060 GT PUSH2 0x71 JUMPI DUP1 PUSH4 0xC8BCA060 EQ PUSH2 0x2B1 JUMPI DUP1 PUSH4 0xD21220A7 EQ PUSH2 0x2BB JUMPI DUP1 PUSH4 0xD3C8DD69 EQ PUSH2 0x2D9 JUMPI DUP1 PUSH4 0xDABD614B EQ PUSH2 0x2F7 JUMPI DUP1 PUSH4 0xE534155D EQ PUSH2 0x313 JUMPI PUSH2 0x121 JUMP JUMPDEST DUP1 PUSH4 0x9B08E8FC EQ PUSH2 0x21E JUMPI DUP1 PUSH4 0x9E254D13 EQ PUSH2 0x23A JUMPI DUP1 PUSH4 0xA1924757 EQ PUSH2 0x258 JUMPI DUP1 PUSH4 0xB1C9FE6E EQ PUSH2 0x274 JUMPI DUP1 PUSH4 0xB69EF8A8 EQ PUSH2 0x292 JUMPI PUSH2 0x121 JUMP JUMPDEST DUP1 PUSH4 0x659621B5 GT PUSH2 0xF4 JUMPI DUP1 PUSH4 0x659621B5 EQ PUSH2 0x19E JUMPI DUP1 PUSH4 0x6CA5B5B0 EQ PUSH2 0x1BC JUMPI DUP1 PUSH4 0x7AC951FC EQ PUSH2 0x1DA JUMPI DUP1 PUSH4 0x80E9071B EQ PUSH2 0x1F6 JUMPI DUP1 PUSH4 0x893D20E8 EQ PUSH2 0x200 JUMPI PUSH2 0x121 JUMP JUMPDEST DUP1 PUSH4 0x8551A53 EQ PUSH2 0x126 JUMPI DUP1 PUSH4 0xDFE1681 EQ PUSH2 0x144 JUMPI DUP1 PUSH4 0xFB5A6B4 EQ PUSH2 0x162 JUMPI DUP1 PUSH4 0x4665096D EQ PUSH2 0x180 JUMPI JUMPDEST PUSH1 0x0 DUP1 REVERT JUMPDEST PUSH2 0x12E PUSH2 0x331 JUMP JUMPDEST PUSH1 0x40 MLOAD PUSH2 0x13B SWAP2 SWAP1 PUSH2 0x221B JUMP JUMPDEST PUSH1 0x40 MLOAD DUP1 SWAP2 SUB SWAP1 RETURN JUMPDEST PUSH2 0x14C PUSH2 0x357 JUMP JUMPDEST PUSH1 0x40 MLOAD PUSH2 0x159 SWAP2 SWAP1 PUSH2 0x2296 JUMP JUMPDEST PUSH1 0x40 MLOAD DUP1 SWAP2 SUB SWAP1 RETURN JUMPDEST PUSH2 0x16A PUSH2 0x37D JUMP JUMPDEST PUSH1 0x40 MLOAD PUSH2 0x177 SWAP2 SWAP1 PUSH2 0x2577 JUMP JUMPDEST PUSH1 0x40 MLOAD DUP1 SWAP2 SUB SWAP1 RETURN JUMPDEST PUSH2 0x188 PUSH2 0x393 JUMP JUMPDEST PUSH1 0x40 MLOAD PUSH2 0x195 SWAP2 SWAP1 PUSH2 0x2533 JUMP JUMPDEST PUSH1 0x40 MLOAD DUP1 SWAP2 SUB SWAP1 RETURN JUMPDEST PUSH2 0x1A6 PUSH2 0x399 JUMP JUMPDEST PUSH1 0x40 MLOAD PUSH2 0x1B3 SWAP2 SWAP1 PUSH2 0x24D3 JUMP JUMPDEST PUSH1 0x40 MLOAD DUP1 SWAP2 SUB SWAP1 RETURN JUMPDEST PUSH2 0x1C4 PUSH2 0x3BB JUMP JUMPDEST PUSH1 0x40 MLOAD PUSH2 0x1D1 SWAP2 SWAP1 PUSH2 0x24D3 JUMP JUMPDEST PUSH1 0x40 MLOAD DUP1 SWAP2 SUB SWAP1 RETURN JUMPDEST PUSH2 0x1F4 PUSH1 0x4 DUP1 CALLDATASIZE SUB DUP2 ADD SWAP1 PUSH2 0x1EF SWAP2 SWAP1 PUSH2 0x1E4B JUMP JUMPDEST PUSH2 0x3DD JUMP JUMPDEST STOP JUMPDEST PUSH2 0x1FE PUSH2 0x7B3 JUMP JUMPDEST STOP JUMPDEST PUSH2 0x208 PUSH2 0x98C JUMP JUMPDEST PUSH1 0x40 MLOAD PUSH2 0x215 SWAP2 SWAP1 PUSH2 0x221B JUMP JUMPDEST PUSH1 0x40 MLOAD DUP1 SWAP2 SUB SWAP1 RETURN JUMPDEST PUSH2 0x238 PUSH1 0x4 DUP1 CALLDATASIZE SUB DUP2 ADD SWAP1 PUSH2 0x233 SWAP2 SWAP1 PUSH2 0x1D5D JUMP JUMPDEST PUSH2 0xA35 JUMP JUMPDEST STOP JUMPDEST PUSH2 0x242 PUSH2 0xB06 JUMP JUMPDEST PUSH1 0x40 MLOAD PUSH2 0x24F SWAP2 SWAP1 PUSH2 0x221B JUMP JUMPDEST PUSH1 0x40 MLOAD DUP1 SWAP2 SUB SWAP1 RETURN JUMPDEST PUSH2 0x272 PUSH1 0x4 DUP1 CALLDATASIZE SUB DUP2 ADD SWAP1 PUSH2 0x26D SWAP2 SWAP1 PUSH2 0x1EB8 JUMP JUMPDEST PUSH2 0xB30 JUMP JUMPDEST STOP JUMPDEST PUSH2 0x27C PUSH2 0xE80 JUMP JUMPDEST PUSH1 0x40 MLOAD PUSH2 0x289 SWAP2 SWAP1 PUSH2 0x2577 JUMP JUMPDEST PUSH1 0x40 MLOAD DUP1 SWAP2 SUB SWAP1 RETURN JUMPDEST PUSH2 0x29A PUSH2 0xE96 JUMP JUMPDEST PUSH1 0x40 MLOAD PUSH2 0x2A8 SWAP3 SWAP2 SWAP1 PUSH2 0x254E JUMP JUMPDEST PUSH1 0x40 MLOAD DUP1 SWAP2 SUB SWAP1 RETURN JUMPDEST PUSH2 0x2B9 PUSH2 0xFF7 JUMP JUMPDEST STOP JUMPDEST PUSH2 0x2C3 PUSH2 0x1169 JUMP JUMPDEST PUSH1 0x40 MLOAD PUSH2 0x2D0 SWAP2 SWAP1 PUSH2 0x2296 JUMP JUMPDEST PUSH1 0x40 MLOAD DUP1 SWAP2 SUB SWAP1 RETURN JUMPDEST PUSH2 0x2E1 PUSH2 0x118F JUMP JUMPDEST PUSH1 0x40 MLOAD PUSH2 0x2EE SWAP2 SWAP1 PUSH2 0x221B JUMP JUMPDEST PUSH1 0x40 MLOAD DUP1 SWAP2 SUB SWAP1 RETURN JUMPDEST PUSH2 0x311 PUSH1 0x4 DUP1 CALLDATASIZE SUB DUP2 ADD SWAP1 PUSH2 0x30C SWAP2 SWAP1 PUSH2 0x1DE4 JUMP JUMPDEST PUSH2 0x11B8 JUMP JUMPDEST STOP JUMPDEST PUSH2 0x31B PUSH2 0x178D JUMP JUMPDEST PUSH1 0x40 MLOAD PUSH2 0x328 SWAP2 SWAP1 PUSH2 0x221B JUMP JUMPDEST PUSH1 0x40 MLOAD DUP1 SWAP2 SUB SWAP1 RETURN JUMPDEST PUSH1 0x3 PUSH1 0x0 SWAP1 SLOAD SWAP1 PUSH2 0x100 EXP SWAP1 DIV PUSH20 0xFFFFFFFFFFFFFFFFFFFFFFFFFFFFFFFFFFFFFFFF AND DUP2 JUMP JUMPDEST PUSH1 0x5 PUSH1 0x0 SWAP1 SLOAD SWAP1 PUSH2 0x100 EXP SWAP1 DIV PUSH20 0xFFFFFFFFFFFFFFFFFFFFFFFFFFFFFFFFFFFFFFFF AND DUP2 JUMP JUMPDEST PUSH1 0x1 PUSH1 0x18 SWAP1 SLOAD SWAP1 PUSH2 0x100 EXP SWAP1 DIV PUSH4 0xFFFFFFFF AND DUP2 JUMP JUMPDEST PUSH1 0x4 SLOAD DUP2 JUMP JUMPDEST PUSH1 0x7 PUSH1 0x0 SWAP1 SLOAD SWAP1 PUSH2 0x100 EXP SWAP1 DIV PUSH16 0xFFFFFFFFFFFFFFFFFFFFFFFFFFFFFFFF AND DUP2 JUMP JUMPDEST PUSH1 0x7 PUSH1 0x10 SWAP1 SLOAD SWAP1 PUSH2 0x100 EXP SWAP1 DIV PUSH16 0xFFFFFFFFFFFFFFFFFFFFFFFFFFFFFFFF AND DUP2 JUMP JUMPDEST PUSH1 0x0 PUSH1 0x1 PUSH1 0x14 SWAP1 SLOAD SWAP1 PUSH2 0x100 EXP SWAP1 DIV PUSH4 0xFFFFFFFF AND PUSH4 0xFFFFFFFF AND GT DUP1 ISZERO PUSH2 0x422 JUMPI POP DUP1 PUSH4 0xFFFFFFFF AND PUSH1 0x1 PUSH1 0x14 SWAP1 SLOAD SWAP1 PUSH2 0x100 EXP SWAP1 DIV PUSH4 0xFFFFFFFF AND PUSH4 0xFFFFFFFF AND EQ JUMPDEST PUSH2 0x461 JUMPI PUSH1 0x40 MLOAD PUSH32 0x8C379A000000000000000000000000000000000000000000000000000000000 DUP2 MSTORE PUSH1 0x4 ADD PUSH2 0x458 SWAP1 PUSH2 0x2313 JUMP JUMPDEST PUSH1 0x40 MLOAD DUP1 SWAP2 SUB SWAP1 REVERT JUMPDEST PUSH1 0x0 PUSH1 0x1 PUSH1 0x14 PUSH2 0x100 EXP DUP2 SLOAD DUP2 PUSH4 0xFFFFFFFF MUL NOT AND SWAP1 DUP4 PUSH4 0xFFFFFFFF AND MUL OR SWAP1 SSTORE POP PUSH1 0x0 DUP3 PUSH16 0xFFFFFFFFFFFFFFFFFFFFFFFFFFFFFFFF AND GT PUSH2 0x4D8 JUMPI PUSH1 0x40 MLOAD PUSH32 0x8C379A000000000000000000000000000000000000000000000000000000000 DUP2 MSTORE PUSH1 0x4 ADD PUSH2 0x4CF SWAP1 PUSH2 0x22D3 JUMP JUMPDEST PUSH1 0x40 MLOAD DUP1 SWAP2 SUB SWAP1 REVERT JUMPDEST PUSH1 0x0 PUSH20 0xFFFFFFFFFFFFFFFFFFFFFFFFFFFFFFFFFFFFFFFF AND PUSH1 0x3 PUSH1 0x0 SWAP1 SLOAD SWAP1 PUSH2 0x100 EXP SWAP1 DIV PUSH20 0xFFFFFFFFFFFFFFFFFFFFFFFFFFFFFFFFFFFFFFFF AND PUSH20 0xFFFFFFFFFFFFFFFFFFFFFFFFFFFFFFFFFFFFFFFF AND EQ ISZERO PUSH2 0x575 JUMPI CALLER PUSH1 0x3 PUSH1 0x0 PUSH2 0x100 EXP DUP2 SLOAD DUP2 PUSH20 0xFFFFFFFFFFFFFFFFFFFFFFFFFFFFFFFFFFFFFFFF MUL NOT AND SWAP1 DUP4 PUSH20 0xFFFFFFFFFFFFFFFFFFFFFFFFFFFFFFFFFFFFFFFF AND MUL OR SWAP1 SSTORE POP PUSH2 0x5B7 JUMP JUMPDEST CALLER PUSH1 0x2 PUSH1 0x0 PUSH2 0x100 EXP DUP2 SLOAD DUP2 PUSH20 0xFFFFFFFFFFFFFFFFFFFFFFFFFFFFFFFFFFFFFFFF MUL NOT AND SWAP1 DUP4 PUSH20 0xFFFFFFFFFFFFFFFFFFFFFFFFFFFFFFFFFFFFFFFF AND MUL OR SWAP1 SSTORE POP JUMPDEST PUSH1 0x1 PUSH1 0x18 SWAP1 SLOAD SWAP1 PUSH2 0x100 EXP SWAP1 DIV PUSH4 0xFFFFFFFF AND PUSH4 0xFFFFFFFF AND TIMESTAMP PUSH2 0x5DB SWAP2 SWAP1 PUSH2 0x25C4 JUMP JUMPDEST PUSH1 0x4 DUP2 SWAP1 SSTORE POP PUSH2 0x642 CALLER ADDRESS DUP5 PUSH16 0xFFFFFFFFFFFFFFFFFFFFFFFFFFFFFFFF AND PUSH1 0x5 PUSH1 0x0 SWAP1 SLOAD SWAP1 PUSH2 0x100 EXP SWAP1 DIV PUSH20 0xFFFFFFFFFFFFFFFFFFFFFFFFFFFFFFFFFFFFFFFF AND PUSH20 0xFFFFFFFFFFFFFFFFFFFFFFFFFFFFFFFFFFFFFFFF AND PUSH2 0x17B3 SWAP1 SWAP4 SWAP3 SWAP2 SWAP1 PUSH4 0xFFFFFFFF AND JUMP JUMPDEST PUSH1 0x7 PUSH1 0x0 SWAP1 SLOAD SWAP1 PUSH2 0x100 EXP SWAP1 DIV PUSH16 0xFFFFFFFFFFFFFFFFFFFFFFFFFFFFFFFF AND PUSH16 0xFFFFFFFFFFFFFFFFFFFFFFFFFFFFFFFF AND PUSH1 0x5 PUSH1 0x0 SWAP1 SLOAD SWAP1 PUSH2 0x100 EXP SWAP1 DIV PUSH20 0xFFFFFFFFFFFFFFFFFFFFFFFFFFFFFFFFFFFFFFFF AND PUSH20 0xFFFFFFFFFFFFFFFFFFFFFFFFFFFFFFFFFFFFFFFF AND PUSH4 0x70A08231 ADDRESS PUSH1 0x40 MLOAD DUP3 PUSH4 0xFFFFFFFF AND PUSH1 0xE0 SHL DUP2 MSTORE PUSH1 0x4 ADD PUSH2 0x6CE SWAP2 SWAP1 PUSH2 0x221B JUMP JUMPDEST PUSH1 0x20 PUSH1 0x40 MLOAD DUP1 DUP4 SUB DUP2 DUP7 DUP1 EXTCODESIZE ISZERO DUP1 ISZERO PUSH2 0x6E6 JUMPI PUSH1 0x0 DUP1 REVERT JUMPDEST POP GAS STATICCALL ISZERO DUP1 ISZERO PUSH2 0x6FA JUMPI RETURNDATASIZE PUSH1 0x0 DUP1 RETURNDATACOPY RETURNDATASIZE PUSH1 0x0 REVERT JUMPDEST POP POP POP POP PUSH1 0x40 MLOAD RETURNDATASIZE PUSH1 0x1F NOT PUSH1 0x1F DUP3 ADD AND DUP3 ADD DUP1 PUSH1 0x40 MSTORE POP DUP2 ADD SWAP1 PUSH2 0x71E SWAP2 SWAP1 PUSH2 0x1E8B JUMP JUMPDEST LT ISZERO PUSH2 0x75F JUMPI PUSH1 0x40 MLOAD PUSH32 0x8C379A000000000000000000000000000000000000000000000000000000000 DUP2 MSTORE PUSH1 0x4 ADD PUSH2 0x756 SWAP1 PUSH2 0x2353 JUMP JUMPDEST PUSH1 0x40 MLOAD DUP1 SWAP2 SUB SWAP1 REVERT JUMPDEST CALLER PUSH20 0xFFFFFFFFFFFFFFFFFFFFFFFFFFFFFFFFFFFFFFFF AND PUSH32 0x7662EDF7D3118DECA7209335E1B070E04950F12C6A27D44F9972D4101BF4759D PUSH1 0x4 SLOAD PUSH1 0x40 MLOAD PUSH2 0x7A7 SWAP2 SWAP1 PUSH2 0x2533 JUMP JUMPDEST PUSH1 0x40 MLOAD DUP1 SWAP2 SUB SWAP1 LOG2 POP POP JUMP JUMPDEST PUSH1 0x4 SLOAD TIMESTAMP LT ISZERO PUSH2 0x7F8 JUMPI PUSH1 0x40 MLOAD PUSH32 0x8C379A000000000000000000000000000000000000000000000000000000000 DUP2 MSTORE PUSH1 0x4 ADD PUSH2 0x7EF SWAP1 PUSH2 0x2493 JUMP JUMPDEST PUSH1 0x40 MLOAD DUP1 SWAP2 SUB SWAP1 REVERT JUMPDEST PUSH1 0x0 PUSH2 0x802 PUSH2 0x98C JUMP JUMPDEST SWAP1 POP DUP1 PUSH20 0xFFFFFFFFFFFFFFFFFFFFFFFFFFFFFFFFFFFFFFFF AND CALLER PUSH20 0xFFFFFFFFFFFFFFFFFFFFFFFFFFFFFFFFFFFFFFFF AND EQ PUSH2 0x872 JUMPI PUSH1 0x40 MLOAD PUSH32 0x8C379A000000000000000000000000000000000000000000000000000000000 DUP2 MSTORE PUSH1 0x4 ADD PUSH2 0x869 SWAP1 PUSH2 0x2453 JUMP JUMPDEST PUSH1 0x40 MLOAD DUP1 SWAP2 SUB SWAP1 REVERT JUMPDEST PUSH1 0x0 DUP1 PUSH2 0x87D PUSH2 0xE96 JUMP JUMPDEST SWAP2 POP SWAP2 POP PUSH1 0x0 DUP3 GT ISZERO PUSH2 0x8D8 JUMPI PUSH2 0x8D7 DUP4 DUP4 PUSH1 0x5 PUSH1 0x0 SWAP1 SLOAD SWAP1 PUSH2 0x100 EXP SWAP1 DIV PUSH20 0xFFFFFFFFFFFFFFFFFFFFFFFFFFFFFFFFFFFFFFFF AND PUSH20 0xFFFFFFFFFFFFFFFFFFFFFFFFFFFFFFFFFFFFFFFF AND PUSH2 0x183C SWAP1 SWAP3 SWAP2 SWAP1 PUSH4 0xFFFFFFFF AND JUMP JUMPDEST JUMPDEST PUSH1 0x0 DUP2 GT ISZERO PUSH2 0x92F JUMPI PUSH2 0x92E DUP4 DUP3 PUSH1 0x6 PUSH1 0x0 SWAP1 SLOAD SWAP1 PUSH2 0x100 EXP SWAP1 DIV PUSH20 0xFFFFFFFFFFFFFFFFFFFFFFFFFFFFFFFFFFFFFFFF AND PUSH20 0xFFFFFFFFFFFFFFFFFFFFFFFFFFFFFFFFFFFFFFFF AND PUSH2 0x183C SWAP1 SWAP3 SWAP2 SWAP1 PUSH4 0xFFFFFFFF AND JUMP JUMPDEST JUMPDEST PUSH2 0x937 PUSH2 0x18C2 JUMP JUMPDEST DUP3 PUSH20 0xFFFFFFFFFFFFFFFFFFFFFFFFFFFFFFFFFFFFFFFF AND PUSH32 0xE1B927658277F7A84084D8E5FDC6EAFB73C7BD3F598F95137EB95812E42BC2A DUP4 DUP4 PUSH1 0x40 MLOAD PUSH2 0x97F SWAP3 SWAP2 SWAP1 PUSH2 0x254E JUMP JUMPDEST PUSH1 0x40 MLOAD DUP1 SWAP2 SUB SWAP1 LOG2 POP POP POP JUMP JUMPDEST PUSH1 0x0 DUP1 PUSH20 0xFFFFFFFFFFFFFFFFFFFFFFFFFFFFFFFFFFFFFFFF AND PUSH1 0x3 PUSH1 0x0 SWAP1 SLOAD SWAP1 PUSH2 0x100 EXP SWAP1 DIV PUSH20 0xFFFFFFFFFFFFFFFFFFFFFFFFFFFFFFFFFFFFFFFF AND PUSH20 0xFFFFFFFFFFFFFFFFFFFFFFFFFFFFFFFFFFFFFFFF AND EQ ISZERO PUSH2 0xA0C JUMPI PUSH1 0x2 PUSH1 0x0 SWAP1 SLOAD SWAP1 PUSH2 0x100 EXP SWAP1 DIV PUSH20 0xFFFFFFFFFFFFFFFFFFFFFFFFFFFFFFFFFFFFFFFF AND PUSH2 0xA30 JUMP JUMPDEST PUSH1 0x3 PUSH1 0x0 SWAP1 SLOAD SWAP1 PUSH2 0x100 EXP SWAP1 DIV PUSH20 0xFFFFFFFFFFFFFFFFFFFFFFFFFFFFFFFFFFFFFFFF AND JUMPDEST SWAP1 POP SWAP1 JUMP JUMPDEST PUSH1 0x0 DUP1 SLOAD SWAP1 PUSH2 0x100 EXP SWAP1 DIV PUSH20 0xFFFFFFFFFFFFFFFFFFFFFFFFFFFFFFFFFFFFFFFF AND PUSH20 0xFFFFFFFFFFFFFFFFFFFFFFFFFFFFFFFFFFFFFFFF AND CALLER PUSH20 0xFFFFFFFFFFFFFFFFFFFFFFFFFFFFFFFFFFFFFFFF AND EQ PUSH2 0xAC3 JUMPI PUSH1 0x40 MLOAD PUSH32 0x8C379A000000000000000000000000000000000000000000000000000000000 DUP2 MSTORE PUSH1 0x4 ADD PUSH2 0xABA SWAP1 PUSH2 0x22F3 JUMP JUMPDEST PUSH1 0x40 MLOAD DUP1 SWAP2 SUB SWAP1 REVERT JUMPDEST DUP1 PUSH1 0x0 DUP1 PUSH2 0x100 EXP DUP2 SLOAD DUP2 PUSH20 0xFFFFFFFFFFFFFFFFFFFFFFFFFFFFFFFFFFFFFFFF MUL NOT AND SWAP1 DUP4 PUSH20 0xFFFFFFFFFFFFFFFFFFFFFFFFFFFFFFFFFFFFFFFF AND MUL OR SWAP1 SSTORE POP POP JUMP JUMPDEST PUSH1 0x0 PUSH1 0x1 PUSH1 0x0 SWAP1 SLOAD SWAP1 PUSH2 0x100 EXP SWAP1 DIV PUSH20 0xFFFFFFFFFFFFFFFFFFFFFFFFFFFFFFFFFFFFFFFF AND SWAP1 POP SWAP1 JUMP JUMPDEST PUSH1 0x0 PUSH1 0x1 PUSH1 0x14 SWAP1 SLOAD SWAP1 PUSH2 0x100 EXP SWAP1 DIV PUSH4 0xFFFFFFFF AND PUSH4 0xFFFFFFFF AND GT PUSH2 0xB8B JUMPI PUSH1 0x40 MLOAD PUSH32 0x8C379A000000000000000000000000000000000000000000000000000000000 DUP2 MSTORE PUSH1 0x4 ADD PUSH2 0xB82 SWAP1 PUSH2 0x2313 JUMP JUMPDEST PUSH1 0x40 MLOAD DUP1 SWAP2 SUB SWAP1 REVERT JUMPDEST PUSH1 0x1 PUSH1 0x14 DUP2 DUP2 SWAP1 SLOAD SWAP1 PUSH2 0x100 EXP SWAP1 DIV PUSH4 0xFFFFFFFF AND DUP1 SWAP3 SWAP2 SWAP1 PUSH2 0xBAD SWAP1 PUSH2 0x2751 JUMP JUMPDEST SWAP2 SWAP1 PUSH2 0x100 EXP DUP2 SLOAD DUP2 PUSH4 0xFFFFFFFF MUL NOT AND SWAP1 DUP4 PUSH4 0xFFFFFFFF AND MUL OR SWAP1 SSTORE POP POP PUSH1 0x0 PUSH2 0xBD6 PUSH2 0x98C JUMP JUMPDEST SWAP1 POP DUP1 PUSH20 0xFFFFFFFFFFFFFFFFFFFFFFFFFFFFFFFFFFFFFFFF AND CALLER PUSH20 0xFFFFFFFFFFFFFFFFFFFFFFFFFFFFFFFFFFFFFFFF AND EQ PUSH2 0xC46 JUMPI PUSH1 0x40 MLOAD PUSH32 0x8C379A000000000000000000000000000000000000000000000000000000000 DUP2 MSTORE PUSH1 0x4 ADD PUSH2 0xC3D SWAP1 PUSH2 0x2453 JUMP JUMPDEST PUSH1 0x40 MLOAD DUP1 SWAP2 SUB SWAP1 REVERT JUMPDEST PUSH1 0x0 DUP6 PUSH4 0xFFFFFFFF AND GT PUSH2 0xC8F JUMPI PUSH1 0x40 MLOAD PUSH32 0x8C379A000000000000000000000000000000000000000000000000000000000 DUP2 MSTORE PUSH1 0x4 ADD PUSH2 0xC86 SWAP1 PUSH2 0x2413 JUMP JUMPDEST PUSH1 0x40 MLOAD DUP1 SWAP2 SUB SWAP1 REVERT JUMPDEST DUP5 PUSH1 0x1 PUSH1 0x18 PUSH2 0x100 EXP DUP2 SLOAD DUP2 PUSH4 0xFFFFFFFF MUL NOT AND SWAP1 DUP4 PUSH4 0xFFFFFFFF AND MUL OR SWAP1 SSTORE POP TIMESTAMP PUSH1 0x4 DUP2 SWAP1 SSTORE POP PUSH1 0x0 DUP4 PUSH16 0xFFFFFFFFFFFFFFFFFFFFFFFFFFFFFFFF AND GT DUP1 ISZERO PUSH2 0xCEB JUMPI POP PUSH1 0x0 DUP3 PUSH16 0xFFFFFFFFFFFFFFFFFFFFFFFFFFFFFFFF AND GT JUMPDEST PUSH2 0xD2A JUMPI PUSH1 0x40 MLOAD PUSH32 0x8C379A000000000000000000000000000000000000000000000000000000000 DUP2 MSTORE PUSH1 0x4 ADD PUSH2 0xD21 SWAP1 PUSH2 0x24B3 JUMP JUMPDEST PUSH1 0x40 MLOAD DUP1 SWAP2 SUB SWAP1 REVERT JUMPDEST DUP3 PUSH1 0x7 PUSH1 0x0 PUSH2 0x100 EXP DUP2 SLOAD DUP2 PUSH16 0xFFFFFFFFFFFFFFFFFFFFFFFFFFFFFFFF MUL NOT AND SWAP1 DUP4 PUSH16 0xFFFFFFFFFFFFFFFFFFFFFFFFFFFFFFFF AND MUL OR SWAP1 SSTORE POP DUP2 PUSH1 0x7 PUSH1 0x10 PUSH2 0x100 EXP DUP2 SLOAD DUP2 PUSH16 0xFFFFFFFFFFFFFFFFFFFFFFFFFFFFFFFF MUL NOT AND SWAP1 DUP4 PUSH16 0xFFFFFFFFFFFFFFFFFFFFFFFFFFFFFFFF AND MUL OR SWAP1 SSTORE POP PUSH1 0x0 DUP5 PUSH16 0xFFFFFFFFFFFFFFFFFFFFFFFFFFFFFFFF AND GT ISZERO PUSH2 0xE19 JUMPI PUSH2 0xE18 CALLER ADDRESS DUP7 PUSH16 0xFFFFFFFFFFFFFFFFFFFFFFFFFFFFFFFF AND PUSH1 0x5 PUSH1 0x0 SWAP1 SLOAD SWAP1 PUSH2 0x100 EXP SWAP1 DIV PUSH20 0xFFFFFFFFFFFFFFFFFFFFFFFFFFFFFFFFFFFFFFFF AND PUSH20 0xFFFFFFFFFFFFFFFFFFFFFFFFFFFFFFFFFFFFFFFF AND PUSH2 0x17B3 SWAP1 SWAP4 SWAP3 SWAP2 SWAP1 PUSH4 0xFFFFFFFF AND JUMP JUMPDEST JUMPDEST DUP1 PUSH20 0xFFFFFFFFFFFFFFFFFFFFFFFFFFFFFFFFFFFFFFFF AND PUSH32 0xC25EC5CA82CE1AEB709BFF59F2A2F03D8A1F9C23A8A9AB6B301F5B3AF384A0F7 PUSH1 0x1 PUSH1 0x14 SWAP1 SLOAD SWAP1 PUSH2 0x100 EXP SWAP1 DIV PUSH4 0xFFFFFFFF AND PUSH1 0x40 MLOAD PUSH2 0xE71 SWAP2 SWAP1 PUSH2 0x2577 JUMP JUMPDEST PUSH1 0x40 MLOAD DUP1 SWAP2 SUB SWAP1 LOG2 POP POP POP POP POP JUMP JUMPDEST PUSH1 0x1 PUSH1 0x14 SWAP1 SLOAD SWAP1 PUSH2 0x100 EXP SWAP1 DIV PUSH4 0xFFFFFFFF AND DUP2 JUMP JUMPDEST PUSH1 0x0 DUP1 PUSH1 0x5 PUSH1 0x0 SWAP1 SLOAD SWAP1 PUSH2 0x100 EXP SWAP1 DIV PUSH20 0xFFFFFFFFFFFFFFFFFFFFFFFFFFFFFFFFFFFFFFFF AND PUSH20 0xFFFFFFFFFFFFFFFFFFFFFFFFFFFFFFFFFFFFFFFF AND PUSH4 0x70A08231 ADDRESS PUSH1 0x40 MLOAD DUP3 PUSH4 0xFFFFFFFF AND PUSH1 0xE0 SHL DUP2 MSTORE PUSH1 0x4 ADD PUSH2 0xEF4 SWAP2 SWAP1 PUSH2 0x221B JUMP JUMPDEST PUSH1 0x20 PUSH1 0x40 MLOAD DUP1 DUP4 SUB DUP2 DUP7 DUP1 EXTCODESIZE ISZERO DUP1 ISZERO PUSH2 0xF0C JUMPI PUSH1 0x0 DUP1 REVERT JUMPDEST POP GAS STATICCALL ISZERO DUP1 ISZERO PUSH2 0xF20 JUMPI RETURNDATASIZE PUSH1 0x0 DUP1 RETURNDATACOPY RETURNDATASIZE PUSH1 0x0 REVERT JUMPDEST POP POP POP POP PUSH1 0x40 MLOAD RETURNDATASIZE PUSH1 0x1F NOT PUSH1 0x1F DUP3 ADD AND DUP3 ADD DUP1 PUSH1 0x40 MSTORE POP DUP2 ADD SWAP1 PUSH2 0xF44 SWAP2 SWAP1 PUSH2 0x1E8B JUMP JUMPDEST PUSH1 0x6 PUSH1 0x0 SWAP1 SLOAD SWAP1 PUSH2 0x100 EXP SWAP1 DIV PUSH20 0xFFFFFFFFFFFFFFFFFFFFFFFFFFFFFFFFFFFFFFFF AND PUSH20 0xFFFFFFFFFFFFFFFFFFFFFFFFFFFFFFFFFFFFFFFF AND PUSH4 0x70A08231 ADDRESS PUSH1 0x40 MLOAD DUP3 PUSH4 0xFFFFFFFF AND PUSH1 0xE0 SHL DUP2 MSTORE PUSH1 0x4 ADD PUSH2 0xF9F SWAP2 SWAP1 PUSH2 0x221B JUMP JUMPDEST PUSH1 0x20 PUSH1 0x40 MLOAD DUP1 DUP4 SUB DUP2 DUP7 DUP1 EXTCODESIZE ISZERO DUP1 ISZERO PUSH2 0xFB7 JUMPI PUSH1 0x0 DUP1 REVERT JUMPDEST POP GAS STATICCALL ISZERO DUP1 ISZERO PUSH2 0xFCB JUMPI RETURNDATASIZE PUSH1 0x0 DUP1 RETURNDATACOPY RETURNDATASIZE PUSH1 0x0 REVERT JUMPDEST POP POP POP POP PUSH1 0x40 MLOAD RETURNDATASIZE PUSH1 0x1F NOT PUSH1 0x1F DUP3 ADD AND DUP3 ADD DUP1 PUSH1 0x40 MSTORE POP DUP2 ADD SWAP1 PUSH2 0xFEF SWAP2 SWAP1 PUSH2 0x1E8B JUMP JUMPDEST SWAP2 POP SWAP2 POP SWAP1 SWAP2 JUMP JUMPDEST PUSH1 0x1 PUSH1 0x0 SWAP1 SLOAD SWAP1 PUSH2 0x100 EXP SWAP1 DIV PUSH20 0xFFFFFFFFFFFFFFFFFFFFFFFFFFFFFFFFFFFFFFFF AND PUSH20 0xFFFFFFFFFFFFFFFFFFFFFFFFFFFFFFFFFFFFFFFF AND CALLER PUSH20 0xFFFFFFFFFFFFFFFFFFFFFFFFFFFFFFFFFFFFFFFF AND EQ PUSH2 0x1087 JUMPI PUSH1 0x40 MLOAD PUSH32 0x8C379A000000000000000000000000000000000000000000000000000000000 DUP2 MSTORE PUSH1 0x4 ADD PUSH2 0x107E SWAP1 PUSH2 0x2333 JUMP JUMPDEST PUSH1 0x40 MLOAD DUP1 SWAP2 SUB SWAP1 REVERT JUMPDEST PUSH1 0x1 PUSH1 0x0 SWAP1 SLOAD SWAP1 PUSH2 0x100 EXP SWAP1 DIV PUSH20 0xFFFFFFFFFFFFFFFFFFFFFFFFFFFFFFFFFFFFFFFF AND PUSH20 0xFFFFFFFFFFFFFFFFFFFFFFFFFFFFFFFFFFFFFFFF AND PUSH4 0x9E254D13 PUSH1 0x40 MLOAD DUP2 PUSH4 0xFFFFFFFF AND PUSH1 0xE0 SHL DUP2 MSTORE PUSH1 0x4 ADD PUSH1 0x20 PUSH1 0x40 MLOAD DUP1 DUP4 SUB DUP2 DUP7 DUP1 EXTCODESIZE ISZERO DUP1 ISZERO PUSH2 0x10EF JUMPI PUSH1 0x0 DUP1 REVERT JUMPDEST POP GAS STATICCALL ISZERO DUP1 ISZERO PUSH2 0x1103 JUMPI RETURNDATASIZE PUSH1 0x0 DUP1 RETURNDATACOPY RETURNDATASIZE PUSH1 0x0 REVERT JUMPDEST POP POP POP POP PUSH1 0x40 MLOAD RETURNDATASIZE PUSH1 0x1F NOT PUSH1 0x1F DUP3 ADD AND DUP3 ADD DUP1 PUSH1 0x40 MSTORE POP DUP2 ADD SWAP1 PUSH2 0x1127 SWAP2 SWAP1 PUSH2 0x1D8A JUMP JUMPDEST PUSH1 0x1 PUSH1 0x0 PUSH2 0x100 EXP DUP2 SLOAD DUP2 PUSH20 0xFFFFFFFFFFFFFFFFFFFFFFFFFFFFFFFFFFFFFFFF MUL NOT AND SWAP1 DUP4 PUSH20 0xFFFFFFFFFFFFFFFFFFFFFFFFFFFFFFFFFFFFFFFF AND MUL OR SWAP1 SSTORE POP JUMP JUMPDEST PUSH1 0x6 PUSH1 0x0 SWAP1 SLOAD SWAP1 PUSH2 0x100 EXP SWAP1 DIV PUSH20 0xFFFFFFFFFFFFFFFFFFFFFFFFFFFFFFFFFFFFFFFF AND DUP2 JUMP JUMPDEST PUSH1 0x0 DUP1 PUSH1 0x0 SWAP1 SLOAD SWAP1 PUSH2 0x100 EXP SWAP1 DIV PUSH20 0xFFFFFFFFFFFFFFFFFFFFFFFFFFFFFFFFFFFFFFFF AND SWAP1 POP SWAP1 JUMP JUMPDEST PUSH1 0x0 PUSH1 0x1 PUSH1 0x14 SWAP1 SLOAD SWAP1 PUSH2 0x100 EXP SWAP1 DIV PUSH4 0xFFFFFFFF AND PUSH4 0xFFFFFFFF AND EQ PUSH2 0x1213 JUMPI PUSH1 0x40 MLOAD PUSH32 0x8C379A000000000000000000000000000000000000000000000000000000000 DUP2 MSTORE PUSH1 0x4 ADD PUSH2 0x120A SWAP1 PUSH2 0x2373 JUMP JUMPDEST PUSH1 0x40 MLOAD DUP1 SWAP2 SUB SWAP1 REVERT JUMPDEST PUSH1 0x2 PUSH1 0x0 SWAP1 SLOAD SWAP1 PUSH2 0x100 EXP SWAP1 DIV PUSH20 0xFFFFFFFFFFFFFFFFFFFFFFFFFFFFFFFFFFFFFFFF AND PUSH20 0xFFFFFFFFFFFFFFFFFFFFFFFFFFFFFFFFFFFFFFFF AND CALLER PUSH20 0xFFFFFFFFFFFFFFFFFFFFFFFFFFFFFFFFFFFFFFFF AND EQ PUSH2 0x12A3 JUMPI PUSH1 0x40 MLOAD PUSH32 0x8C379A000000000000000000000000000000000000000000000000000000000 DUP2 MSTORE PUSH1 0x4 ADD PUSH2 0x129A SWAP1 PUSH2 0x23D3 JUMP JUMPDEST PUSH1 0x40 MLOAD DUP1 SWAP2 SUB SWAP1 REVERT JUMPDEST PUSH1 0x4 SLOAD TIMESTAMP LT PUSH2 0x12E7 JUMPI PUSH1 0x40 MLOAD PUSH32 0x8C379A000000000000000000000000000000000000000000000000000000000 DUP2 MSTORE PUSH1 0x4 ADD PUSH2 0x12DE SWAP1 PUSH2 0x23B3 JUMP JUMPDEST PUSH1 0x40 MLOAD DUP1 SWAP2 SUB SWAP1 REVERT JUMPDEST PUSH1 0x0 DUP3 PUSH16 0xFFFFFFFFFFFFFFFFFFFFFFFFFFFFFFFF AND GT DUP1 PUSH2 0x131A JUMPI POP PUSH1 0x0 DUP2 PUSH16 0xFFFFFFFFFFFFFFFFFFFFFFFFFFFFFFFF AND GT JUMPDEST PUSH2 0x1359 JUMPI PUSH1 0x40 MLOAD PUSH32 0x8C379A000000000000000000000000000000000000000000000000000000000 DUP2 MSTORE PUSH1 0x4 ADD PUSH2 0x1350 SWAP1 PUSH2 0x23F3 JUMP JUMPDEST PUSH1 0x40 MLOAD DUP1 SWAP2 SUB SWAP1 REVERT JUMPDEST PUSH1 0x0 DUP5 PUSH16 0xFFFFFFFFFFFFFFFFFFFFFFFFFFFFFFFF AND GT ISZERO PUSH2 0x13F8 JUMPI PUSH2 0x13F7 PUSH1 0x2 PUSH1 0x0 SWAP1 SLOAD SWAP1 PUSH2 0x100 EXP SWAP1 DIV PUSH20 0xFFFFFFFFFFFFFFFFFFFFFFFFFFFFFFFFFFFFFFFF AND ADDRESS DUP7 PUSH16 0xFFFFFFFFFFFFFFFFFFFFFFFFFFFFFFFF AND PUSH1 0x5 PUSH1 0x0 SWAP1 SLOAD SWAP1 PUSH2 0x100 EXP SWAP1 DIV PUSH20 0xFFFFFFFFFFFFFFFFFFFFFFFFFFFFFFFFFFFFFFFF AND PUSH20 0xFFFFFFFFFFFFFFFFFFFFFFFFFFFFFFFFFFFFFFFF AND PUSH2 0x17B3 SWAP1 SWAP4 SWAP3 SWAP2 SWAP1 PUSH4 0xFFFFFFFF AND JUMP JUMPDEST JUMPDEST PUSH1 0x0 DUP4 PUSH16 0xFFFFFFFFFFFFFFFFFFFFFFFFFFFFFFFF AND GT ISZERO PUSH2 0x1497 JUMPI PUSH2 0x1496 PUSH1 0x2 PUSH1 0x0 SWAP1 SLOAD SWAP1 PUSH2 0x100 EXP SWAP1 DIV PUSH20 0xFFFFFFFFFFFFFFFFFFFFFFFFFFFFFFFFFFFFFFFF AND ADDRESS DUP6 PUSH16 0xFFFFFFFFFFFFFFFFFFFFFFFFFFFFFFFF AND PUSH1 0x6 PUSH1 0x0 SWAP1 SLOAD SWAP1 PUSH2 0x100 EXP SWAP1 DIV PUSH20 0xFFFFFFFFFFFFFFFFFFFFFFFFFFFFFFFFFFFFFFFF AND PUSH20 0xFFFFFFFFFFFFFFFFFFFFFFFFFFFFFFFFFFFFFFFF AND PUSH2 0x17B3 SWAP1 SWAP4 SWAP3 SWAP2 SWAP1 PUSH4 0xFFFFFFFF AND JUMP JUMPDEST JUMPDEST PUSH1 0x0 DUP3 PUSH16 0xFFFFFFFFFFFFFFFFFFFFFFFFFFFFFFFF AND GT ISZERO PUSH2 0x1534 JUMPI PUSH2 0x1533 PUSH1 0x2 PUSH1 0x0 SWAP1 SLOAD SWAP1 PUSH2 0x100 EXP SWAP1 DIV PUSH20 0xFFFFFFFFFFFFFFFFFFFFFFFFFFFFFFFFFFFFFFFF AND DUP4 PUSH16 0xFFFFFFFFFFFFFFFFFFFFFFFFFFFFFFFF AND PUSH1 0x5 PUSH1 0x0 SWAP1 SLOAD SWAP1 PUSH2 0x100 EXP SWAP1 DIV PUSH20 0xFFFFFFFFFFFFFFFFFFFFFFFFFFFFFFFFFFFFFFFF AND PUSH20 0xFFFFFFFFFFFFFFFFFFFFFFFFFFFFFFFFFFFFFFFF AND PUSH2 0x183C SWAP1 SWAP3 SWAP2 SWAP1 PUSH4 0xFFFFFFFF AND JUMP JUMPDEST JUMPDEST PUSH1 0x0 DUP2 PUSH16 0xFFFFFFFFFFFFFFFFFFFFFFFFFFFFFFFF AND GT ISZERO PUSH2 0x15D1 JUMPI PUSH2 0x15D0 PUSH1 0x2 PUSH1 0x0 SWAP1 SLOAD SWAP1 PUSH2 0x100 EXP SWAP1 DIV PUSH20 0xFFFFFFFFFFFFFFFFFFFFFFFFFFFFFFFFFFFFFFFF AND DUP3 PUSH16 0xFFFFFFFFFFFFFFFFFFFFFFFFFFFFFFFF AND PUSH1 0x6 PUSH1 0x0 SWAP1 SLOAD SWAP1 PUSH2 0x100 EXP SWAP1 DIV PUSH20 0xFFFFFFFFFFFFFFFFFFFFFFFFFFFFFFFFFFFFFFFF AND PUSH20 0xFFFFFFFFFFFFFFFFFFFFFFFFFFFFFFFFFFFFFFFF AND PUSH2 0x183C SWAP1 SWAP3 SWAP2 SWAP1 PUSH4 0xFFFFFFFF AND JUMP JUMPDEST JUMPDEST PUSH1 0x0 DUP1 PUSH2 0x15DC PUSH2 0xE96 JUMP JUMPDEST SWAP2 POP SWAP2 POP PUSH1 0x7 PUSH1 0x10 SWAP1 SLOAD SWAP1 PUSH2 0x100 EXP SWAP1 DIV PUSH16 0xFFFFFFFFFFFFFFFFFFFFFFFFFFFFFFFF AND PUSH16 0xFFFFFFFFFFFFFFFFFFFFFFFFFFFFFFFF AND PUSH1 0x7 PUSH1 0x0 SWAP1 SLOAD SWAP1 PUSH2 0x100 EXP SWAP1 DIV PUSH16 0xFFFFFFFFFFFFFFFFFFFFFFFFFFFFFFFF AND PUSH16 0xFFFFFFFFFFFFFFFFFFFFFFFFFFFFFFFF AND PUSH2 0x164C SWAP2 SWAP1 PUSH2 0x261A JUMP JUMPDEST DUP2 PUSH1 0x7 PUSH1 0x0 SWAP1 SLOAD SWAP1 PUSH2 0x100 EXP SWAP1 DIV PUSH16 0xFFFFFFFFFFFFFFFFFFFFFFFFFFFFFFFF AND PUSH16 0xFFFFFFFFFFFFFFFFFFFFFFFFFFFFFFFF AND PUSH2 0x1688 SWAP2 SWAP1 PUSH2 0x261A JUMP JUMPDEST DUP4 PUSH1 0x7 PUSH1 0x10 SWAP1 SLOAD SWAP1 PUSH2 0x100 EXP SWAP1 DIV PUSH16 0xFFFFFFFFFFFFFFFFFFFFFFFFFFFFFFFF AND PUSH16 0xFFFFFFFFFFFFFFFFFFFFFFFFFFFFFFFF AND PUSH2 0x16C4 SWAP2 SWAP1 PUSH2 0x261A JUMP JUMPDEST PUSH2 0x16CE SWAP2 SWAP1 PUSH2 0x25C4 JUMP JUMPDEST LT ISZERO PUSH2 0x170F JUMPI PUSH1 0x40 MLOAD PUSH32 0x8C379A000000000000000000000000000000000000000000000000000000000 DUP2 MSTORE PUSH1 0x4 ADD PUSH2 0x1706 SWAP1 PUSH2 0x2353 JUMP JUMPDEST PUSH1 0x40 MLOAD DUP1 SWAP2 SUB SWAP1 REVERT JUMPDEST PUSH1 0x2 PUSH1 0x0 SWAP1 SLOAD SWAP1 PUSH2 0x100 EXP SWAP1 DIV PUSH20 0xFFFFFFFFFFFFFFFFFFFFFFFFFFFFFFFFFFFFFFFF AND PUSH20 0xFFFFFFFFFFFFFFFFFFFFFFFFFFFFFFFFFFFFFFFF AND PUSH32 0xB029EC0911DFD170DBC1992B48561B88A491EE3E92F0D20DC4FED6851E5125AF DUP8 DUP8 DUP8 DUP8 PUSH1 0x40 MLOAD PUSH2 0x177D SWAP5 SWAP4 SWAP3 SWAP2 SWAP1 PUSH2 0x24EE JUMP JUMPDEST PUSH1 0x40 MLOAD DUP1 SWAP2 SUB SWAP1 LOG2 POP POP POP POP POP POP JUMP JUMPDEST PUSH1 0x2 PUSH1 0x0 SWAP1 SLOAD SWAP1 PUSH2 0x100 EXP SWAP1 DIV PUSH20 0xFFFFFFFFFFFFFFFFFFFFFFFFFFFFFFFFFFFFFFFF AND DUP2 JUMP JUMPDEST PUSH2 0x1836 DUP5 PUSH4 0x23B872DD PUSH1 0xE0 SHL DUP6 DUP6 DUP6 PUSH1 0x40 MLOAD PUSH1 0x24 ADD PUSH2 0x17D4 SWAP4 SWAP3 SWAP2 SWAP1 PUSH2 0x2236 JUMP JUMPDEST PUSH1 0x40 MLOAD PUSH1 0x20 DUP2 DUP4 SUB SUB DUP2 MSTORE SWAP1 PUSH1 0x40 MSTORE SWAP1 PUSH28 0xFFFFFFFFFFFFFFFFFFFFFFFFFFFFFFFFFFFFFFFFFFFFFFFFFFFFFFFF NOT AND PUSH1 0x20 DUP3 ADD DUP1 MLOAD PUSH28 0xFFFFFFFFFFFFFFFFFFFFFFFFFFFFFFFFFFFFFFFFFFFFFFFFFFFFFFFF DUP4 DUP2 DUP4 AND OR DUP4 MSTORE POP POP POP POP PUSH2 0x1A72 JUMP JUMPDEST POP POP POP POP JUMP JUMPDEST PUSH2 0x18BD DUP4 PUSH4 0xA9059CBB PUSH1 0xE0 SHL DUP5 DUP5 PUSH1 0x40 MLOAD PUSH1 0x24 ADD PUSH2 0x185B SWAP3 SWAP2 SWAP1 PUSH2 0x226D JUMP JUMPDEST PUSH1 0x40 MLOAD PUSH1 0x20 DUP2 DUP4 SUB SUB DUP2 MSTORE SWAP1 PUSH1 0x40 MSTORE SWAP1 PUSH28 0xFFFFFFFFFFFFFFFFFFFFFFFFFFFFFFFFFFFFFFFFFFFFFFFFFFFFFFFF NOT AND PUSH1 0x20 DUP3 ADD DUP1 MLOAD PUSH28 0xFFFFFFFFFFFFFFFFFFFFFFFFFFFFFFFFFFFFFFFFFFFFFFFFFFFFFFFF DUP4 DUP2 DUP4 AND OR DUP4 MSTORE POP POP POP POP PUSH2 0x1A72 JUMP JUMPDEST POP POP POP JUMP JUMPDEST PUSH1 0x0 DUP1 SLOAD SWAP1 PUSH2 0x100 EXP SWAP1 DIV PUSH20 0xFFFFFFFFFFFFFFFFFFFFFFFFFFFFFFFFFFFFFFFF AND PUSH20 0xFFFFFFFFFFFFFFFFFFFFFFFFFFFFFFFFFFFFFFFF AND PUSH4 0xC8BCA060 PUSH1 0x40 MLOAD DUP2 PUSH4 0xFFFFFFFF AND PUSH1 0xE0 SHL DUP2 MSTORE PUSH1 0x4 ADD PUSH1 0x0 PUSH1 0x40 MLOAD DUP1 DUP4 SUB DUP2 PUSH1 0x0 DUP8 DUP1 EXTCODESIZE ISZERO DUP1 ISZERO PUSH2 0x192A JUMPI PUSH1 0x0 DUP1 REVERT JUMPDEST POP GAS CALL ISZERO DUP1 ISZERO PUSH2 0x193E JUMPI RETURNDATASIZE PUSH1 0x0 DUP1 RETURNDATACOPY RETURNDATASIZE PUSH1 0x0 REVERT JUMPDEST POP POP POP POP PUSH1 0x1 PUSH1 0x0 SWAP1 SLOAD SWAP1 PUSH2 0x100 EXP SWAP1 DIV PUSH20 0xFFFFFFFFFFFFFFFFFFFFFFFFFFFFFFFFFFFFFFFF AND PUSH20 0xFFFFFFFFFFFFFFFFFFFFFFFFFFFFFFFFFFFFFFFF AND PUSH4 0x9B08E8FC PUSH1 0x0 DUP1 SLOAD SWAP1 PUSH2 0x100 EXP SWAP1 DIV PUSH20 0xFFFFFFFFFFFFFFFFFFFFFFFFFFFFFFFFFFFFFFFF AND PUSH1 0x40 MLOAD DUP3 PUSH4 0xFFFFFFFF AND PUSH1 0xE0 SHL DUP2 MSTORE PUSH1 0x4 ADD PUSH2 0x19BD SWAP2 SWAP1 PUSH2 0x221B JUMP JUMPDEST PUSH1 0x0 PUSH1 0x40 MLOAD DUP1 DUP4 SUB DUP2 PUSH1 0x0 DUP8 DUP1 EXTCODESIZE ISZERO DUP1 ISZERO PUSH2 0x19D7 JUMPI PUSH1 0x0 DUP1 REVERT JUMPDEST POP GAS CALL ISZERO DUP1 ISZERO PUSH2 0x19EB JUMPI RETURNDATASIZE PUSH1 0x0 DUP1 RETURNDATACOPY RETURNDATASIZE PUSH1 0x0 REVERT JUMPDEST POP POP POP POP ADDRESS PUSH1 0x0 DUP1 PUSH2 0x100 EXP DUP2 SLOAD DUP2 PUSH20 0xFFFFFFFFFFFFFFFFFFFFFFFFFFFFFFFFFFFFFFFF MUL NOT AND SWAP1 DUP4 PUSH20 0xFFFFFFFFFFFFFFFFFFFFFFFFFFFFFFFFFFFFFFFF AND MUL OR SWAP1 SSTORE POP ADDRESS PUSH1 0x1 PUSH1 0x0 PUSH2 0x100 EXP DUP2 SLOAD DUP2 PUSH20 0xFFFFFFFFFFFFFFFFFFFFFFFFFFFFFFFFFFFFFFFF MUL NOT AND SWAP1 DUP4 PUSH20 0xFFFFFFFFFFFFFFFFFFFFFFFFFFFFFFFFFFFFFFFF AND MUL OR SWAP1 SSTORE POP JUMP JUMPDEST PUSH1 0x0 PUSH2 0x1AD4 DUP3 PUSH1 0x40 MLOAD DUP1 PUSH1 0x40 ADD PUSH1 0x40 MSTORE DUP1 PUSH1 0x20 DUP2 MSTORE PUSH1 0x20 ADD PUSH32 0x5361666545524332303A206C6F772D6C6576656C2063616C6C206661696C6564 DUP2 MSTORE POP DUP6 PUSH20 0xFFFFFFFFFFFFFFFFFFFFFFFFFFFFFFFFFFFFFFFF AND PUSH2 0x1B39 SWAP1 SWAP3 SWAP2 SWAP1 PUSH4 0xFFFFFFFF AND JUMP JUMPDEST SWAP1 POP PUSH1 0x0 DUP2 MLOAD GT ISZERO PUSH2 0x1B34 JUMPI DUP1 DUP1 PUSH1 0x20 ADD SWAP1 MLOAD DUP2 ADD SWAP1 PUSH2 0x1AF4 SWAP2 SWAP1 PUSH2 0x1DB7 JUMP JUMPDEST PUSH2 0x1B33 JUMPI PUSH1 0x40 MLOAD PUSH32 0x8C379A000000000000000000000000000000000000000000000000000000000 DUP2 MSTORE PUSH1 0x4 ADD PUSH2 0x1B2A SWAP1 PUSH2 0x2473 JUMP JUMPDEST PUSH1 0x40 MLOAD DUP1 SWAP2 SUB SWAP1 REVERT JUMPDEST JUMPDEST POP POP POP JUMP JUMPDEST PUSH1 0x60 PUSH2 0x1B48 DUP5 DUP5 PUSH1 0x0 DUP6 PUSH2 0x1B51 JUMP JUMPDEST SWAP1 POP SWAP4 SWAP3 POP POP POP JUMP JUMPDEST PUSH1 0x60 DUP3 SELFBALANCE LT ISZERO PUSH2 0x1B96 JUMPI PUSH1 0x40 MLOAD PUSH32 0x8C379A000000000000000000000000000000000000000000000000000000000 DUP2 MSTORE PUSH1 0x4 ADD PUSH2 0x1B8D SWAP1 PUSH2 0x2393 JUMP JUMPDEST PUSH1 0x40 MLOAD DUP1 SWAP2 SUB SWAP1 REVERT JUMPDEST PUSH2 0x1B9F DUP6 PUSH2 0x1C65 JUMP JUMPDEST PUSH2 0x1BDE JUMPI PUSH1 0x40 MLOAD PUSH32 0x8C379A000000000000000000000000000000000000000000000000000000000 DUP2 MSTORE PUSH1 0x4 ADD PUSH2 0x1BD5 SWAP1 PUSH2 0x2433 JUMP JUMPDEST PUSH1 0x40 MLOAD DUP1 SWAP2 SUB SWAP1 REVERT JUMPDEST PUSH1 0x0 DUP1 DUP7 PUSH20 0xFFFFFFFFFFFFFFFFFFFFFFFFFFFFFFFFFFFFFFFF AND DUP6 DUP8 PUSH1 0x40 MLOAD PUSH2 0x1C07 SWAP2 SWAP1 PUSH2 0x2204 JUMP JUMPDEST PUSH1 0x0 PUSH1 0x40 MLOAD DUP1 DUP4 SUB DUP2 DUP6 DUP8 GAS CALL SWAP3 POP POP POP RETURNDATASIZE DUP1 PUSH1 0x0 DUP2 EQ PUSH2 0x1C44 JUMPI PUSH1 0x40 MLOAD SWAP2 POP PUSH1 0x1F NOT PUSH1 0x3F RETURNDATASIZE ADD AND DUP3 ADD PUSH1 0x40 MSTORE RETURNDATASIZE DUP3 MSTORE RETURNDATASIZE PUSH1 0x0 PUSH1 0x20 DUP5 ADD RETURNDATACOPY PUSH2 0x1C49 JUMP JUMPDEST PUSH1 0x60 SWAP2 POP JUMPDEST POP SWAP2 POP SWAP2 POP PUSH2 0x1C59 DUP3 DUP3 DUP7 PUSH2 0x1C78 JUMP JUMPDEST SWAP3 POP POP POP SWAP5 SWAP4 POP POP POP POP JUMP JUMPDEST PUSH1 0x0 DUP1 DUP3 EXTCODESIZE SWAP1 POP PUSH1 0x0 DUP2 GT SWAP2 POP POP SWAP2 SWAP1 POP JUMP JUMPDEST PUSH1 0x60 DUP4 ISZERO PUSH2 0x1C88 JUMPI DUP3 SWAP1 POP PUSH2 0x1CD8 JUMP JUMPDEST PUSH1 0x0 DUP4 MLOAD GT ISZERO PUSH2 0x1C9B JUMPI DUP3 MLOAD DUP1 DUP5 PUSH1 0x20 ADD REVERT JUMPDEST DUP2 PUSH1 0x40 MLOAD PUSH32 0x8C379A000000000000000000000000000000000000000000000000000000000 DUP2 MSTORE PUSH1 0x4 ADD PUSH2 0x1CCF SWAP2 SWAP1 PUSH2 0x22B1 JUMP JUMPDEST PUSH1 0x40 MLOAD DUP1 SWAP2 SUB SWAP1 REVERT JUMPDEST SWAP4 SWAP3 POP POP POP JUMP JUMPDEST PUSH1 0x0 DUP2 CALLDATALOAD SWAP1 POP PUSH2 0x1CEE DUP2 PUSH2 0x2B83 JUMP JUMPDEST SWAP3 SWAP2 POP POP JUMP JUMPDEST PUSH1 0x0 DUP2 MLOAD SWAP1 POP PUSH2 0x1D03 DUP2 PUSH2 0x2B83 JUMP JUMPDEST SWAP3 SWAP2 POP POP JUMP JUMPDEST PUSH1 0x0 DUP2 MLOAD SWAP1 POP PUSH2 0x1D18 DUP2 PUSH2 0x2B9A JUMP JUMPDEST SWAP3 SWAP2 POP POP JUMP JUMPDEST PUSH1 0x0 DUP2 CALLDATALOAD SWAP1 POP PUSH2 0x1D2D DUP2 PUSH2 0x2BB1 JUMP JUMPDEST SWAP3 SWAP2 POP POP JUMP JUMPDEST PUSH1 0x0 DUP2 MLOAD SWAP1 POP PUSH2 0x1D42 DUP2 PUSH2 0x2BC8 JUMP JUMPDEST SWAP3 SWAP2 POP POP JUMP JUMPDEST PUSH1 0x0 DUP2 CALLDATALOAD SWAP1 POP PUSH2 0x1D57 DUP2 PUSH2 0x2BDF JUMP JUMPDEST SWAP3 SWAP2 POP POP JUMP JUMPDEST PUSH1 0x0 PUSH1 0x20 DUP3 DUP5 SUB SLT ISZERO PUSH2 0x1D73 JUMPI PUSH2 0x1D72 PUSH2 0x27AD JUMP JUMPDEST JUMPDEST PUSH1 0x0 PUSH2 0x1D81 DUP5 DUP3 DUP6 ADD PUSH2 0x1CDF JUMP JUMPDEST SWAP2 POP POP SWAP3 SWAP2 POP POP JUMP JUMPDEST PUSH1 0x0 PUSH1 0x20 DUP3 DUP5 SUB SLT ISZERO PUSH2 0x1DA0 JUMPI PUSH2 0x1D9F PUSH2 0x27AD JUMP JUMPDEST JUMPDEST PUSH1 0x0 PUSH2 0x1DAE DUP5 DUP3 DUP6 ADD PUSH2 0x1CF4 JUMP JUMPDEST SWAP2 POP POP SWAP3 SWAP2 POP POP JUMP JUMPDEST PUSH1 0x0 PUSH1 0x20 DUP3 DUP5 SUB SLT ISZERO PUSH2 0x1DCD JUMPI PUSH2 0x1DCC PUSH2 0x27AD JUMP JUMPDEST JUMPDEST PUSH1 0x0 PUSH2 0x1DDB DUP5 DUP3 DUP6 ADD PUSH2 0x1D09 JUMP JUMPDEST SWAP2 POP POP SWAP3 SWAP2 POP POP JUMP JUMPDEST PUSH1 0x0 DUP1 PUSH1 0x0 DUP1 PUSH1 0x80 DUP6 DUP8 SUB SLT ISZERO PUSH2 0x1DFE JUMPI PUSH2 0x1DFD PUSH2 0x27AD JUMP JUMPDEST JUMPDEST PUSH1 0x0 PUSH2 0x1E0C DUP8 DUP3 DUP9 ADD PUSH2 0x1D1E JUMP JUMPDEST SWAP5 POP POP PUSH1 0x20 PUSH2 0x1E1D DUP8 DUP3 DUP9 ADD PUSH2 0x1D1E JUMP JUMPDEST SWAP4 POP POP PUSH1 0x40 PUSH2 0x1E2E DUP8 DUP3 DUP9 ADD PUSH2 0x1D1E JUMP JUMPDEST SWAP3 POP POP PUSH1 0x60 PUSH2 0x1E3F DUP8 DUP3 DUP9 ADD PUSH2 0x1D1E JUMP JUMPDEST SWAP2 POP POP SWAP3 SWAP6 SWAP2 SWAP5 POP SWAP3 POP JUMP JUMPDEST PUSH1 0x0 DUP1 PUSH1 0x40 DUP4 DUP6 SUB SLT ISZERO PUSH2 0x1E62 JUMPI PUSH2 0x1E61 PUSH2 0x27AD JUMP JUMPDEST JUMPDEST PUSH1 0x0 PUSH2 0x1E70 DUP6 DUP3 DUP7 ADD PUSH2 0x1D1E JUMP JUMPDEST SWAP3 POP POP PUSH1 0x20 PUSH2 0x1E81 DUP6 DUP3 DUP7 ADD PUSH2 0x1D48 JUMP JUMPDEST SWAP2 POP POP SWAP3 POP SWAP3 SWAP1 POP JUMP JUMPDEST PUSH1 0x0 PUSH1 0x20 DUP3 DUP5 SUB SLT ISZERO PUSH2 0x1EA1 JUMPI PUSH2 0x1EA0 PUSH2 0x27AD JUMP JUMPDEST JUMPDEST PUSH1 0x0 PUSH2 0x1EAF DUP5 DUP3 DUP6 ADD PUSH2 0x1D33 JUMP JUMPDEST SWAP2 POP POP SWAP3 SWAP2 POP POP JUMP JUMPDEST PUSH1 0x0 DUP1 PUSH1 0x0 DUP1 PUSH1 0x80 DUP6 DUP8 SUB SLT ISZERO PUSH2 0x1ED2 JUMPI PUSH2 0x1ED1 PUSH2 0x27AD JUMP JUMPDEST JUMPDEST PUSH1 0x0 PUSH2 0x1EE0 DUP8 DUP3 DUP9 ADD PUSH2 0x1D48 JUMP JUMPDEST SWAP5 POP POP PUSH1 0x20 PUSH2 0x1EF1 DUP8 DUP3 DUP9 ADD PUSH2 0x1D1E JUMP JUMPDEST SWAP4 POP POP PUSH1 0x40 PUSH2 0x1F02 DUP8 DUP3 DUP9 ADD PUSH2 0x1D1E JUMP JUMPDEST SWAP3 POP POP PUSH1 0x60 PUSH2 0x1F13 DUP8 DUP3 DUP9 ADD PUSH2 0x1D1E JUMP JUMPDEST SWAP2 POP POP SWAP3 SWAP6 SWAP2 SWAP5 POP SWAP3 POP JUMP JUMPDEST PUSH2 0x1F28 DUP2 PUSH2 0x2674 JUMP JUMPDEST DUP3 MSTORE POP POP JUMP JUMPDEST PUSH1 0x0 PUSH2 0x1F39 DUP3 PUSH2 0x2592 JUMP JUMPDEST PUSH2 0x1F43 DUP2 DUP6 PUSH2 0x25A8 JUMP JUMPDEST SWAP4 POP PUSH2 0x1F53 DUP2 DUP6 PUSH1 0x20 DUP7 ADD PUSH2 0x271E JUMP JUMPDEST DUP1 DUP5 ADD SWAP2 POP POP SWAP3 SWAP2 POP POP JUMP JUMPDEST PUSH2 0x1F68 DUP2 PUSH2 0x26E8 JUMP JUMPDEST DUP3 MSTORE POP POP JUMP JUMPDEST PUSH1 0x0 PUSH2 0x1F79 DUP3 PUSH2 0x259D JUMP JUMPDEST PUSH2 0x1F83 DUP2 DUP6 PUSH2 0x25B3 JUMP JUMPDEST SWAP4 POP PUSH2 0x1F93 DUP2 DUP6 PUSH1 0x20 DUP7 ADD PUSH2 0x271E JUMP JUMPDEST PUSH2 0x1F9C DUP2 PUSH2 0x27B2 JUMP JUMPDEST DUP5 ADD SWAP2 POP POP SWAP3 SWAP2 POP POP JUMP JUMPDEST PUSH1 0x0 PUSH2 0x1FB4 PUSH1 0x23 DUP4 PUSH2 0x25B3 JUMP JUMPDEST SWAP2 POP PUSH2 0x1FBF DUP3 PUSH2 0x27C3 JUMP JUMPDEST PUSH1 0x40 DUP3 ADD SWAP1 POP SWAP2 SWAP1 POP JUMP JUMPDEST PUSH1 0x0 PUSH2 0x1FD7 PUSH1 0x25 DUP4 PUSH2 0x25B3 JUMP JUMPDEST SWAP2 POP PUSH2 0x1FE2 DUP3 PUSH2 0x2812 JUMP JUMPDEST PUSH1 0x40 DUP3 ADD SWAP1 POP SWAP2 SWAP1 POP JUMP JUMPDEST PUSH1 0x0 PUSH2 0x1FFA PUSH1 0xE DUP4 PUSH2 0x25B3 JUMP JUMPDEST SWAP2 POP PUSH2 0x2005 DUP3 PUSH2 0x2861 JUMP JUMPDEST PUSH1 0x20 DUP3 ADD SWAP1 POP SWAP2 SWAP1 POP JUMP JUMPDEST PUSH1 0x0 PUSH2 0x201D PUSH1 0x24 DUP4 PUSH2 0x25B3 JUMP JUMPDEST SWAP2 POP PUSH2 0x2028 DUP3 PUSH2 0x288A JUMP JUMPDEST PUSH1 0x40 DUP3 ADD SWAP1 POP SWAP2 SWAP1 POP JUMP JUMPDEST PUSH1 0x0 PUSH2 0x2040 PUSH1 0x16 DUP4 PUSH2 0x25B3 JUMP JUMPDEST SWAP2 POP PUSH2 0x204B DUP3 PUSH2 0x28D9 JUMP JUMPDEST PUSH1 0x20 DUP3 ADD SWAP1 POP SWAP2 SWAP1 POP JUMP JUMPDEST PUSH1 0x0 PUSH2 0x2063 PUSH1 0x1D DUP4 PUSH2 0x25B3 JUMP JUMPDEST SWAP2 POP PUSH2 0x206E DUP3 PUSH2 0x2902 JUMP JUMPDEST PUSH1 0x20 DUP3 ADD SWAP1 POP SWAP2 SWAP1 POP JUMP JUMPDEST PUSH1 0x0 PUSH2 0x2086 PUSH1 0x26 DUP4 PUSH2 0x25B3 JUMP JUMPDEST SWAP2 POP PUSH2 0x2091 DUP3 PUSH2 0x292B JUMP JUMPDEST PUSH1 0x40 DUP3 ADD SWAP1 POP SWAP2 SWAP1 POP JUMP JUMPDEST PUSH1 0x0 PUSH2 0x20A9 PUSH1 0xD DUP4 PUSH2 0x25B3 JUMP JUMPDEST SWAP2 POP PUSH2 0x20B4 DUP3 PUSH2 0x297A JUMP JUMPDEST PUSH1 0x20 DUP3 ADD SWAP1 POP SWAP2 SWAP1 POP JUMP JUMPDEST PUSH1 0x0 PUSH2 0x20CC PUSH1 0x1B DUP4 PUSH2 0x25B3 JUMP JUMPDEST SWAP2 POP PUSH2 0x20D7 DUP3 PUSH2 0x29A3 JUMP JUMPDEST PUSH1 0x20 DUP3 ADD SWAP1 POP SWAP2 SWAP1 POP JUMP JUMPDEST PUSH1 0x0 PUSH2 0x20EF PUSH1 0x2F DUP4 PUSH2 0x25B3 JUMP JUMPDEST SWAP2 POP PUSH2 0x20FA DUP3 PUSH2 0x29CC JUMP JUMPDEST PUSH1 0x40 DUP3 ADD SWAP1 POP SWAP2 SWAP1 POP JUMP JUMPDEST PUSH1 0x0 PUSH2 0x2112 PUSH1 0x24 DUP4 PUSH2 0x25B3 JUMP JUMPDEST SWAP2 POP PUSH2 0x211D DUP3 PUSH2 0x2A1B JUMP JUMPDEST PUSH1 0x40 DUP3 ADD SWAP1 POP SWAP2 SWAP1 POP JUMP JUMPDEST PUSH1 0x0 PUSH2 0x2135 PUSH1 0x1D DUP4 PUSH2 0x25B3 JUMP JUMPDEST SWAP2 POP PUSH2 0x2140 DUP3 PUSH2 0x2A6A JUMP JUMPDEST PUSH1 0x20 DUP3 ADD SWAP1 POP SWAP2 SWAP1 POP JUMP JUMPDEST PUSH1 0x0 PUSH2 0x2158 PUSH1 0x14 DUP4 PUSH2 0x25B3 JUMP JUMPDEST SWAP2 POP PUSH2 0x2163 DUP3 PUSH2 0x2A93 JUMP JUMPDEST PUSH1 0x20 DUP3 ADD SWAP1 POP SWAP2 SWAP1 POP JUMP JUMPDEST PUSH1 0x0 PUSH2 0x217B PUSH1 0x2A DUP4 PUSH2 0x25B3 JUMP JUMPDEST SWAP2 POP PUSH2 0x2186 DUP3 PUSH2 0x2ABC JUMP JUMPDEST PUSH1 0x40 DUP3 ADD SWAP1 POP SWAP2 SWAP1 POP JUMP JUMPDEST PUSH1 0x0 PUSH2 0x219E PUSH1 0x15 DUP4 PUSH2 0x25B3 JUMP JUMPDEST SWAP2 POP PUSH2 0x21A9 DUP3 PUSH2 0x2B0B JUMP JUMPDEST PUSH1 0x20 DUP3 ADD SWAP1 POP SWAP2 SWAP1 POP JUMP JUMPDEST PUSH1 0x0 PUSH2 0x21C1 PUSH1 0x2D DUP4 PUSH2 0x25B3 JUMP JUMPDEST SWAP2 POP PUSH2 0x21CC DUP3 PUSH2 0x2B34 JUMP JUMPDEST PUSH1 0x40 DUP3 ADD SWAP1 POP SWAP2 SWAP1 POP JUMP JUMPDEST PUSH2 0x21E0 DUP2 PUSH2 0x2692 JUMP JUMPDEST DUP3 MSTORE POP POP JUMP JUMPDEST PUSH2 0x21EF DUP2 PUSH2 0x26CE JUMP JUMPDEST DUP3 MSTORE POP POP JUMP JUMPDEST PUSH2 0x21FE DUP2 PUSH2 0x26D8 JUMP JUMPDEST DUP3 MSTORE POP POP JUMP JUMPDEST PUSH1 0x0 PUSH2 0x2210 DUP3 DUP5 PUSH2 0x1F2E JUMP JUMPDEST SWAP2 POP DUP2 SWAP1 POP SWAP3 SWAP2 POP POP JUMP JUMPDEST PUSH1 0x0 PUSH1 0x20 DUP3 ADD SWAP1 POP PUSH2 0x2230 PUSH1 0x0 DUP4 ADD DUP5 PUSH2 0x1F1F JUMP JUMPDEST SWAP3 SWAP2 POP POP JUMP JUMPDEST PUSH1 0x0 PUSH1 0x60 DUP3 ADD SWAP1 POP PUSH2 0x224B PUSH1 0x0 DUP4 ADD DUP7 PUSH2 0x1F1F JUMP JUMPDEST PUSH2 0x2258 PUSH1 0x20 DUP4 ADD DUP6 PUSH2 0x1F1F JUMP JUMPDEST PUSH2 0x2265 PUSH1 0x40 DUP4 ADD DUP5 PUSH2 0x21E6 JUMP JUMPDEST SWAP5 SWAP4 POP POP POP POP JUMP JUMPDEST PUSH1 0x0 PUSH1 0x40 DUP3 ADD SWAP1 POP PUSH2 0x2282 PUSH1 0x0 DUP4 ADD DUP6 PUSH2 0x1F1F JUMP JUMPDEST PUSH2 0x228F PUSH1 0x20 DUP4 ADD DUP5 PUSH2 0x21E6 JUMP JUMPDEST SWAP4 SWAP3 POP POP POP JUMP JUMPDEST PUSH1 0x0 PUSH1 0x20 DUP3 ADD SWAP1 POP PUSH2 0x22AB PUSH1 0x0 DUP4 ADD DUP5 PUSH2 0x1F5F JUMP JUMPDEST SWAP3 SWAP2 POP POP JUMP JUMPDEST PUSH1 0x0 PUSH1 0x20 DUP3 ADD SWAP1 POP DUP2 DUP2 SUB PUSH1 0x0 DUP4 ADD MSTORE PUSH2 0x22CB DUP2 DUP5 PUSH2 0x1F6E JUMP JUMPDEST SWAP1 POP SWAP3 SWAP2 POP POP JUMP JUMPDEST PUSH1 0x0 PUSH1 0x20 DUP3 ADD SWAP1 POP DUP2 DUP2 SUB PUSH1 0x0 DUP4 ADD MSTORE PUSH2 0x22EC DUP2 PUSH2 0x1FA7 JUMP JUMPDEST SWAP1 POP SWAP2 SWAP1 POP JUMP JUMPDEST PUSH1 0x0 PUSH1 0x20 DUP3 ADD SWAP1 POP DUP2 DUP2 SUB PUSH1 0x0 DUP4 ADD MSTORE PUSH2 0x230C DUP2 PUSH2 0x1FCA JUMP JUMPDEST SWAP1 POP SWAP2 SWAP1 POP JUMP JUMPDEST PUSH1 0x0 PUSH1 0x20 DUP3 ADD SWAP1 POP DUP2 DUP2 SUB PUSH1 0x0 DUP4 ADD MSTORE PUSH2 0x232C DUP2 PUSH2 0x1FED JUMP JUMPDEST SWAP1 POP SWAP2 SWAP1 POP JUMP JUMPDEST PUSH1 0x0 PUSH1 0x20 DUP3 ADD SWAP1 POP DUP2 DUP2 SUB PUSH1 0x0 DUP4 ADD MSTORE PUSH2 0x234C DUP2 PUSH2 0x2010 JUMP JUMPDEST SWAP1 POP SWAP2 SWAP1 POP JUMP JUMPDEST PUSH1 0x0 PUSH1 0x20 DUP3 ADD SWAP1 POP DUP2 DUP2 SUB PUSH1 0x0 DUP4 ADD MSTORE PUSH2 0x236C DUP2 PUSH2 0x2033 JUMP JUMPDEST SWAP1 POP SWAP2 SWAP1 POP JUMP JUMPDEST PUSH1 0x0 PUSH1 0x20 DUP3 ADD SWAP1 POP DUP2 DUP2 SUB PUSH1 0x0 DUP4 ADD MSTORE PUSH2 0x238C DUP2 PUSH2 0x2056 JUMP JUMPDEST SWAP1 POP SWAP2 SWAP1 POP JUMP JUMPDEST PUSH1 0x0 PUSH1 0x20 DUP3 ADD SWAP1 POP DUP2 DUP2 SUB PUSH1 0x0 DUP4 ADD MSTORE PUSH2 0x23AC DUP2 PUSH2 0x2079 JUMP JUMPDEST SWAP1 POP SWAP2 SWAP1 POP JUMP JUMPDEST PUSH1 0x0 PUSH1 0x20 DUP3 ADD SWAP1 POP DUP2 DUP2 SUB PUSH1 0x0 DUP4 ADD MSTORE PUSH2 0x23CC DUP2 PUSH2 0x209C JUMP JUMPDEST SWAP1 POP SWAP2 SWAP1 POP JUMP JUMPDEST PUSH1 0x0 PUSH1 0x20 DUP3 ADD SWAP1 POP DUP2 DUP2 SUB PUSH1 0x0 DUP4 ADD MSTORE PUSH2 0x23EC DUP2 PUSH2 0x20BF JUMP JUMPDEST SWAP1 POP SWAP2 SWAP1 POP JUMP JUMPDEST PUSH1 0x0 PUSH1 0x20 DUP3 ADD SWAP1 POP DUP2 DUP2 SUB PUSH1 0x0 DUP4 ADD MSTORE PUSH2 0x240C DUP2 PUSH2 0x20E2 JUMP JUMPDEST SWAP1 POP SWAP2 SWAP1 POP JUMP JUMPDEST PUSH1 0x0 PUSH1 0x20 DUP3 ADD SWAP1 POP DUP2 DUP2 SUB PUSH1 0x0 DUP4 ADD MSTORE PUSH2 0x242C DUP2 PUSH2 0x2105 JUMP JUMPDEST SWAP1 POP SWAP2 SWAP1 POP JUMP JUMPDEST PUSH1 0x0 PUSH1 0x20 DUP3 ADD SWAP1 POP DUP2 DUP2 SUB PUSH1 0x0 DUP4 ADD MSTORE PUSH2 0x244C DUP2 PUSH2 0x2128 JUMP JUMPDEST SWAP1 POP SWAP2 SWAP1 POP JUMP JUMPDEST PUSH1 0x0 PUSH1 0x20 DUP3 ADD SWAP1 POP DUP2 DUP2 SUB PUSH1 0x0 DUP4 ADD MSTORE PUSH2 0x246C DUP2 PUSH2 0x214B JUMP JUMPDEST SWAP1 POP SWAP2 SWAP1 POP JUMP JUMPDEST PUSH1 0x0 PUSH1 0x20 DUP3 ADD SWAP1 POP DUP2 DUP2 SUB PUSH1 0x0 DUP4 ADD MSTORE PUSH2 0x248C DUP2 PUSH2 0x216E JUMP JUMPDEST SWAP1 POP SWAP2 SWAP1 POP JUMP JUMPDEST PUSH1 0x0 PUSH1 0x20 DUP3 ADD SWAP1 POP DUP2 DUP2 SUB PUSH1 0x0 DUP4 ADD MSTORE PUSH2 0x24AC DUP2 PUSH2 0x2191 JUMP JUMPDEST SWAP1 POP SWAP2 SWAP1 POP JUMP JUMPDEST PUSH1 0x0 PUSH1 0x20 DUP3 ADD SWAP1 POP DUP2 DUP2 SUB PUSH1 0x0 DUP4 ADD MSTORE PUSH2 0x24CC DUP2 PUSH2 0x21B4 JUMP JUMPDEST SWAP1 POP SWAP2 SWAP1 POP JUMP JUMPDEST PUSH1 0x0 PUSH1 0x20 DUP3 ADD SWAP1 POP PUSH2 0x24E8 PUSH1 0x0 DUP4 ADD DUP5 PUSH2 0x21D7 JUMP JUMPDEST SWAP3 SWAP2 POP POP JUMP JUMPDEST PUSH1 0x0 PUSH1 0x80 DUP3 ADD SWAP1 POP PUSH2 0x2503 PUSH1 0x0 DUP4 ADD DUP8 PUSH2 0x21D7 JUMP JUMPDEST PUSH2 0x2510 PUSH1 0x20 DUP4 ADD DUP7 PUSH2 0x21D7 JUMP JUMPDEST PUSH2 0x251D PUSH1 0x40 DUP4 ADD DUP6 PUSH2 0x21D7 JUMP JUMPDEST PUSH2 0x252A PUSH1 0x60 DUP4 ADD DUP5 PUSH2 0x21D7 JUMP JUMPDEST SWAP6 SWAP5 POP POP POP POP POP JUMP JUMPDEST PUSH1 0x0 PUSH1 0x20 DUP3 ADD SWAP1 POP PUSH2 0x2548 PUSH1 0x0 DUP4 ADD DUP5 PUSH2 0x21E6 JUMP JUMPDEST SWAP3 SWAP2 POP POP JUMP JUMPDEST PUSH1 0x0 PUSH1 0x40 DUP3 ADD SWAP1 POP PUSH2 0x2563 PUSH1 0x0 DUP4 ADD DUP6 PUSH2 0x21E6 JUMP JUMPDEST PUSH2 0x2570 PUSH1 0x20 DUP4 ADD DUP5 PUSH2 0x21E6 JUMP JUMPDEST SWAP4 SWAP3 POP POP POP JUMP JUMPDEST PUSH1 0x0 PUSH1 0x20 DUP3 ADD SWAP1 POP PUSH2 0x258C PUSH1 0x0 DUP4 ADD DUP5 PUSH2 0x21F5 JUMP JUMPDEST SWAP3 SWAP2 POP POP JUMP JUMPDEST PUSH1 0x0 DUP2 MLOAD SWAP1 POP SWAP2 SWAP1 POP JUMP JUMPDEST PUSH1 0x0 DUP2 MLOAD SWAP1 POP SWAP2 SWAP1 POP JUMP JUMPDEST PUSH1 0x0 DUP2 SWAP1 POP SWAP3 SWAP2 POP POP JUMP JUMPDEST PUSH1 0x0 DUP3 DUP3 MSTORE PUSH1 0x20 DUP3 ADD SWAP1 POP SWAP3 SWAP2 POP POP JUMP JUMPDEST PUSH1 0x0 PUSH2 0x25CF DUP3 PUSH2 0x26CE JUMP JUMPDEST SWAP2 POP PUSH2 0x25DA DUP4 PUSH2 0x26CE JUMP JUMPDEST SWAP3 POP DUP3 PUSH32 0xFFFFFFFFFFFFFFFFFFFFFFFFFFFFFFFFFFFFFFFFFFFFFFFFFFFFFFFFFFFFFFFF SUB DUP3 GT ISZERO PUSH2 0x260F JUMPI PUSH2 0x260E PUSH2 0x277E JUMP JUMPDEST JUMPDEST DUP3 DUP3 ADD SWAP1 POP SWAP3 SWAP2 POP POP JUMP JUMPDEST PUSH1 0x0 PUSH2 0x2625 DUP3 PUSH2 0x26CE JUMP JUMPDEST SWAP2 POP PUSH2 0x2630 DUP4 PUSH2 0x26CE JUMP JUMPDEST SWAP3 POP DUP2 PUSH32 0xFFFFFFFFFFFFFFFFFFFFFFFFFFFFFFFFFFFFFFFFFFFFFFFFFFFFFFFFFFFFFFFF DIV DUP4 GT DUP3 ISZERO ISZERO AND ISZERO PUSH2 0x2669 JUMPI PUSH2 0x2668 PUSH2 0x277E JUMP JUMPDEST JUMPDEST DUP3 DUP3 MUL SWAP1 POP SWAP3 SWAP2 POP POP JUMP JUMPDEST PUSH1 0x0 PUSH2 0x267F DUP3 PUSH2 0x26AE JUMP JUMPDEST SWAP1 POP SWAP2 SWAP1 POP JUMP JUMPDEST PUSH1 0x0 DUP2 ISZERO ISZERO SWAP1 POP SWAP2 SWAP1 POP JUMP JUMPDEST PUSH1 0x0 PUSH16 0xFFFFFFFFFFFFFFFFFFFFFFFFFFFFFFFF DUP3 AND SWAP1 POP SWAP2 SWAP1 POP JUMP JUMPDEST PUSH1 0x0 PUSH20 0xFFFFFFFFFFFFFFFFFFFFFFFFFFFFFFFFFFFFFFFF DUP3 AND SWAP1 POP SWAP2 SWAP1 POP JUMP JUMPDEST PUSH1 0x0 DUP2 SWAP1 POP SWAP2 SWAP1 POP JUMP JUMPDEST PUSH1 0x0 PUSH4 0xFFFFFFFF DUP3 AND SWAP1 POP SWAP2 SWAP1 POP JUMP JUMPDEST PUSH1 0x0 PUSH2 0x26F3 DUP3 PUSH2 0x26FA JUMP JUMPDEST SWAP1 POP SWAP2 SWAP1 POP JUMP JUMPDEST PUSH1 0x0 PUSH2 0x2705 DUP3 PUSH2 0x270C JUMP JUMPDEST SWAP1 POP SWAP2 SWAP1 POP JUMP JUMPDEST PUSH1 0x0 PUSH2 0x2717 DUP3 PUSH2 0x26AE JUMP JUMPDEST SWAP1 POP SWAP2 SWAP1 POP JUMP JUMPDEST PUSH1 0x0 JUMPDEST DUP4 DUP2 LT ISZERO PUSH2 0x273C JUMPI DUP1 DUP3 ADD MLOAD DUP2 DUP5 ADD MSTORE PUSH1 0x20 DUP2 ADD SWAP1 POP PUSH2 0x2721 JUMP JUMPDEST DUP4 DUP2 GT ISZERO PUSH2 0x274B JUMPI PUSH1 0x0 DUP5 DUP5 ADD MSTORE JUMPDEST POP POP POP POP JUMP JUMPDEST PUSH1 0x0 PUSH2 0x275C DUP3 PUSH2 0x26D8 JUMP JUMPDEST SWAP2 POP PUSH4 0xFFFFFFFF DUP3 EQ ISZERO PUSH2 0x2773 JUMPI PUSH2 0x2772 PUSH2 0x277E JUMP JUMPDEST JUMPDEST PUSH1 0x1 DUP3 ADD SWAP1 POP SWAP2 SWAP1 POP JUMP JUMPDEST PUSH32 0x4E487B7100000000000000000000000000000000000000000000000000000000 PUSH1 0x0 MSTORE PUSH1 0x11 PUSH1 0x4 MSTORE PUSH1 0x24 PUSH1 0x0 REVERT JUMPDEST PUSH1 0x0 DUP1 REVERT JUMPDEST PUSH1 0x0 PUSH1 0x1F NOT PUSH1 0x1F DUP4 ADD AND SWAP1 POP SWAP2 SWAP1 POP JUMP JUMPDEST PUSH32 0x416D6F756E7430206D7573742062652061206E6F6E207A65726F207175616E74 PUSH1 0x0 DUP3 ADD MSTORE PUSH32 0x6974790000000000000000000000000000000000000000000000000000000000 PUSH1 0x20 DUP3 ADD MSTORE POP JUMP JUMPDEST PUSH32 0x4F6E6C792074686520706172656E742063616E2061736B20746F206265206368 PUSH1 0x0 DUP3 ADD MSTORE PUSH32 0x616E676564000000000000000000000000000000000000000000000000000000 PUSH1 0x20 DUP3 ADD MSTORE POP JUMP JUMPDEST PUSH32 0x5068617365206D69736D61746368000000000000000000000000000000000000 PUSH1 0x0 DUP3 ADD MSTORE POP JUMP JUMPDEST PUSH32 0x4F6E6C7920746865206368696C642063616E2061736B20746F2062652072656D PUSH1 0x0 DUP3 ADD MSTORE PUSH32 0x6F76656400000000000000000000000000000000000000000000000000000000 PUSH1 0x20 DUP3 ADD MSTORE POP JUMP JUMPDEST PUSH32 0x496E73756666696369656E74206C697175696469747900000000000000000000 PUSH1 0x0 DUP3 ADD MSTORE POP JUMP JUMPDEST PUSH32 0x4F70746879207374696C6C20696E20686167676C696E67207068617365000000 PUSH1 0x0 DUP3 ADD MSTORE POP JUMP JUMPDEST PUSH32 0x416464726573733A20696E73756666696369656E742062616C616E636520666F PUSH1 0x0 DUP3 ADD MSTORE PUSH32 0x722063616C6C0000000000000000000000000000000000000000000000000000 PUSH1 0x20 DUP3 ADD MSTORE POP JUMP JUMPDEST PUSH32 0x4F70746879206578706972656400000000000000000000000000000000000000 PUSH1 0x0 DUP3 ADD MSTORE POP JUMP JUMPDEST PUSH32 0x596F75277265206E6F7420746865206F7074687920686F6C6465720000000000 PUSH1 0x0 DUP3 ADD MSTORE POP JUMP JUMPDEST PUSH32 0x4174206C65617374206F6E65206F7574707574206D7573742062652061206E6F PUSH1 0x0 DUP3 ADD MSTORE PUSH32 0x6E207A65726F207175616E746974790000000000000000000000000000000000 PUSH1 0x20 DUP3 ADD MSTORE POP JUMP JUMPDEST PUSH32 0x4475726174696F6E206D7573742062652061206E6F6E207A65726F207175616E PUSH1 0x0 DUP3 ADD MSTORE PUSH32 0x7469747900000000000000000000000000000000000000000000000000000000 PUSH1 0x20 DUP3 ADD MSTORE POP JUMP JUMPDEST PUSH32 0x416464726573733A2063616C6C20746F206E6F6E2D636F6E7472616374000000 PUSH1 0x0 DUP3 ADD MSTORE POP JUMP JUMPDEST PUSH32 0x596F75277265206E6F7420746865206F776E6572000000000000000000000000 PUSH1 0x0 DUP3 ADD MSTORE POP JUMP JUMPDEST PUSH32 0x5361666545524332303A204552433230206F7065726174696F6E20646964206E PUSH1 0x0 DUP3 ADD MSTORE PUSH32 0x6F74207375636365656400000000000000000000000000000000000000000000 PUSH1 0x20 DUP3 ADD MSTORE POP JUMP JUMPDEST PUSH32 0x4F70746879206E6F742079657420657870697265640000000000000000000000 PUSH1 0x0 DUP3 ADD MSTORE POP JUMP JUMPDEST PUSH32 0x5265736572766520636F6E7374616E7473206D7573742062652061206E6F6E20 PUSH1 0x0 DUP3 ADD MSTORE PUSH32 0x7A65726F207175616E7469747900000000000000000000000000000000000000 PUSH1 0x20 DUP3 ADD MSTORE POP JUMP JUMPDEST PUSH2 0x2B8C DUP2 PUSH2 0x2674 JUMP JUMPDEST DUP2 EQ PUSH2 0x2B97 JUMPI PUSH1 0x0 DUP1 REVERT JUMPDEST POP JUMP JUMPDEST PUSH2 0x2BA3 DUP2 PUSH2 0x2686 JUMP JUMPDEST DUP2 EQ PUSH2 0x2BAE JUMPI PUSH1 0x0 DUP1 REVERT JUMPDEST POP JUMP JUMPDEST PUSH2 0x2BBA DUP2 PUSH2 0x2692 JUMP JUMPDEST DUP2 EQ PUSH2 0x2BC5 JUMPI PUSH1 0x0 DUP1 REVERT JUMPDEST POP JUMP JUMPDEST PUSH2 0x2BD1 DUP2 PUSH2 0x26CE JUMP JUMPDEST DUP2 EQ PUSH2 0x2BDC JUMPI PUSH1 0x0 DUP1 REVERT JUMPDEST POP JUMP JUMPDEST PUSH2 0x2BE8 DUP2 PUSH2 0x26D8 JUMP JUMPDEST DUP2 EQ PUSH2 0x2BF3 JUMPI PUSH1 0x0 DUP1 REVERT JUMPDEST POP JUMP INVALID LOG2 PUSH5 0x6970667358 0x22 SLT KECCAK256 DUP12 DUP1 0xFC SWAP15 SHR 0xC CALLER 0xD 0xE2 RETURN SMOD COINBASE 0xAC DUP3 DUP4 0xC7 LOG2 SWAP5 0xD8 GASLIMIT 0xD7 PUSH14 0x3D251CA03B053B8C5CBD64736F6C PUSH4 0x43000807 STOP CALLER LOG2 PUSH5 0x6970667358 0x22 SLT KECCAK256 0xBB OR MUL 0xD4 0xB6 0x2E 0xEA 0x5E PUSH1 0xEB 0xE9 0xC7 PUSH21 0x5C4973B1FDD8622D755B9D0A4DA562BE6A9A306473 PUSH16 0x6C634300080700330000000000000000 "
		},
		"gasEstimates": {
			"creation": {
				"codeDepositCost": "4627000",
				"executionCost": "54023",
				"totalCost": "4681023"
			},
			"external": {
				"Child()": "2522",
				"Parent()": "2610",
				"changeParent(address)": "26867",
				"getOpthys()": "infinite",
				"newOpthy(bool,uint32,address,address,uint128,uint128,uint128)": "infinite",
				"removeChild()": "infinite"
			}
		},
		"methodIdentifiers": {
			"Child()": "9e254d13",
			"Parent()": "d3c8dd69",
			"changeParent(address)": "9b08e8fc",
			"getOpthys()": "d18c7446",
			"newOpthy(bool,uint32,address,address,uint128,uint128,uint128)": "a7d73811",
			"removeChild()": "c8bca060"
		}
	},
	"abi": [
		{
			"anonymous": false,
			"inputs": [
				{
					"indexed": true,
					"internalType": "address",
					"name": "opthy",
					"type": "address"
				},
				{
					"indexed": true,
					"internalType": "address",
					"name": "creator",
					"type": "address"
				}
			],
			"name": "NewOpthy",
			"type": "event"
		},
		{
			"inputs": [],
			"name": "Child",
			"outputs": [
				{
					"internalType": "address",
					"name": "",
					"type": "address"
				}
			],
			"stateMutability": "view",
			"type": "function"
		},
		{
			"inputs": [],
			"name": "Parent",
			"outputs": [
				{
					"internalType": "address",
					"name": "",
					"type": "address"
				}
			],
			"stateMutability": "view",
			"type": "function"
		},
		{
			"inputs": [
				{
					"internalType": "address",
					"name": "parent",
					"type": "address"
				}
			],
			"name": "changeParent",
			"outputs": [],
			"stateMutability": "nonpayable",
			"type": "function"
		},
		{
			"inputs": [],
			"name": "getOpthys",
			"outputs": [
				{
					"components": [
						{
							"internalType": "address",
							"name": "opthy",
							"type": "address"
						},
						{
							"internalType": "uint32",
							"name": "phase",
							"type": "uint32"
						},
						{
							"internalType": "uint32",
							"name": "duration",
							"type": "uint32"
						},
						{
							"internalType": "address",
							"name": "holder",
							"type": "address"
						},
						{
							"internalType": "address",
							"name": "seller",
							"type": "address"
						},
						{
							"internalType": "uint256",
							"name": "expiration",
							"type": "uint256"
						},
						{
							"internalType": "contract IERC20",
							"name": "token0",
							"type": "address"
						},
						{
							"internalType": "contract IERC20",
							"name": "token1",
							"type": "address"
						},
						{
							"internalType": "uint256",
							"name": "balance0",
							"type": "uint256"
						},
						{
							"internalType": "uint256",
							"name": "balance1",
							"type": "uint256"
						},
						{
							"internalType": "uint128",
							"name": "r0",
							"type": "uint128"
						},
						{
							"internalType": "uint128",
							"name": "r1",
							"type": "uint128"
						}
					],
					"internalType": "struct Opthys.opthy[]",
					"name": "",
					"type": "tuple[]"
				}
			],
			"stateMutability": "view",
			"type": "function"
		},
		{
			"inputs": [
				{
					"internalType": "bool",
					"name": "ISell_",
					"type": "bool"
				},
				{
					"internalType": "uint32",
					"name": "duration_",
					"type": "uint32"
				},
				{
					"internalType": "contract IERC20",
					"name": "token0_",
					"type": "address"
				},
				{
					"internalType": "contract IERC20",
					"name": "token1_",
					"type": "address"
				},
				{
					"internalType": "uint128",
					"name": "r0_",
					"type": "uint128"
				},
				{
					"internalType": "uint128",
					"name": "r1_",
					"type": "uint128"
				},
				{
					"internalType": "uint128",
					"name": "amount0_",
					"type": "uint128"
				}
			],
			"name": "newOpthy",
			"outputs": [
				{
					"internalType": "address",
					"name": "",
					"type": "address"
				}
			],
			"stateMutability": "nonpayable",
			"type": "function"
		},
		{
			"inputs": [],
			"name": "removeChild",
			"outputs": [],
			"stateMutability": "nonpayable",
			"type": "function"
		}
	]
}